:020000040001F9
:10A00000005A0120E50302001D0402001F040200A3
:10A0100021040200230402002504020000000000C5
:10A020000000000000000000000000002704020003
:10A0300029040200000000002B0402007F940200AB
:10A04000A94C0200B74C0200C54C0200D34C0200E0
:10A05000E14C0200EF4C0200FD4C02000B4D0200EF
:10A06000194D0200274D0200354D0200434D0200FC
:10A07000514D02005F4D02006D4D02007B4D02000C
:10A08000894D0200974D0200A54D0200B34D02001C
:10A09000C14D0200CF4D0200DD4D0200EB4D02002C
:10A0A000F94D0200074E0200154E0200234E020039
:10A0B000314E02003F4E02004D4E02005B4E020048
:10A0C000694E0200794E0200894E0200994E02004C
:10A0D000A94E0200B94E0200C94E0200D94E02003C
:10A0E000E94E0200F94E0200094F0200194F02002A
:10A0F000294F0200394F0200494F0200594F020018
:10A10000694F0200794F0200894F0200994F020007
:10A11000A94F0200B94F0200C94F0200D94F0200F7
:10A12000E94F0200F94F02000950020019500200E5
:10A1300029500200395002004950020061500200CB
:10A14000715002008150020091500200A1500200A3
:10A15000B1500200C1500200D1500200E150020093
:10A16000F150020001510200115102002151020080
:10A17000315102004151020051510200615102006F
:10A18000715102008151020091510200A15102005F
:10A19000B1510200C1510200D1510200E15102004F
:10A1A000F15102000152020011520200215202003C
:10A1B000315202004152020051520200615202002B
:10A1C000715202008152020091520200A15202001B
:10A1D000B1520200C1520200D1520200E15202000B
:10A1E000F1520200015302001153020021530200F8
:10A1F00031530200415302005153020061530200E7
:10A20000715302008153020091530200A1530200D6
:10A21000B1530200C1530200D1530200E1530200C6
:10A22000F1530200015402001154020021540200B3
:10A230003154020045540200555402006554020096
:10A240002F0402002F0402002F0402002F0402003A
:10A250002F0402002F0402002F0402002F0402002A
:10A260002F0402002F0402002F0402002F0402001A
:10A270002F0402002F0402002F0402002F0402000A
:10A28000DFF810D013F012FF0048004731940200AD
:10A29000AFF30080005A01202DE9F04100297CD065
:10A2A000102A7AD10C460126207B0027FE4D01287A
:10A2B0000ED0207900EB800101EBC01005EB80008F
:10A2C00080F842722079022801D2217B51B1BAE094
:10A2D000207900EB800101EBC01005EB800080F8D5
:10A2E0004262EFE700EB800101EBC01005EB80005C
:10A2F00004F10801D0F88800426A904701287DD116
:10A300000DF065FF8046207900EB800101EBC01065
:10A3100005EB8000D0F88800416C8847DFEDE30A48
:10A32000207980EE201A00EB800101EBC01005EBD4
:10A33000800080ED1B1A207900EB800101EBC0103A
:10A3400005EB800090ED3A0A80ED3C0A207900EBA5
:10A35000800101EBC01005EB800050F8EC1F81601C
:10A36000207900EB800101EBC01005EB800090ED3F
:10A370001B0ADFEDCF0A20EE200AF2EE040A20EEDF
:10A38000200ABCEEC00A10EE101A89B200EE101AB4
:10A39000B8EE401A81EE200A00E067E080ED1B0A6B
:10A3A000207900EB800101EBC01005EB800080ED0F
:10A3B0003A0A217901EB810000EBC11005EB800026
:10A3C000C0F8EC80207900EB800101EBC01005EBB8
:10A3D000800090ED191A90ED460AD0ED3A0A71EE20
:10A3E000001AF4EEE01AF1EE10FA0BDD31EE401A2D
:10A3F000B4EEE01AF1EE10FA04D200E023E080F8A7
:10A40000726015E090ED1A1A71EE001AF4EEE01A7F
:10A41000F1EE10FA0ADD31EE400AB4EEE00AF1EE98
:10A4200010FA03D2022180F8721001E080F87270F5
:10A43000207900EB800101EBC01005EB8000D0F823
:10A440008800C16A884794ED020ADFED9A0A2079F4
:10A4500020EE200A00EB800202EBC01005EB80002A
:10A46000BCEEC00A10EE101AA0F85612BDE8F0813A
:10A4700070B5002928D0102A26D18B4D28690028D4
:10A4800022D00C4694ED020A85ED090A207960B9C4
:10A49000284695F83410C069B9B1A17B012918D0BC
:10A4A00002291AD0882105F04BF82079012801D023
:10A4B000022809D1401E00EB800202EBC01005EB20
:10A4C0008000A189A0F8461270BD022105F038F87D
:10A4D000EBE7202105F034F8E7E7402105F030F8FC
:10A4E000E3E72DE9F047002970D00E2A6ED16E4EB9
:10A4F000306902286AD10C4601276079012853D1BE
:10A5000004F074FB96F8400018BB207910B10128C4
:10A5100026D049E000F036FE00254FF4006805EB38
:10A52000850000EBC51006EB800090F87000012854
:10A5300010D086F840704146D6F83C0205F000F88D
:10A540004146D6F8500404F0FBFF6D1CEDB2022D1D
:10A55000E5D329E086F84070284603F0C0F9F4E717
:10A5600000F010FE86F8407096F83C0030B103F021
:10A5700095F9014696F83C0004F065FF00254FF47C
:10A58000805805EB850000EBC51006EB800090F8C5
:10A59000711031B180F84072D0F83C02414604F0AD
:10A5A000CFFF6D1C022DECDBA078002501280ED01A
:10A5B000A07A05280BD086F83650E0880F2802D8FC
:10A5C00020890F2806D986F8387005E077E086F8EC
:10A5D0003670F2E786F8385020784FF400484FF490
:10A5E00080394FF4807A032802D0042815D020E067
:10A5F000002004F000FB96F87000022805D004212A
:10A60000D6F8FC0104F09CFF13E000F0BBFD4146CE
:10A61000D6F83C0204F094FF0BE0002004F0EBFAC3
:10A6200096F8700002280AD05146D6F8FC0104F0D2
:10A6300087FF607803280AD004281DD028E000F0A6
:10A64000A1FD4946D6F83C0204F07AFFF1E701206B
:10A6500004F0D1FA96F88402022805D00421D6F835
:10A66000100404F06DFF13E000F08CFD4146D6F8B5
:10A67000500404F065FF0BE0012004F0BCFA96F8EA
:10A68000840202281DD05146D6F8100404F058FF69
:10A69000E07A08B186F83C00207B012819D086F8C2
:10A6A0003F50E078012807E03883FF1F0000444254
:10A6B0003333054200007A440ED086F83E50BDE8A0
:10A6C000F08700F05FFD4946D6F8500404F038FFEB
:10A6D000DEE786F83F70E4E786F83E70EFE770B596
:10A6E00000297DD0102A7BD1BE4D2869002877D063
:10A6F0000C46012120680022022808D1207A022875
:10A7000009D085F8342085F8442285F8582420683B
:10A71000052807D029E085F8341085F8441285F81B
:10A720005814F4E7AF48237AD0F8FC01022B05D087
:10A7300085F8352095F8361069B116E085F83510A2
:10A740004FF40016314604F0FBFE3146D5F81004F4
:10A7500004F0F6FE09E04FF40006314604F0F0FE86
:10A760003146D5F8100404F0EBFE2068032816D11A
:10A77000207A012813D195F870004FF40046022882
:10A780002AD00421D5F8FC0104F0DAFE95F8840201
:10A79000022829D00421D5F8100404F0D1FE206845
:10A7A000042834D1207A012831D195F870004FF473
:10A7B0008034261202281DD03146D5F8FC0104F061
:10A7C000BFFE95F8840202281AD03146D5F810044D
:10A7D000BDE8704004F0B4BE3146D5F83C0200E05C
:10A7E00015E004F0ADFED1E73146D5F8500404F091
:10A7F000A7FED4E72146D5F83C0204F0A1FEE0E72D
:10A800002146D5F85004BDE8704004F099BE70BDF3
:10A810002DE9F04F2DED048B87B0724803F07EFBDD
:10A82000714C206804F048FEDFF8B8B1CBF81C008A
:10A8300002A809F08BFC0220ADF80A004FF00009D5
:10A84000042332220BF26C4168A0CDF8009005F091
:10A85000A2FC042332220BF2345166A0CDF8009002
:10A8600005F099FC00259FED659ADFED659A9FED57
:10A87000658AF2EE008A4FF0010A05EB850000EBD5
:10A88000C5100BEB800606F1440405F0FF0884F8C0
:10A89000008084F80190C4F8089041F64C50E060C4
:10A8A000C4F81090C4F8149040F6C410E06184ED30
:10A8B000819AC4ED829A6420C4F80C0215B1012D6E
:10A8C00005D008E049A005F0CFFC606403E049A092
:10A8D00005F0CAFC606484ED0C8A84ED0D8AC4ED39
:10A8E0000E8A14202064404800EB8507B86804F005
:10A8F000E3FDC4F8B80104F5CE7002F0F0F984F875
:10A900004C8084F84D90386904F0D6FDC4F884007A
:10A9100004F1680003F01EFA90363B4800EBC500D6
:10A92000B0610068017911B1ADF8129001E0ADF8A5
:10A9300012A04188007802AA09F05AFBB069416868
:10A94000097911B1ADF8129001E0ADF812A040689C
:10A9500002AA4188007809F04BFB386A04F0ACFD8C
:10A96000C4F8F80104F5EE7002F064FE6D1C022DCF
:10A9700083DBAFF2DB61302004F0A1FFAFF20F51B7
:10A98000202004F09CFFAFF2A5413E2004F097FF89
:10A99000AFF2B5213D2004F092FF8121DBF81C00CD
:10A9A00004F0CEFD07B0BDEC048BBDE8F08F70B5B0
:10A9B00003F0C1FA00240B4E86F8414004EB8400FA
:10A9C00000EBC41006EB80054435284602F03EFE3D
:10A9D000284602F0C6F9284603F0C9F9641C022C87
:10A9E000EADB70BD3883FF1F0880FF1F566178695E
:10A9F000735F310056617869735F32000000AA42CC
:10AA000000000C4200000000FCF902007047704793
:10AA10007047704710B541680B7A0022002100781A
:10AA2000AF4C00EB800004EB4000445C9C4201D141
:10AA3000521CD2B2491CC9B20A29F6D30A2A01D340
:10AA4000012010BD002010BD70B505460024A44EA5
:10AA50003C360FE0295D062901D3002070BD01EBD3
:10AA6000810000EBC10006EB8000FFF7D3FF30B19F
:10AA7000641CE4B2287AA042ECD8012070BD00200A
:10AA800070BD10B586B0044601A809F05FFB002038
:10AA9000ADF80600207A10B94020ADF80E00A0886D
:10AAA00001AA81B2207809F0A3FA06B010BD2DE901
:10AAB000F05F0025DFF82892DFF828A2DFF828B23F
:10AAC0000427DFF81C8209F13C09002605EB85000C
:10AAD00000EBC50009EB8004257005EB45000AEB8F
:10AAE0008000606084F82660266384F8246084F81F
:10AAF00025606068FFF7C5FFC4F808B0A7817A48F1
:10AB000030302061A782266204F1080003F0B0F91A
:10AB1000002005EB850108EB41026168097A69B103
:10AB200000211154401CC0B20A28F6D36F48465584
:10AB30006D1CEDB2062DC9D3BDE8F09F0121F0E7F1
:10AB40001FB5002302930393009001918DF8082014
:10AB50000DF03DFB03900223102269463D2004F0D6
:10AB600029FF1FBD2DE9F84F0DF031FB06460027E8
:10AB70000024DFF86C915D4D4FF00A0A09F13C08A2
:10AB800004EB840000EBC40008EB8000406881887F
:10AB9000007889B209F08BFC0146285D04EB840241
:10ABA00009EB42028154401CB0FBFAF10AFB110090
:10ABB0002855641CE4B2062CE2D30024DFF828B147
:10ABC000DFF828A1ABF1180BAAF1040AA14604EBA7
:10ABD00044000BEBC0052846FFF736FF88B101277C
:10ABE0005AF82400E968884203D2401C4AF824003D
:10ABF00009E0D5E904010222FFF7A2FF4AF82490F8
:10AC000001E04AF82490641CE4B2002CDFD0CDF8B7
:10AC100000909DF8000000EB800101EBC00008EB04
:10AC200080042046FFF7F6FE84F824001FB10121BE
:10AC300084F8261001E084F8269094F825108842C4
:10AC400027D084F8250040B1A662C4F830900021D6
:10AC500004F1080003F011F91BE0E662012104F1A0
:10AC6000080003F00AF994F8260060B9D4E90A1044
:10AC7000401A61684989814205D9012269469DF8D7
:10AC80000000FFF75DFF032269469DF80000FFF713
:10AC900057FFA069022819D194F82400B0B194F8A4
:10ACA000260098B9206B401C20636168498988425E
:10ACB0000CD3022104F1080003F0DFF8C4F830904F
:10ACC000022269469DF80000FFF73AFF9DF8000058
:10ACD000401CC0B2009006289BD3BDE8F88F00004E
:10ACE0003489FF1F38E70200D8E602003C80FF1FCE
:10ACF0000421FE4803F0C1B88021FC4803F0BDB830
:10AD00004FF48061F94803F0B8B84FF40041F748B8
:10AD100003F0B3B82DE9F047102A73D1F44CF34F88
:10AD2000086801224FF480794FF4803A4FF0000810
:10AD3000264620B1012833D0202864D082E0087A4A
:10AD4000012804D0022802D0032802D07AE0227021
:10AD500078E084F8008084F8028070680DF041FB90
:10AD60003D7C022D01D0032D03D10821DF4803F0E3
:10AD700084F8072D08D184F80280B0680DF031FB0B
:10AD80004946DA4803F079F80D2D5BD184F802804A
:10AD900030690DF026FB5146D44803F06EF851E0BF
:10ADA000087A012804D0022802D0032802D049E002
:10ADB000627047E084F8018084F80280F0680DF04A
:10ADC00010FB3D7C082D01D0092D04D14FF400610A
:10ADD000C64803F052F8072D08D184F80280B06805
:10ADE0000DF0FFFA4946C14803F047F80D2D29D16F
:10ADF00084F8028030690DF0F4FA5146BB4803F044
:10AE00003CF81FE0A3E0087A012804D0022802D011
:10AE1000032802D016E0A27014E084F80280B06823
:10AE20000DF0DFFA30690DF0DCFA3D7C072D03D11F
:10AE30004946AE4803F021F80D2D03D15146AB48E9
:10AE400003F01BF8387C4FF4804741F288350D2819
:10AE50007DD2DFE800F07F077F7F2664647F7F7FFD
:10AE6000446F6F00207850B1607840B902219F484C
:10AE700003F003F82A46002170680DF0A4FA607808
:10AE8000002867D02078002864D14FF400719748DB
:10AE900002F0F3FF2A46F068BDE8F04700210DF00C
:10AEA00092BA207828B1607818B910218F4802F042
:10AEB000E4FF607828B1207818B920218B4802F08F
:10AEC000DCFFA078002845D04021884802F0D5FF5B
:10AED0002A46B068BDE8F04700210DF074BA6078EA
:10AEE00030B1207820B94FF40051804802F0C5FFFE
:10AEF000207830B1607820B94FF480517B4802F05F
:10AF0000BCFFA078002825D03946784802F0B5FF6C
:10AF10002A463069BDE8F04700210DF054BAA07808
:10AF200040B14021714802F0A8FF2A460021B068D4
:10AF30000DF049FAA07800280CD039466B4802F091
:10AF40009CFF2A463069BDE8F047002100E001E09F
:10AF50000DF039BABDE8F08710B564486549016065
:10AF600027218180644981600E21818101218161D5
:10AF700002F07EFF0DF0FFF95D4C60600DF0FBF913
:10AF8000A0600DF0F8F9E0600DF0F5F9206160685F
:10AF900010B15A490DF013FAA06810B158490DF0DC
:10AFA0000EFAE06810B157490DF009FA206910B1A6
:10AFB00055490DF004FAAFF2A321BDE810403D2041
:10AFC00004F07DBC4948007C494A05281178527834
:10AFD0000ED006280CD00B2801D00C2811D1002946
:10AFE0000FD1002A0DD14FF48031404802F045BF07
:10AFF000002906D1002A04D14FF480713B4802F0A9
:10B000003CBF704710B53A4C60680DF0EAF9A06893
:10B010000DF0E7F9E0680DF0E4F920690DF0E1F9D1
:10B0200000202080A0703149087C012825D1486982
:10B03000364A02280DD0082812D04FF400610728A4
:10B0400015D00D2819D1D2F85004BDE8104004F0F5
:10B0500077BAD2F83C02BDE81040102104F070BA73
:10B06000D2F85004BDE81040102104F069BAD2F8BB
:10B070003C02BDE8104004F063BA10BDF0B41B48B8
:10B08000047C224B4FF4802631124269D3F85004DD
:10B09000A41E8D104F10D3F83C320C2C70D2DFE878
:10B0A00004F0060B10393E43484C5063676BF0BC0C
:10B0B0000821184604F044BAF0BC2021184604F0D8
:10B0C0003FBA032A0AD0072A0DD0052A01D0062A42
:10B0D00056D12946F0BC184604F032BA3146F0BCCD
:10B0E000184604F02DBAF0BC184611E0A88AFF1FDC
:10B0F0004480FF1F80E7020054E90200F1AC010028
:10B10000F9AC010001AD01000BAD01003883FF1F58
:10B1100004F016BAF0BC4021184604F011BAF0BC95
:10B120008021184604F00CBA3946F0BC184604F0E9
:10B1300007BAF0BC082104F003BAF0BC202104F0E7
:10B14000FFB9092A09D00D2A0BD00B2A01D00C2AED
:10B1500016D12946F0BC04F0F3B93146F0BC04F036
:10B16000EFB9F0BC04F0ECB9F0BC402104F0E8B950
:10B17000F0BC802104F0E4B93946F0BC04F0E0B939
:10B18000F0BC70474FF40031014802F076BE000079
:10B19000A88AFF1F70B500F02EFB0025AC4E2EE0F4
:10B1A000AC49C5EBC50001EBC004AB4905EB85001C
:10B1B00001EB4000016821604168616000892081E5
:10B1C0000020E06020616061A061E061206284F89D
:10B1D000240084F82500A062E062206384F8340033
:10B1E00084F8350084F8360084F83700204600F0F3
:10B1F000B8FA0021204600F0D5F96D1CEDB2307888
:10B200008542CDD370BD2DE9F0410CF0E0FF06463C
:10B2100092484168711A0A292CD3466000258C4F48
:10B2200025E08C49C5EBC50001EBC00494F824006F
:10B23000012802D1204600F07AFA94F83500A0B136
:10B2400094F8340088B194F8360070B9E06860B1C1
:10B25000006894F8251000EB8100A16A711A00883B
:10B26000884202D8204600F02BFA6D1CEDB23878E7
:10B270008542D6D3BDE8F08110B5754A1278904268
:10B2800011D281B10A6882B1137973B1714BC0EBED
:10B29000C00003EBC00090F83530ABB190F824301B
:10B2A000032B04D010E0002010BD002010BDC368A7
:10B2B000934209D1037C0C79A34205D143698C6880
:10B2C000A34201D1012010BDD1E90131C0E906231B
:10B2D0000162012180F82410012010BD5C49097829
:10B2E000884206D25B49C0EBC00001EBC00000F011
:10B2F000A2B9704756490978884209D2C0EBC0020A
:10B300005448012100EBC2003430817000210170EB
:10B31000704710B54E49097888420CD24D49C0EBB0
:10B32000C00001EBC00400202834A073012020736A
:10B330000CF04DFF206010BD45490978884201D3CB
:10B34000002070474349C0EBC00001EBC00090F8FB
:10B35000350070473E490978884201D30020704784
:10B360003C49C0EBC00001EBC00090F834007047CE
:10B3700070B50C463649097888420FD2072C0DD299
:10B380003449C0EBC00001EBC005284600F053F97A
:10B3900021462846BDE8704000F004B970BD2C4934
:10B3A0000978884201D3002070472A49C0EBC000C9
:10B3B00001EBC00090F837007047072801D328A0A0
:10B3C00070472649083151F82000704770B586B0A3
:10B3D00004461F48007884420AD2002908D01F4D35
:10B3E00088074FF0FF0605D52046FFF777FF2E555B
:10B3F00006B070BD480704D52046FFF76FFF2E55F5
:10B40000F6E7C80704D006B02046BDE8704080E7E4
:10B41000285DB0EB117FEBD3080F285521F0704069
:10B4200003A900F091F80028E2D09DF80C0000F08C
:10B43000C1F90028DCD000909DF80D008DF80400C3
:10B440000498029069462046FFF716FFD0E70000F7
:10B4500043EB0200C48AFF1F28EB02005880FF1F45
:10B46000556E6B6E6F776E0010B5002203230407D4
:10B4700002D501220A2312E0C40602D502220B23C0
:10B480000DE0840602D503220C2308E0440602D511
:10B4900004220D2303E0840501D503220C231AB9ED
:10B4A000440501D501220A2300F4806414430AD024
:10B4B000440342D404030ED5012A06D0022A06D042
:10B4C000032A06D039E0002010BD072335E0082309
:10B4D00033E0092331E0C4022FD4840210D5012ABD
:10B4E00006D0022A06D0032A06D0042A06D024E079
:10B4F0000A2322E00B2320E00C231EE00D231CE096
:10B5000044020CD5012A04D0022A04D0032A04D014
:10B5100013E00E2311E00F230FE010230DE00002D3
:10B520000BD5012A04D0022A04D0032A04D004E057
:10B53000112302E0122300E013230B700020487057
:10B5400048600120087210BD10B5002915D0B0B1B7
:10B5500000220A604A608A60114B02EB420453F8F1
:10B56000244030EA04040CD0521CD2B2192AF4D37D
:10B57000FFF77AFF90B1012010BD002010BD002020
:10B5800010BD02EB420003EB800002790A704279A1
:10B590004A70806848600120087210BD002010BD0C
:10B5A000FCE902002DE9F04104460F46002C28D0AA
:10B5B000072F26D27E48C619657A3078C00701D099
:10B5C0002A4601E04DB100222188A07900F0EAF876
:10B5D0003078800703D52A4603E00122F4E795B1CD
:10B5E00000226188E07900F0DDF83078400701D46E
:10B5F0005DB100252A46A188207A00F0D3F884F8AE
:10B600003770BDE8F0810122EBE70125F2E710B5C4
:10B610000446002C0ED0E06800280BD0006894F897
:10B62000251000EB810081782046FFF7BBFF0CF06E
:10B63000CEFDA06210BD002806D000212430417448
:10B64000017400F82419ADE7704770B5002815D0D3
:10B65000C16899B1C36A5B1CC362C988026B541884
:10B66000046300F1100100250A784AB1012A0DD0C7
:10B67000022A18D0FFF7DFFF002070BD002070BD48
:10B6800080F82550FFF7C3FF012070BD49688B4249
:10B6900003D3FFF7D0FF002070BD80F82550FFF7DF
:10B6A000B6FF012070BD49688C4203D3FFF7C3FF8A
:10B6B000002070BD80F82550FFF7A9FF012070BD64
:10B6C00010B500280DD0C2685AB190F82510491C59
:10B6D000C9B280F825101279914204D3BDE8104018
:10B6E000B3E7002010BDFFF792FF012010BD70B539
:10B6F0000446002C1AD001201834607720770025EA
:10B7000065736561A561A5770320207354F80C0C5F
:10B71000183C28B1007918B12046BDE8704076E7A2
:10B7200000212046FFF73EFF84F8355070BD10B56C
:10B73000002803D090F82410012901D0002010BD6A
:10B74000D0E907238169C0E90423C1600021816138
:10B75000C1610162022180F82410FFF7C8FF0120B7
:10B7600010BD10B586B0044601A808F0EFFC022019
:10B77000ADF80600607A98B10020ADF80E0021887F
:10B78000A07901AA08F034FC6188E07901AA08F0E8
:10B790002FFCA188207A01AA08F02AFC06B010BD6F
:10B7A0000120EAE7002A01D008F003BF08F024BF17
:10B7B0003CEB0200172801D3002070470E4900EB34
:10B7C000400001EB8000704717207047172801D315
:10B7D00000207047084900EB400001EB80007047F3
:10B7E000172801D300207047034900EB400001EB0C
:10B7F000800080687047704728EC02002DE9F04116
:10B800002DED088B00250127F6EE008A1B4E9FEDDB
:10B810001C9A9FED1C8A9FED1CBADFED1C9A9FEDD0
:10B820001CAADFED1CAA05EB850000EBC51006EB9A
:10B83000800404F5CC7104F5C27000F011FA84F8AC
:10B840008471C4ED628A84ED639A84ED648A84ED28
:10B85000658A84ED6EBA84ED6F8AC4ED749A84EDC6
:10B8600075AAC4ED76AA6D1C022DDCDBBDEC088B3D
:10B87000BDE8F0817047084804F0C0BA3883FF1F64
:10B88000CDCC4C3D0000000000401C4500002F4482
:10B890000080BB440000FA443CED02002DE9F04179
:10B8A0002DED068B00250127B7EE009A434EDFED04
:10B8B000448A9FED448AF2EE009ABAEE00AAF6EEB0
:10B8C00000AA05EB850000EBC51006EB800404F12F
:10B8D000E00104F1CC0000F0C3F984F8CC7084EDF1
:10B8E000349AC4ED358A84ED368A84ED378AC4ED06
:10B8F000409A84ED41AAC4ED46AA6D1C022DE0DBFE
:10B90000BDEC068BBDE8F0812DE9F0412DED028BF9
:10B9100000252A4F2C4EA84605EB850000EBC510EC
:10B9200007EB800494F8E000F0B3D4ED3A0A94ED0C
:10B93000390A04F1E00104F1CC0000F04DF9E5B959
:10B940007088022817D3A6F802803088B0F5C87F27
:10B9500013D21E4A97ED3E0A02EB8002394682ED71
:10B96000000A91ED420A1A4901EB800181ED000ABB
:10B97000401C308001E0401C708094ED420AB0EE23
:10B98000C00A10EE100A1349884206DC10EE100AB5
:10B990001149884201DC10EE100AD4ED3E0A94F8F9
:10B9A000A40096ED010A00E001E084ED500A6D1C50
:10B9B000022DB1DBBDEC028BA4E700003883FF1F32
:10B9C0000AD7233C000000007080FF1F348BFF1F4C
:10B9D000B497FF1F000020410000A0402DE9F04176
:10B9E0002DED068B00250127F3EE049A3F4E9FEDC7
:10B9F000409ADFED408A9FED408A9FED40AAF6EE27
:10BA000000AA05EB850000EBC51006EB800404F5E9
:10BA10009E7104F5947000F023F984F82871C4ED48
:10BA20004B9A84ED4C9AC4ED4D8A84ED4E8A84ED98
:10BA300057AAC4ED588AC4ED5DAA6D1C022DE0DB47
:10BA4000BDEC068BBDE8F0812DE9F0410025274FC4
:10BA50002B4EA84605EB850000EBC51007EB8004D4
:10BA600094F83C0198B3D4ED510A94ED500A04F5D2
:10BA70009E7104F5947000F0AFF83DBB7088052806
:10BA800026D3A6F802803088B0F57A7F22D21D4AEC
:10BA900097ED500A02EB8002394682ED000A1A4AFD
:10BAA00091ED510A02EB800282ED000A174A91EDF6
:10BAB000550A02EB800282ED000A91ED590A144901
:10BAC00001EB800181ED000A401C308002E005E0BE
:10BAD000401C708096ED010A84ED670A6D1C022DF2
:10BAE000B8DBAFE70B4804F089B900003883FF1FCB
:10BAF0000AD7A33C000000000000FA440080BB44C9
:10BB00007880FF1F34A4FF1FD4B3FF1F74C3FF1F2F
:10BB100014D3FF1F54ED020070B505462DED048BC4
:10BB20000C4694ED0D0AD4ED0A0A30EE209A84ED0D
:10BB30000D9A286912F056FA41EC180B19EE100A0A
:10BB400012F050FA41EC100B12F012FB53EC182BD0
:10BB500051EC100B12F072FA14D294ED0D0AD5EDDF
:10BB6000040AB5EEC00AF1EE10FA01DD012001E091
:10BB70004FF0FF3000EE100AB8EEC00A20EE800A47
:10BB800084ED0D0A95ED010AD4ED0A0A94ED0D1A23
:10BB900020EE200AD5ED020A00EE810A84ED060AA5
:10BBA000BDEC048B70BDD1ED0A0A91ED0B1AD0EDFE
:10BBB000011A30EEC10A20EE210AD0ED021A01EE80
:10BBC000A00AD1ED061A31EE800A81ED060A81ED58
:10BBD0000C1AC1ED0B0A704710B50C4684ED010A32
:10BBE000C4ED020A30EE600A84ED0A0A01780029E9
:10BBF00004D0012908D09FED300A10BD2146FFF77F
:10BC00008BFF84ED060A04E02146FFF7CCFF84EDAC
:10BC1000060A94ED060AD4ED090AB4EEE00AF1EE44
:10BC200010FA02D2C4ED060A08E0D4ED080AB4EE18
:10BC3000E00AF1EE10FA01DDC4ED060A94ED060A01
:10BC400010BD9FED1D0A80ED010A80ED020A80ED16
:10BC50000A0A80ED0B0A80ED0D0A80ED060A704796
:10BC60000846EEE7002808D0B4EEE00AF1EE10FA3C
:10BC700004D280ED090AC0ED080A7047C0ED090A38
:10BC800080ED080A7047002807D080ED010AD0ED4A
:10BC9000020A30EE600A80ED0A0A70479FED060A3C
:10BCA00080ED0A0A80ED0B0A80ED0C0A80ED0D0A8A
:10BCB00080ED060A704700000000000000B52DED81
:10BCC000028B8BB09FEDAD8A6B46142201A9AC4864
:10BCD00000F0DEFEBDF80010002915D0002001AAFA
:10BCE00007E002EB800393ED000A30EE088A401C67
:10BCF000C0B28842F5D300EE101AA148B8EE400A4F
:10BD0000C8EE000AC0ED030A0BB0BDEC028B00BD0B
:10BD10009C4804F031BE2DE9F04104462068456896
:10BD200006680CF054FA0346307A974A002150B165
:10BD300094ED030A95ED001AB4EEC01AF1EE10FA74
:10BD400006D2012705E0A17451701170BDE8F081A1
:10BD50000027D5ED011AF4EEC01AF1EE10FA01DD5C
:10BD6000012000E00020D5ED030AF5EEC00AF1EE57
:10BD700010FA01DCF0EE000A2D690DB940F6B83575
:10BD800056784FF002084FF0010C36B3022E08D05F
:10BD900071EEA00AF4EEC00AF1EE10FA0CD2012006
:10BDA0000BE071EE600AF4EEC00AF1EE10FA01DD6C
:10BDB000012002E0002000E0002060B1107830B1E6
:10BDC0005068181AA84211D3517011700EE082F811
:10BDD00000C053600AE0117008E01FB182F80180D2
:10BDE000117003E010B182F801C011705078022880
:10BDF00003D0012804D0A174A8E784F812C0A5E7F5
:10BE000084F81280A2E701684A6809680023497A29
:10BE1000002906D092ED020AB5EEC00AF1EE10FA42
:10BE200002D1C37403767047018A00EE901AF8EECF
:10BE3000600A117D01B90321B4EEE00AF1EE10FAB7
:10BE400008D2027E521CD2B202768A42EBD3032180
:10BE5000C17470470376C374704749484A4990EDEE
:10BE6000030A0C3181ED020A028A8A81827C8A737C
:10BE7000C07CC87342481C30103190ED030A81ED3C
:10BE8000020A028A8A81827C8A73C07CC8733C4819
:10BE90003830103190ED030A81ED020A028A8A815E
:10BEA000827C8A73C07CC873704710B53448FFF732
:10BEB00032FF33481C30FFF7A6FF3148BDE8104081
:10BEC0003830A0E710B53049002310220C31202073
:10BED00003F070FD2C49002310221C31202003F0B8
:10BEE00069FD2949002310222C31BDE81040202093
:10BEF00003F060BD10B52549214800F021F9234920
:10BF00001F4808311C3000F01BF920491C48103133
:10BF1000BDE81040383000F013B910B50CF057F9F7
:10BF20000446FFF7F5FE18498868201A142802D342
:10BF30008C60FFF7C3FEFFF7B8FFFFF78EFFBDE889
:10BF40001040BFE710B501210E4804F089FDBDE89F
:10BF500010400B4800F058BB10B50221094804F00E
:10BF60007FFD07481C3000F04FFB0548383000F0DB
:10BF70004BFBBDE8104003F0D4B800000000000007
:10BF8000B4E2FF1F000004408080FF1FD8ED0200D4
:10BF900010B586B00446002C0BD001A808F0D6F8E6
:10BFA0004FF40040ADF81400E188207901AA08F0B0
:10BFB0001FF806B010BD7CB505460C46FE4885420C
:10BFC00004D10121084607F0D4FF06E0FB48854272
:10BFD00003D10121022007F0CCFF684604F02CFBBE
:10BFE000208EADF80000608EADF80200A08EADF896
:10BFF00004006946284604F095FA10B14FF0FF306E
:10C000007CBD00207CBD00290BD04A7A22B10A7A7F
:10C010000123194604F01ABB0A7A0123002104F017
:10C0200015BB70473EB50121042007F084FF0020B6
:10C030008DF8000030218DF801108DF802000220EB
:10C040008DF8030040F6C3100290DD4C694620468F
:10C050000BF0D4F84FF49672002120460BF039FE15
:10C060000122114620460BF0D1FF3EBD70B50546BA
:10C070000E461446002C0ED00121480407F018FF8C
:10C080002189606805F008F8228831462846BDE815
:10C09000704004F0D2BB70BD7CB506460D46144618
:10C0A000002C46D0C448864243D1ADF800502088C9
:10C0B000ADF8020060680190684608F097FBB4F99B
:10C0C00000200123002A09DB02F01F0003FA00F020
:10C0D0005109890001F1E021C1F88002B4F9002082
:10C0E000A178002A05DB02F1E022080182F80004B1
:10C0F00006E0080102F00F0101F1E02181F8140DC2
:10C10000B4F90020002A08DB02F01F008340500928
:10C11000800000F1E020C0F80031B5F5E07F09D0E3
:10C12000A5F58070C13804D101220221304604F007
:10C13000DDFB7CBD01221146304604F0D7FB7CBDFF
:10C1400070B505460C46002D15D0A4B1206890B1FD
:10C150002C60002068766860A860E86028619949D2
:10C1600001268D420AD19849696198A10988A98060
:10C17000A87128721BE04FF0FF3070BD94498D42CA
:10C1800007D19449696194A10988A980A8712E7288
:10C190000DE092498D4208D19149696191A10988C8
:10C1A000A980A8710220287201E08F48686168693F
:10C1B00018B140F60C0111F0C1FE2468207A18B1C4
:10C1C00004F10C00FFF7E4FE607A18B104F11800E6
:10C1D000FFF7DEFEA07A18B104F12400FFF7D8FEC5
:10C1E00021466068FFF7E7FE10B16FF0010070BDF7
:10C1F000207A20B104F10C016068FFF704FF607A37
:10C2000020B104F118016068FFF7FDFEA07A20B1AB
:10C2100004F124016068FFF7F6FE94F8360028B1B7
:10C2200004F1380200216068FFF720FF94F837001E
:10C2300028B104F1440201216068FFF717FF94F868
:10C24000500030B104F154024FF4E0716068FFF720
:10C2500023FF94F8510030B104F15C0240F2C111A7
:10C260006068FFF719FF94F84E0008B1FFF7DAFE97
:10C270006E76002070BD10B5002808D0417E31B127
:10C280000068046894F83600012803D007E04FF0F6
:10C29000FF3010BD01220021606804F0FBFA94F821
:10C2A0003700012804D101221146606804F0F2FA37
:10C2B000002010BD002806D0417E21B10068006832
:10C2C000406804F059BB4FF0FF3070472DE9F05F34
:10C2D000064600244548864204D000F505718E428A
:10C2E00021D10124414D307D0027903D4FF00509BB
:10C2F0004FF0030A4FF0040B4FF00108012814D04F
:10C30000022877D004EB840000EBC41005EB800515
:10C3100085F8DC8185F8DD81204602F010F985F88A
:10C320004770307D7075BDE8F09F707D012813D097
:10C3300004EB840000EBC41005EB800585F8DC817C
:10C3400085F8DD81204602F0FAF885F8477005F59A
:10C35000CC70FFF7A3FCE4E76006000E002102F0BA
:10C36000D8F804EB840000EBC41005EB800585F8D9
:10C37000DD8109EB4400C0B202F05AF995F846009D
:10C3800008B985F8468095F8460028B195F8470029
:10C3900088B3A86C401CA864A86C0328C1D9C5F850
:10C3A00048A00BEB4400C0B202F02FF91049D5F8B9
:10C3B000B00188422DDD1FE000000440000404406D
:10C3C00000500140B4E2FF1F14EBFF1F564D000068
:10C3D000D0E2FF1F20F3FF1F4D310000ECE2FF1FF2
:10C3E0002CFBFF1F4D32000008E3FF1FC883FF1F17
:10C3F00000301C4523E008E085F8DC8108EB4400B0
:10C40000C0B2012102F085F88BE785F84780AF6460
:10C41000C2E795F8DC0130B108EB4400C0B202F08D
:10C4200047F885F8DC7195ED6C0A08EB4400C0B262
:10C43000BCEEC00A10EE101A02F00DF971E7707D23
:10C4400002280FD004EB840000EBC41005EB80053C
:10C4500085F8DC8185F8DD81204602F070F885F8EA
:10C4600047705EE708EB4400C0B2002102F051F8CB
:10C4700004EB840000EBC41005EB800585F8DD813A
:10C480000BEB4400C0B202F0D3F895F8460008B9AF
:10C4900085F8468095F8460028B195F84700C8B160
:10C4A000A86C401CA864A86C0328ADD9C5F848A0A6
:10C4B00009EB4400C0B202F0A8F8FE49D5F8B0017B
:10C4C00088420BDD85F8DC816006000E012102F058
:10C4D00020F826E785F84780AF64E4E795F8DC01AB
:10C4E00028B16006000E01F0E3FF85F8DC7195EDE0
:10C4F0006C0A6006000EBCEEC00A10EE101A02F0C4
:10C50000AAF80EE72DE9F04100EB800101EBC01223
:10C51000E94901EB8204E94AD4F8B011914240DDC7
:10C52000E74D0027291D2A8801EB8006B2F5FA7F26
:10C5300034D996ED000AD4ED3A0A30EE600A10EED6
:10C54000100A11F04FFD41EC100B11F011FE9FEDA0
:10C55000DD1B51EC100B53EC112B11F057FD15D2D4
:10C560006888401C80B26880052812D96F8094F8D2
:10C570007000022803D0012084F8540209E04FF42F
:10C580000051D4F83C0202F0DBFF02E06888401E54
:10C5900068802F8094ED3A0A86ED000A2888401CB6
:10C5A0002880BDE8F08100282BD0406948B3B0F85E
:10C5B000001800EB810181ED000A90F80018491C79
:10C5C000C9B2A0F80018B0F80818FF2902D8491C11
:10C5D000A0F80818B0F8021800EB810101F580619D
:10C5E000C1ED000A90F80218491CC9B2A0F802185F
:10C5F000B0F80A18FF2902D8491CA0F80A18002030
:10C6000070474FF0FF3070472DE9F04104462DEDA3
:10C61000048B9FEDAE8AB0EE489AF0EE498A002C6A
:10C6200078D0607E002875D0206805680127287AB8
:10C63000E8B1297D686804F0C9F900EE100AD5ED6B
:10C640001D0A95F87810B8EE400A07FA01F095ED4A
:10C650001A9A60EE800A00EE100AB8EEC01A80EE58
:10C66000810AD5ED190A00EE209A84ED039A687AC2
:10C6700000287CD095F82010686804F0A7F900EE37
:10C68000100AD5ED1D0A95F87810B8EE400A07FAA1
:10C6900001F0D5ED1C8A60EE800A00EE100AB8EEBB
:10C6A000C01A80EE810AD5ED1B0A40EE208ABCEE4E
:10C6B000E80A10EE100A2082207A012801D0022810
:10C6C00055D1401E00EB80017B4E01EBC01106EB03
:10C6D0008101002591F89120002A7DD091F89821C0
:10C6E000002A7AD0C3B2B3B17948017D00EB810151
:10C6F000C1ED008A017D491C0522B1FBF2FC02FB61
:10C700001C110175417D052901D2491C417500218B
:10C71000427D0BE08DE16E481838E6E700EB810CB6
:10C72000DCED000A30EE888A491CC9B28A42F5D88D
:10C7300000EE102AF8EE400A88EE200A03EB830090
:10C7400000EBC31006EB800080ED680A207A401EE3
:10C7500000EB800101EBC01006EB800000F5CC710E
:10C76000D0ED680A90ED670A00F5C27000E056E16E
:10C77000FFF732FA207A401E00EB800101EBC01077
:10C7800006EB8000D0E91712914214D2491CC16512
:10C79000207A401E00EB800101EBC01006EB800008
:10C7A000C564207A401E00EB800101EBC01006EB4F
:10C7B0008000456560E090ED420AD0ED460AB4EE97
:10C7C000E00AF1EE10FA06DCF1EE600AB4EEE00ADF
:10C7D000F1EE10FA45D201E00BE1FCE090ED680AC1
:10C7E000D0ED750AB4EEE00AF1EE10FA39DDD0E9C9
:10C7F0001312914222D380F8A450207A401E00EBFD
:10C80000800101EBC01006EB800080F89150207A87
:10C81000401E00EB800101EBC01006EB800090F899
:10C820007010022916D080F85472207A401E00EB56
:10C83000800101EBC01006EB8000C564207A401E29
:10C8400000EB800101EBC01006EB8000C16C491CBD
:10C85000C1640AE0D0F83C024FF4005102F070FECF
:10C86000E3E7C16C09B1491EC164207A401EC0B221
:10C87000FFF748FE00F0E9FD207A401E00EB800142
:10C8800001EBC01006EB800090ED390AD0ED3A0ABA
:10C8900030EE600AD0ED460AB0EEC00AB4EEE00A0F
:10C8A000F1EE10FA72D2D0E9151291426DD390F8E0
:10C8B00070100FE000301C453883FF1F00800945D1
:10C8C000BC80FF1F9A9999999999B93F000000007F
:10C8D0005003002002295AD080F8A450207A401E2C
:10C8E00000EB800101EBC01006EB800080F8915056
:10C8F000207A401E00EB800101EBC01006EB8000A7
:10C900001021D0F8C80002F01BFE207A401E00EB78
:10C91000800101EBC01006EB800080F89851207A6E
:10C92000401E00EB800101EBC01006EB800080F898
:10C930003C51207A401E00EB800101EBC01006EB59
:10C94000800080F8E050207A401E00EB800101EB6F
:10C95000C01006EB800000F5CC70FFF79FF9207A3D
:10C96000401E00EB800101EBC01006EB8001D1F806
:10C97000F0010A2812D00B2810D00C280ED0022863
:10C9800013D0032811D004280FD013E01EE0D0F8F4
:10C990003C024FF4804102F0D3FD0BE0D1F8FC01E2
:10C9A0004FF4805102F0CCFD04E0D1F8FC014021AD
:10C9B00002F0C6FD207A401E00EB800101EBC010A2
:10C9C00006EB8000416D491C416506E0416D21B1D7
:10C9D000491E416501E081F8A450207A401E00EB19
:10C9E000800101EBC01006EB80009030FFF76EFC79
:10C9F00015E081F8A450207A401E00EB800101EB85
:10CA0000C01006EB8000C565207A401E00EB800157
:10CA100001EBC01006EB80009030FFF757FCF0EE02
:10CA2000680AB0EE490ABDEC048B2046BDE8F0412F
:10CA3000B9E5BDEC048BB4E510B5002813D0447EF5
:10CA40008CB119B190ED030A81ED000A32B1018A6F
:10CA500000EE101AB8EE400A82ED000A0BB1407ADF
:10CA60001870002010BD4FF0FF3010BD002804D01A
:10CA7000406910B1B0F808087047002070470028DE
:10CA800004D0406910B1B0F80A0870470020704720
:10CA900030B5002809D0406938B131B1B0F8084844
:10CAA000944200D82246002419E04FF0FF3030BDF8
:10CAB000B0F8045800EB850595ED000A01EB8405FC
:10CAC00085ED000A90F804586D1CEDB2A0F80458EA
:10CAD000B0F808586D1EA0F80858641CA4B294421F
:10CAE000E6D303B11A80002030BD30B5002809D04C
:10CAF000406938B131B1B0F80A48944200D82246B2
:10CB000000241BE04FF0FF3030BDB0F8065800EBBA
:10CB1000850505F5806595ED000A01EB840585ED39
:10CB2000000A90F806586D1CEDB2A0F80658B0F84F
:10CB30000A586D1EA0F80A58641CA4B29442E4D3AB
:10CB400003B11A80002030BD002806D040690028BB
:10CB500003D040F60C0111F0F1B9704770B50446EE
:10CB600094F82C00012801D0002860D1D4F8AC0141
:10CB7000FD4D1A2845D2DFE800F0440D404040400A
:10CB8000403B0D4440404040403B0D444444440D34
:10CB9000360D3636D4F8B00109280FD011280DD043
:10CBA00094F80002D0B194F82E0001280BD002288E
:10CBB0000ED02078ED49FEF709FC22E020782946C6
:10CBC000FEF704FC1DE02078E949FEF7FFFB18E0C2
:10CBD000E74920781031FEF7F9FB12E020780221B6
:10CBE000FEF7F4FB0DE020782946FEF7EFFB08E0A6
:10CBF00020782946FEF7EAFB03E02078DD49FEF7BE
:10CC0000E5FBD4F8AC01162803D0182801D0192868
:10CC100003D120782946FEF7D9FBD4F8EC0102288D
:10CC200005D12078BDE87040D349FEF7CFBB70BD79
:10CC3000D249D0F8B80191F83520002A02D191F8F4
:10CC4000361019B14FF4001102F07ABC4FF4000114
:10CC500002F076BCC949D0F8B80191F83810002923
:10CC600003D04FF4003102F06BBC4FF4802102F08E
:10CC700067BC10B5C14CD4F80404162805D14FF494
:10CC80000021D4F8100402F05BFCD4F80404182846
:10CC900007D1D4F81004BDE810404FF0807102F0C5
:10CCA0004FBC10BD10B5B54CD4F8F001162805D115
:10CCB0004FF40021D4F8FC0102F042FCD4F8F0015A
:10CCC000182807D1D4F8FC01BDE810404FF080715E
:10CCD00002F036BC10BD704770477047704710B502
:10CCE000A74901606E218180A64981601A21818156
:10CCF0000121816101F0BCF80BF03DFBA24C2060EA
:10CD00000BF039FBA0600BF036FB60600BF033FBDF
:10CD1000E0600BF030FB20610BF02DFB60612068C0
:10CD200010B19A490BF04BFBA06810B198490BF079
:10CD300046FB606810B197490BF041FBE06810B109
:10CD400095490BF03CFB206910B194490BF037FB7F
:10CD50006069002804D0BDE8104091490BF02FBB5A
:10CD600010BD2DE9F0470446844D207800EB80018A
:10CD700001EBC01105EB810191F87110002952D02F
:10CD80002046FFF7EBFE94F82C00022858D0D4F888
:10CD9000EC01022854D094F8FE01012848D094F800
:10CDA000FF11884207D020780421FEF70FFB94F88A
:10CDB000FE0184F8FF0194F8FC0198B32078012665
:10CDC00000EB800101EBC01005EB800080F8706083
:10CDD0002046FFF72DFF2046FFF73CFF94F8FC01AB
:10CDE00094F8FD11884207D020780421FEF7EEFA6E
:10CDF00094F8FC0184F8FD01D4F8B80102F005FCB8
:10CE000080024FF400174FF4801832D5207800EBE1
:10CE1000800101EBC01005EB8000D0F8F011012972
:10CE200019D026E00EE0BDE8F0470421FEF7CEBAA7
:10CE300020785C49FEF7CAFA94F8FE0184F8FF01F5
:10CE4000BDE8F08720785849FEF7C0FA94F8FC0155
:10CE500084F8FD01F4E790F87200012809D1394601
:10CE6000D4F8B80102F079FB4146D4F8B80102F0D9
:10CE700067FBD4F8B80102F0C8FB0546A80704F523
:10CE8000CE790AD50221484600F0F7FF0221D4F8F6
:10CE9000B80102F062FB00206070E80709D00121B0
:10CEA000484600F0EAFF0121D4F8B80102F055FB32
:10CEB000667028040AD54FF400463146484600F013
:10CEC000DCFF3146D4F8B80102F047FB68040AD50C
:10CED0004FF480463146484600F0CFFF3146D4F843
:10CEE000B80102F03AFBE8030AD54FF48036314628
:10CEF000484600F0C2FF3146D4F8B80102F02DFBDD
:10CF0000A8030AD54FF400363146484600F0B5FF75
:10CF10003146D4F8B80102F020FB68030AD54FF47B
:10CF200080263146484600F0A8FF3146D4F8B801C3
:10CF300002F013FB28030AD54FF400263146484679
:10CF400000F09BFF3146D4F8B80102F006FBE8027E
:10CF500008D54146484600F090FF4146D4F8B80154
:10CF600002F0FBFAA80221E0080480400804805087
:10CF70001000005010040850400420103883FF1F98
:10CF800064EF02008CF40200C880FF1FDDCC0100BA
:10CF9000DBCC0100D9CC0100D7CC0100A5CC01002D
:10CFA00073CC0100400000208080003008D5394655
:10CFB000484600F062FF3946D4F8B80102F0CDFAD5
:10CFC00068020AD54FF480063146484600F055FF06
:10CFD0003146D4F8B80102F0C0FA28020AD54FF45D
:10CFE00000063146484600F048FF3146D4F8B80103
:10CFF00002F0B3FAE8010AD54FF080763146484690
:10D0000000F03BFF3146D4F8B80102F0A6FA28063A
:10D0100008D58021484600F030FF8021D4F8B801BF
:10D0200002F09BFAA8040AD54FF400563146484650
:10D0300000F023FF3146D4F8B80102F08EFAE8057B
:10D040000AD54FF480763146484600F016FF314647
:10D05000D4F8B80102F081FA680708D504214846DF
:10D0600000F00BFF0421D4F8B80102F076FA28078B
:10D0700008D50821484600F000FF0821D4F8B8017F
:10D0800002F06BFAE80608D51021484600F0F5FEDC
:10D090001021D4F8B80102F060FAA80608D52021C2
:10D0A000484600F0EAFE2021D4F8B80102F055FA13
:10D0B000680608D54021484600F0DFFE4021D4F83C
:10D0C000B80102F04AFA280608D58021484600F047
:10D0D000D4FE8021D4F8B80102F03FFAA8050AD5A1
:10D0E0004FF400763146484600F0C7FE3146D4F88A
:10D0F000B80102F032FA68050AD54FF4806631466D
:10D10000484600F0BAFE3146D4F8B80102F025FADC
:10D1100028050AD54FF400663146484600F0ADFEBA
:10D120003146D4F8B80102F018FAE8047FF592AE5F
:10D130004FF480552946484600F09FFE2946D4F812
:10D14000B801BDE8F04702F008BA10B5F84991F807
:10D150004100022822D200EB800202EBC01001EB5A
:10D16000800494F84500002818D0D4F8F001102865
:10D1700008D0112806D0082804D0092802D008B108
:10D1800001280BD11021D4F8C80002F0D9F994F885
:10D190004400BDE810400421FEF718B910BDF0B5F9
:10D1A0002DED048B81B0E3A2E4A100200CF096F8F1
:10D1B000DF4890F84150022D70D205EB850101EB5C
:10D1C000C51100EB810494F84500002866D00120C9
:10D1D00084F8E00084F83C0184F8980104F5CC70F0
:10D1E0000646FEF75BFD30469FEDE40AFEF74BFD79
:10D1F0009FEDE38BD4F8F001E34FBFEE009AF7EE1A
:10D20000009A4FF07E56022816D0032814D0042826
:10D2100012D00D2810D00E280ED00F280CD00A28BE
:10D220005FD00B285DD00C285BD0052859D006288C
:10D2300057D0072855D0A8E000902B46BDA2D3A117
:10D2400000200CF04BF894ED1B0AD4ED190A30EED7
:10D25000600A10EE100A10F0C5FE41EC100B10F041
:10D2600087FF53EC182B51EC100B10F0CFFE09D2B6
:10D27000D4F8FC0101B04021BDEC048BBDE8F040C6
:10D2800002F05EB9D4ED1B0A94ED190AF4EEC00A5F
:10D29000F1EE10FA03DD84ED3F9A02E07FE0C4ED89
:10D2A0003F9A84ED390AD4F8FC00B0420BD12B46EA
:10D2B000A0A2C54900200CF011F80421D4F8C80040
:10D2C00002F03EF961E0B8425FD12B4699A2BF4916
:10D2D00000200CF003F80821D4F8C80002F030F95F
:10D2E00053E000902B4693A2A8A100200BF0F6FF7C
:10D2F00094ED1B0AD4ED1A0A30EE600A10EE100A03
:10D3000010F070FE41EC100B10F032FF53EC182BB4
:10D3100051EC100B10F07AFE0AD8D4F8FC0101B0E1
:10D320004FF48051BDEC048BBDE8F04002F008B929
:10D33000D4ED1B0A94ED1A0AF4EEC00AF1EE10FACD
:10D3400002DD84ED3F9A01E0C4ED3F9A84ED390A95
:10D35000D4F8FC00B0420BD12B4676A29A490020AB
:10D360000BF0BCFF0421D4F8C80002F0E9F80CE08F
:10D37000B8420AD12B466FA2944900200BF0AEFFB1
:10D380000821D4F8C80002F0DBF894F8440001B09A
:10D390000421BDEC048BBDE8F040FEF717B801B0E6
:10D3A000BDEC048BF0BD70B5614890F84150022D82
:10D3B0002CD205EB850101EBC51100EB810494F83B
:10D3C0004500002822D054F8C80F102102F0B8F808
:10D3D0000020207684F8740084F8D000D4F8280166
:10D3E000162801D0182811D1794841F288323DB170
:10D3F000012D0BD14069BDE8704000210AF0E3BF68
:10D400000069BDE8704000210AF0DDBF70BD70B555
:10D410000024474D04EB840000EBC41005EB8001B1
:10D4200091F8450060B1D1F8F001162803D0182812
:10D4300001D0192804D191F844000421FDF7C6FF5A
:10D44000641CE4B2022CE5D370BD2DE9F047002541
:10D450005F4EDFF8DC9018364FF49668002705EB36
:10D46000850000EBC51009EB800494F8540210B35A
:10D47000D4F8F0010A280AD00B2808D00C2806D0CE
:10D4800002280FD003280DD004280BD013E04FF44E
:10D490000061D4F8FC0102F053F80AF098FE46F857
:10D4A000250008E02021D4F8FC0102F049F80AF038
:10D4B0008EFE46F82500D4F8F0010D280AD00E287B
:10D4C00008D00F2806D0052830D006282ED00728EF
:10D4D0002CD0A9E00AF07BFE56F82510401A4045F2
:10D4E0001BD894ED190AD4ED460A94ED3A1A70EE61
:10D4F000201AF4EEC11AF1EE10FA03DD94F871006F
:10D5000002280AD030EE600AB4EEC10AF1EE10FA39
:10D510000BD294F87100012807D14FF48071D4F830
:10D52000FC0102F00DF884F854727DE052E0000036
:10D530003883FF1F5741524E000000001B5B3333FE
:10D540006D5B25735D202D2D6163745F656E746561
:10D55000725F6D6F76696E673A2073746172746979
:10D560006E672D2D2D2D2D2D2D2D2D2D2D2D2D2D70
:10D570002D2D1B5B306D0D0A000000000080BB44A8
:10D58000000000000000F03F000080BF1B5B333351
:10D590006D5B25735D206D7953797374656D2E61B4
:10D5A0007869735B25645D2E736D5F6163742E63B0
:10D5B00075725F7374617465203D3D2025641B5B4B
:10D5C000306D0D0A00000000B8FF0200FCFF0200F1
:10D5D000C880FF1F0AF0FBFD56F82510401A404591
:10D5E0001BD894ED1A0AD4ED460A94ED3A1A70EE5F
:10D5F000201AF4EEC11AF1EE10FA03DD94F871006E
:10D6000001280AD030EE600AB4EEC10AF1EE10FA39
:10D610000AD294F87100022806D10421D4F8FC0142
:10D6200001F08EFF84F854726D1CEDB2022DFFF4F0
:10D6300016AF05E4FA4901601D218180F949816036
:10D640000A2181810121816100F012BC70B504467C
:10D65000D4F8F80101F0D9FF0246D0054FF48075E7
:10D6600007D522F4807119B1D4F8F80101F075FFE3
:10D670002A464FF4007604F5EE70B2427DD026DCE7
:10D68000102A75D011DC012A54D0022A5CD0042A59
:10D6900064D0082A72D1082100F0EFFBD4F8F80119
:10D6A000BDE87040082101F058BF202A70D0402A00
:10D6B00078D0802A65D0AA4260D1294600F0DDFBEF
:10D6C0002946D4F8F801BDE8704001F046BF4FF498
:10D6D0008045AA427ED016DC4FF48065AA427AD0FB
:10D6E0006D00AA4278D06D00AA4276D06D00AA42A1
:10D6F00044D1294600F0C1FB2946D4F8F801BDE821
:10D70000704001F02ABF4FF40045AA4266D06D0078
:10D71000AA427CD06D00AA427AD06D00AA422DD1D7
:10D72000294600F0AAFB2946D4F8F801BDE870406C
:10D7300001F013BF012100F0A0FBD4F8F801BDE80F
:10D740007040012101F009BF022100F096FBD4F8DE
:10D75000F801BDE87040022101F0FFBE042100F095
:10D760008CFBD4F8F801BDE87040042101F0F5BE4F
:10D77000102100F082FB102104E027E07FE007E0A9
:10D7800010E019E0D4F8F801BDE8704001F0E5BE02
:10D79000202100F072FBD4F8F801BDE87040202190
:10D7A00001F0DBBE402100F068FBD4F8F801BDE8D1
:10D7B0007040402101F0D1BE802100F05EFBD4F822
:10D7C000F801BDE87040802101F0C7BE314600F08D
:10D7D00054FB04E02BE009E012E01EE031E03146AA
:10D7E000D4F8F801BDE8704001F0B7BE294600F05A
:10D7F00044FB2946D4F8F801BDE8704001F0ADBE05
:10D80000294600F03AFB2946D4F8F80101E022E06D
:10D810002BE0BDE8704001F0A0BE294600F02DFBD2
:10D820002946D4F8F801BDE8704001F096BE2946BB
:10D8300000F023FB2946D4F8F801BDE8704001F060
:10D840008CBE294600F019FB2946D4F8F801BDE842
:10D85000704001F082BE294600F00FFB2946D4F843
:10D86000F801BDE8704001F078BE294600F005FBE4
:10D870002946D4F8F801BDE8704001F06EBE70BDD5
:10D8800010B5694C0121D4F83C0201F059FED4F8DE
:10D890005004BDE81040012101F052BE0021624A4F
:10D8A000312815D008DC10280CD011280AD02328E4
:10D8B00008D0242811D105E0A12803D0A22801D046
:10D8C000A7280AD192F83E00012806D1012104E0E0
:10D8D00092F83F00012800D10121084670472DE948
:10D8E000FC47054600F0F2FC01900020009005EB9B
:10D8F00085004D4E00EBC51006EB800494F8420203
:10D90000002877D196F83C00DFF82081484FE0B33B
:10D91000FFF7C4FF814696F83C006A46494601F08D
:10D9200003FD00281ED1BDF8000008EB800028444C
:10D93000807800F00300002814D0022802D00328C9
:10D9400010D110E096F83C00494601F07CFD012121
:10D95000284600F0CBFC94ED1B0A284600F0D3FCCF
:10D9600001F0FFFC87E0E06EB84211DD96F83C0064
:10D97000494601F068FD0121284600F0B7FC94ED0E
:10D980001B0A284600F0BFFC00E002E001F0E9FCC1
:10D9900071E09DF8050000F00F0396F83D00FFF7D9
:10D9A0007DFF81464B4545D096F83D006A46494685
:10D9B00001F0BAFC90BBBDF8000008EB80002844E1
:10D9C000807800F0030048B3022802D0032852D127
:10D9D00011E096F83D00494601F035FD0121284649
:10D9E00000F084FC94ED1B0A284600F08CFC01F04A
:10D9F000B8FC40E052E0E06EB8423CDD96F83D00F5
:10DA0000494601F020FD0121284600F06FFC94ED0D
:10DA10001B0A284600F077FC01F0A3FC2BE0000075
:10DA2000C4F5020020F702003883FF1FBCFA020091
:10DA300000001C4294F87100012802D002280CD08A
:10DA400019E00121284600F051FC94ED1B0A2846FC
:10DA500000F059FC01F085FC0DE0E06EB8420ADDF3
:10DA60000121284600F042FC94ED1B0A284600F0F4
:10DA70004AFC01F076FC94F8710088B10121D4F8D9
:10DA8000FC0101F05DFD04212846FDF79FFC01210A
:10DA9000284601F033F80120C4F8F401BDE8FC8702
:10DAA0000221D4F8FC0101F04BFD04212846FDF7CA
:10DAB0008DFC0021284601F021F8EFE770B59F4E5C
:10DAC000012186F8201096F84150022D45D205EB31
:10DAD000850000EBC51006EB800404F5087084F89F
:10DAE00070100069012808D0022836D194492846D0
:10DAF000FDF76CFC75B301202DE004212846FDF7ED
:10DB000065FCD4F83C020168B1F5006F12D0B1F5A4
:10DB1000804F0FD0102920D0B1F5004F13D0B1F5B0
:10DB2000803F1AD1D4F8FC01BDE870404FF48071F9
:10DB300001F006BD1021D4F8C80001F001FD28460F
:10DB4000BDE87040CBE6D4F8FC01BDE8704004218C
:10DB500001F0F6BC002086F83B0070BD2DE9F041D5
:10DB60002DED028B0221754A92F83B00002802D06D
:10DB7000012803D005E082F8201002E0032082F89B
:10DB8000200092F84150022D7DD205EB850000EB7C
:10DB9000C51002EB800404F5087084F87010016968
:10DBA000684FC91E01209FED680A9FED688A654E87
:10DBB000103E072967D2DFE801F0040C19344F5CEE
:10DBC0008900BDEC028B2846BDE8F0412021FDF71D
:10DBD000FDBB1021D4F8C80001F0B2FCBDEC028BF3
:10DBE00039462846BDE8F041FDF7F0BB84F89801BE
:10DBF00084F8E00004F5CC70FEF745F804F1E0008D
:10DC0000B0EE480AFEF73FF80421D4F8C80001F04E
:10DC100097FCBDEC028B31462846BDE8F041FDF78C
:10DC2000D5BB84F8980184F8E00004F5CC70FEF7C9
:10DC30002AF804F1E0009FED460AFEF724F80821D7
:10DC4000D4F8C80001F07CFCBDEC028B31462846BC
:10DC5000BDE8F041FDF7BABB1021D4F8C80001F0CF
:10DC60006FFCBDEC028B39462846BDE8F041FDF75C
:10DC7000ADBB042182F8201084F8980184F8E000FC
:10DC800004F5CC7000E055E0FDF7FDFF04F1E00085
:10DC9000B0EE480AFDF7F7FF94F87100012802D0B2
:10DCA000022806D00AE00821D4F8C80001F048FC98
:10DCB00004E00421D4F8C80001F042FCBDEC028B62
:10DCC00031462846BDE8F041FDF780BB84F8980155
:10DCD00084F8E00004F5CC70FDF7D5FF94F87100EE
:10DCE000B0EE000A012802D002280ED01AE0D4EDCE
:10DCF0001B0A04F1E00030EE800AFDF7C4FF0421A6
:10DD0000D4F8C80001F01CFC0CE0D4ED1B0A04F1AF
:10DD1000E00030EEC00AFDF7B6FF0821D4F8C800D5
:10DD200001F00EFCBDEC028B31462846BDE8F04107
:10DD3000FDF74CBBBDEC028BBDE8F0813883FF1FC3
:10DD400040042000200408000080A2440000C842D3
:10DD50000000000044490160142181804249F031F3
:10DD60008160062181810021816100F081B810B5B8
:10DD70000446D4F8840001F048FC014604F1680030
:10DD8000202930D00EDC042919D0082921D01029EF
:10DD90003DD100F072F8D4F88400BDE810401021A5
:10DDA00001F0DBBB402928D0802930D100F065F894
:10DDB000D4F88400BDE81040802101F0CEBB0421DE
:10DDC00000F05BF8D4F88400BDE81040042101F0B5
:10DDD000C4BB082100F051F8D4F88400BDE810401D
:10DDE000082101F0BABB202100F047F8D4F88400E4
:10DDF000BDE81040202101F0B0BB402100F03DF80B
:10DE0000D4F88400BDE81040402101F0A6BB10BD4D
:10DE1000704710B5154991F84100022812D200EB65
:10DE2000800202EBC01001EB800090300021C36A39
:10DE30000122062B06D2DFE803F00306090D1013BA
:10DE40000175417010BD0275427010BD022101754F
:10DE5000427010BD0175417010BD0175417010BD5B
:10DE60000175417010BD000098F702003883FF1F54
:10DE7000002801D08169016170472DE9F041044615
:10DE8000002C43D023691D460020A6880EE022689E
:10DE900000EB400702EB870217689F4204D15768E6
:10DEA0008F4201D1956803E0401C80B28642EED8D3
:10DEB000AB422BD00020A2890EE0A16800EB400607
:10DEC00001EB86010E689E4204D18E6816B1886807
:10DED000804703E0401C80B28242EED82069606136
:10DEE00025610020A2890FE0A16800EB400301EB4F
:10DEF00083010B68AB4205D14B681BB14868BDE894
:10DF0000F0410047401C80B28242EDD8BDE8F0816C
:10DF1000002801D0006970470020704776490160F1
:10DF2000112181807449CC318160062181810021D9
:10DF30008161FFF79DBF70B5704DE86901F065FB29
:10DF400004460A2302228121E86901F013FB38B15B
:10DF500001212846FFF791FF80212846FFF78DFF1A
:10DF60000A2302220121E86901F004FB38B10121F2
:10DF70006248FFF782FF01216048FFF77EFF0A2316
:10DF800002228821E86901F0F5FA38B108215B48DE
:10DF9000FFF773FF80215948FFF76FFF102C58D00F
:10DFA00011DC012C23D0022C35D0042C5BD0082CA2
:10DFB00063D108215148FFF760FFE869BDE8704070
:10DFC000082101F0CABA202C2FD0402C37D0802C49
:10DFD00017D04FF40056B4424FD131464748FFF7AF
:10DFE0004CFF3146E869BDE8704001F0B6BA012146
:10DFF0004248FFF742FFE869BDE87040012101F0A7
:10E00000ACBA80213D48FFF738FFE869BDE87040B1
:10E01000802101F0A2BA02213848FFF72EFFE869FB
:10E02000BDE87040022101F098BA20213348FFF783
:10E0300024FFE869BDE87040202101F08EBA40213C
:10E040002E48FFF71AFFE869BDE87040402101F053
:10E0500084BA10212948FFF710FFE869BDE8704035
:10E06000102101F07ABA04212448FFF706FFE8697D
:10E07000BDE87040042101F070BA70BD7047704770
:10E0800070B500241D4D04EB840000EBC41005EBBB
:10E09000800090F8711061B1D0F8FC01012101F00D
:10E0A0004FFAE0B20121FDF791F9E0B2012100F051
:10E0B00025FD641C022CE6DB70BD10B50F4C02215F
:10E0C000D4F8FC0101F03CFA0221D4F8100401F06C
:10E0D00037FA02210020FDF779F902210120FDF72E
:10E0E00075F90021084600F009FD0021BDE8104047
:10E0F000012000F003BD0000D0F802003883FF1FAC
:10E1000010B504468B4824218069026889489047ED
:10E11000A06A01682046BDE81040084703B4019991
:10E120004160816A496802B00847406870470181D0
:10E13000816A4968084700897047022902D34FF075
:10E14000FF30704701EB410100EB8101CA60816A39
:10E1500049680847022901D30020704701EB4101BB
:10E1600000EB8100C068704738B5022902D34FF038
:10E17000FF3038BDB5EEC00A6FF00103F1EE10FAC2
:10E1800004D310EE102A6C4CA24201DD184638BDB3
:10E1900001EB410200EB820282ED050A4568009521
:10E1A0006944897801F0030192ED050AF3EE060A4D
:10E1B000022902D0032905D102E030EE200A01E055
:10E1C00030EE600AB5EEC00AF1EE10FA03D310EE9D
:10E1D000101AA14201DD184638BD82ED040A816A99
:10E1E0004968884738BD022902D39FED540A704719
:10E1F00001EB410100EB810090ED050A7047022917
:10E2000002D39FED4E0A704701EB410100EB810004
:10E2100090ED040A704724220FF077BEF0B589B064
:10E220000746444CA069C168204688470146A0695A
:10E2300024236A4685682046A84724226946384632
:10E240000FF0B4FE98B13E483860A06901692046DD
:10E2500088470546A06924233A4646682946204651
:10E26000B047E56024352561002009B0F0BD0020ED
:10E27000FBE770B504462F4DA869C168284688475A
:10E280000146A8692423224685682A48A8472C4DC0
:10E290002068A8420AD0242120460FF04FFE2560B6
:10E2A0004FF47A7020812046FFF7B8FF002070BD40
:10E2B0002448406A01682348084711B4214800995E
:10E2C000406A426801B01F4810BC10471D48406AB0
:10E2D00081681C4808471B4A01461A48526AD2689E
:10E2E00010471848406A0169164808470A46154908
:10E2F000496A4B69014613481847124A01461148BA
:10E30000526A926910470F4A01460E48526AD26912
:10E3100010470C4A01460B48526A126A1047094AD4
:10E3200001460848526A526A10470649496A8A6A91
:10E3300004491047B482FF1F00401C460000000043
:10E34000A55AA55A1C81FF1F10B500F080F800F0F7
:10E3500095F8002000F09CF8012000F099F80220C8
:10E3600000F096F8BDE81040032000F091B8704727
:10E3700010B586B00446002C18D001A805F0E6FEC2
:10E380000220ADF806002020ADF80A000020ADF80C
:10E390001400A17911B1ADF8040002E00120ADF83C
:10E3A0000400A188207801AA05F022FE06B010BD65
:10E3B00030B587B00446002C2ED00121E06805F06E
:10E3C000BAFD228B2189207905F026FF00258DF8E2
:10E3D000105030208DF811008DF8125002208DF869
:10E3E000130040F6C310069004A9206908F006FF48
:10E3F0000120ADF80800ADF80A00ADF80C00ADF84A
:10E400000E50D4E9040101AA09F0B8F8D4E90401D6
:10E410004FF4407209F0DCF907B030BD10B5044686
:10E42000002C13D0201DFFF7A3FF207850B1012846
:10E430000CD1228B002A09D021892079BDE8104017
:10E4400005F0EABE2046BDE81040B1E710BD70B54A
:10E4500000210C2005F0B5FE022009F059FE002134
:10E46000102005F0AEFE0024974D05EB4410FFF799
:10E47000D5FF641CE4B2082CF7D370BD10B50121A0
:10E48000924809F06BFC924809F0F4FD002010BDA1
:10E4900010B58D4901EB4010002806D04169006994
:10E4A000012209F012F9002010BD4FF0FF3010BD1D
:10E4B000082815D2844901EB4010002181760178AB
:10E4C00029B1817A41B10189007906F072B84169B8
:10E4D0000069002209F07CB90189007906F08CB846
:10E4E0007047082814D2784901EB4010017829B10F
:10E4F000817A49B10189007906F07EB841690069E5
:10E500004FF4407209F064B90189007906F051B8FE
:10E510007047082812D26C4A02EB40100278002A99
:10E520000CD129B1416900694FF4007209F050B96A
:10E53000416900694FF4407209F04AB9704770B5FB
:10E54000002201210326002808D001285CD15E4C5E
:10E55000C03404F12005A07E70B32FE05A4C803403
:10E5600004F12005A07E08B9A176E261E069401CB3
:10E57000E061A07AB0B12189207906F03DF8A87A4F
:10E58000A8B12989287906F037F8E06902283BD933
:10E59000E66101210846FFF7BCFFBDE8704001219C
:10E5A0000020B6E72189207906F003F8E7E72989FA
:10E5B000287905F0FEFFE8E7A176E261E069401CFA
:10E5C000E061A07AB0B12189207906F015F8A87A27
:10E5D000A8B12989287906F00FF8E069022813D933
:10E5E000E66101210220FFF794FFBDE870400121A0
:10E5F00003208EE72189207905F0DBFFE7E72989F1
:10E60000287905F0D6FFE8E770BD08280FD22E491B
:10E6100001EB40100178012909D1817A19B10189F2
:10E62000007905F0C6BF0189007905F0E5BF7047A4
:10E6300008280FD2244901EB40100178012909D1A3
:10E64000817A19B10189007905F0D6BF0189007975
:10E6500005F0AFBF704710B50C46082833D21A49F1
:10E6600001EB40100178012910D040F6C3118C4213
:10E6700000D90C4641690069224609F02AFB62086C
:10E68000BDE810400021124809F023BB3CB1817A5B
:10E6900099B101890079BDE8104005F08ABF817AFF
:10E6A00029B101890079BDE8104005F0A5BF0189B5
:10E6B0000079BDE8104005F07CBF01890079BDE814
:10E6C000104005F099BF10BD4881FF1F0064014054
:10E6D00000500140082913D3017801F00F02FD49D1
:10E6E0000A70027812094A70427802F001028A70B8
:10E6F000827802F00302CA708078C0F3810008714A
:10E700007047082904D38078F249C0F3810008716A
:10E710007047082904D34078EE4900F001004871A1
:10E720007047082904D38078EA4900F0070088720E
:10E730007047082905D30179407941EA0020E5496D
:10E74000C8807047082905D30178407841EA002045
:10E75000E04908817047082906D3DE498278CA72E9
:10E76000007900F001000873704700230E22D94998
:10E770003E2001F01FB910B588B0D64804A92C304E
:10E7800000F0C1FB012838D10020019002900390D5
:10E7900004980090059800F00F028DF80D2006A94E
:10E7A0006C4601A80FF0B1FBCB4A0098811A904249
:10E7B00025D00EDCC949411833D0A1F5D051093913
:10E7C0003BD0A1F59C411F391FD0B1F5006F0FD18F
:10E7D00039E0A1F50851703911D0A1F52C51B839A3
:10E7E00019D0A1F58851D83921D0B1F5007F2AD0B0
:10E7F0009DF80D20211D0FF0BEFA08B010BD9DF848
:10E800000D10201DFFF766FF22E09DF80D10201D62
:10E81000FFF777FF1CE09DF80D10201DFFF779FF33
:10E8200016E09DF80D10201DFFF77BFF10E09DF80E
:10E830000D10201DFFF77DFF0AE09DF80D10201D33
:10E84000FFF780FF04E09DF80D10201DFFF783FF08
:10E85000FFF78BFFD1E70B78027863F301020270B8
:10E860004B7863F3850222F0C00202708A7842700E
:10E870004A88120A82700A79C2708A88120A027162
:10E880000022427182718979C17170470B780278D8
:10E8900063F3010202704B7863F3850222F0C00239
:10E8A00002700022427082700A79C2708A88120A4D
:10E8B00002718A7842714A88120A82718979C1711B
:10E8C0007047002101604160017041708170022138
:10E8D000C17070472DE9F05F044604EB840000EB43
:10E8E000C4117F487B4E00EB8105002795F840124C
:10E8F0008C364FF0010801290CD006F8347095F8D9
:10E900007000032204234FF00609022805D00128D5
:10E9100037D0D4E006F83480F1E7D5F83002052886
:10E9200002D0062811D020E095F87110012902D0FC
:10E93000022905D019E006EBC4014A708F7114E07A
:10E9400006EBC4014B708F710FE095F8711001292F
:10E9500002D0022905D008E006EBC4014B708F718C
:10E9600003E006EBC4014A708F71082801D0092822
:10E9700006D106F8348006EBC40080F80190877158
:10E980009DE095F84202012836D0A1B3D5F8F001F8
:10E990004FF48031092839D0072837D04FF0020BC7
:10E9A00011283ED00F283CD0162845D0182849D031
:10E9B0004FF0050A19284BD0082850D0102858D0FD
:10E9C000022860D003285ED004285CD005285AD0E5
:10E9D000062858D00A285CD00B285AD00C2858D0CA
:10E9E0000D2856D00E2854D0012858D0152856D0BE
:10E9F000172854D063E004E006EBC4004770877129
:10EA00005DE006EBC4004770877158E0D5F8FC0163
:10EA100000F096FD06EBC4000721417080F80680E7
:10EA20004DE0D5F8FC0100F08BFD06EBC400082199
:10EA3000417080F806B042E006EBC4000921417045
:10EA400082713CE006EBC4000A214170837136E01C
:10EA500006EBC4000B21417080F806A02FE0D5F82A
:10EA6000FC0100F06DFD06EBC40080F801A0877189
:10EA700025E0D5F8FC0100F063FD06EBC40080F84A
:10EA8000019087711BE006EBC40080F8018087715C
:10EA900015E006EBC40080F801B087710FE0D5F8EF
:10EAA000F40109280BD0112809D095F8720001282B
:10EAB00018D002281CD006EBC4004770877106EB03
:10EAC000C400B5F856124180B5F846128180BDE801
:10EAD000F09F000074030020F09DFF1810E800E78D
:10EAE0003883FF1F06EBC40080F801A08771E6E7BA
:10EAF00006EBC40080F801908771E0E74D4A0028DA
:10EB000003D0012800D191727047517270477CB5D3
:10EB100009F05DFB04460020FFF7DCFE0120FFF753
:10EB2000D9FE444D287A40B92868201AB0F5FA7FFA
:10EB300058D32C60012028726C606868A04251D8BC
:10EB40003C49287AA031062843D2DFE800F042038E
:10EB5000101C2A36687A18B3364968469831FFF790
:10EB60007AFE08226946344800F081F931E0A87A3B
:10EB7000B0B16846FFF76FFE2F4808226946401C77
:10EB800000F075F925E0687A50B12A496846983155
:10EB9000FFF77CFE284808226946001F00F067F94D
:10EBA00017E0A87AA8B16846FFF770FE224808224D
:10EBB0006946C01E00F05BF90BE0687A08B9A87AD4
:10EBC00038B16846FFF77DFE082269461B4800F011
:10EBD0004EF9287A401CC0B22872052803D90020BB
:10EBE000287268607CBD641C6C607CBD114900208B
:10EBF0000C31487170470F4900220C31002803D0B6
:10EC0000012800D14A7070470A70704710B5094852
:10EC10000B491C3000F0D7F806481C300AF09DFD67
:10EC2000BDE810400EF0A8BF10B5FFF7A4FDBDE889
:10EC300010406CE7680300200801FF180811FF1856
:10EC40000CFA0200002804D082884188007805F080
:10EC5000E3BA7047002A0DD068B1062302210128CB
:10EC600014D0022818D0032804D10120106053606A
:10EC70009160D16070470029FCD008681060486836
:10EC8000506088689060C868D06070470420106049
:10EC900053609160D1607047116053609160D160A2
:10ECA000704730B58DB005460C460121084605F089
:10ECB00024F904A802F02EFCE948D0E9001280688B
:10ECC000CDE901120390A07D04AA04F11801FFF719
:10ECD000C1FF14F8280F8DF826000120ADF824009C
:10ECE00001A8089060788DF82700A0788DF828009A
:10ECF000E0788DF8290020798DF82A0060798DF868
:10ED00002B00A0798DF82C00E0798DF82D00207A69
:10ED10008DF82E0004A9284602F089FB0DB030BD05
:10ED20002DE9FC4106460F461446002C49D0002F21
:10ED300047D0CC48864244D14FF4F370ADF8000080
:10ED40002088ADF8020060680190684605F04EFD2D
:10ED5000B4F900200125002A09DB02F01F0005FAA2
:10ED600000F05109890001F1E021C1F88002B4F9F5
:10ED70000020A378002A05DB02F1E022180182F8C6
:10ED8000000406E002F00F0101F1E021180181F812
:10ED9000140DB4F90020002A08DB02F01F008540A2
:10EDA0005009800000F1E020C0F80051002242F636
:10EDB000FE21304602F013FC01223946304602F0B3
:10EDC0000EFCBDE8FC8170B504460D46002C20D039
:10EDD000FDB1A54904F11C00886025600021217166
:10EDE00058210FF0ABF805F11000FFF72BFF05F1EC
:10EDF0000A00FFF727FF21684868FFF752FF2068E5
:10EE000000F13802416B4068FFF78AFF0120207152
:10EE100070BD4FF0FF3070BD934948607047924815
:10EE2000007870477FB5082A03D96FF0010004B05D
:10EE300070BD0023009062F30303019300206B4632
:10EE400005E01D1811F8014B2C72401CC0B2904215
:10EE5000F7D3844C6A460021204602F0F7FB1021CC
:10EE6000204602F05AFC804901200870DFE77FB598
:10EE7000082A02D96FF00100D9E70090802062F3E0
:10EE80000300019000206B4605E01D1811F8014BAE
:10EE90002C72401CC0B29042F7D3724C6A460021DB
:10EEA000204602F0D3FB1021204602F036FC6E49CA
:10EEB00001200870BBE730B5002818D0B9B14288EE
:10EEC00091E8380000EB0212C968C2E9034593607B
:10EED00051614288521C0521B2FBF1F301FB132260
:10EEE00042808288052A05D2521C828009E06FF098
:10EEF000010030BD0288521CB2FBF1F301FB13216B
:10EF00000180012030BD30B5002819D0C1B1828800
:10EF1000CAB1028800EB0212D2E903459368526934
:10EF200081E83800CA600188491C0522B1FBF2F370
:10EF300002FB131101808188491E8180012030BDB0
:10EF40006FF0010030BD6FF0020030BD7FB50546A7
:10EF5000444C03E069462846FFF7ADFF694620466A
:10EF600002F015FC0028F5D07FBD2DE9FF413D4F93
:10EF700000244FF400063146384602F05FFC3A4D5B
:10EF8000012812D134463E460AE0A86810B169460D
:10EF9000FFF791FF6946304602F0F9FB0028F4D0F4
:10EFA000384602F0FAFC0028F4D14FF480013846CC
:10EFB00002F044FC012801D144F480044FF4001114
:10EFC000384602F03BFC012801D144F400144FF410
:10EFD0008011384602F032FC012801D144F480143B
:10EFE0004FF40021384602F029FC012806D144F4F0
:10EFF000002400202870686800B180474FF4802109
:10F00000384602F01BFC012801D144F480244FF45F
:10F010000031384602F012FC01280CD1012138469B
:10F0200002F00CFC012804D1384602F0E3FB44F066
:10F03000010444F400344FF08071384602F0FEFBC6
:10F04000012801D144F08074002C06D004B0214680
:10F050003846BDE8F04102F027BCBDE8FF81000062
:10F060005CFA0200000407404882FF1F10B5AAB0F6
:10F07000044601ABA02202A9204600F016F90028A0
:10F080001AD1BDF80420002A16D09FED3F0A0021B6
:10F0900002AB07E003EB8100D0ED000A30EE800AFE
:10F0A000491CC9B29142F5D300EE902AF8EE600AED
:10F0B00080EE201A84ED031A2AB010BD10B5334833
:10F0C000FFF7D4FF3148BDE810401C30CEE710B543
:10F0D0002E484FF0E8740122C3680021A3F17A534F
:10F0E000A34201D9027400E0017428481C30C368AF
:10F0F000A3F17A53A34201D9027410BD017410BD6B
:10F100002249234891ED030A80ED020A097C01732C
:10F110001E491C3191ED030A80ED060A097C017736
:10F12000704710B5194800F098F81848BDE810402D
:10F130001C3000F092B810B51649144800F02EF8B3
:10F140001449124808311C3000F028F80122BDE8AB
:10F1500010401146104801F09DBB10B5FFF7AEFFFF
:10F16000FFF7B5FFFFF7CCFF00231022084930203E
:10F1700000F020FC0649002310221031BDE81040A9
:10F18000302000F017BC0000000000001004002038
:10F190005482FF1F6CFA02000000044070B586B074
:10F1A0000446002C12D089B121600D6800206060F7
:10F1B000A060E0602061534901268C420AD1524987
:10F1C000616152A10968616020720FE04FF0FF3069
:10F1D00006B070BD4F48844206D14F4860614FA0D1
:10F1E00000686060267201E04E486061606918B195
:10F1F0004FF481610EF0A2FE01A804F0A7FF4FF4C6
:10F200000040ADF81400E988287901AA04F0F0FE66
:10F210002A7A697A0123286801F018FA26760020F4
:10F22000D6E7002816D04069A0B1B0F8001400EB72
:10F23000810181ED000A90F80014491CC9B2A0F8C0
:10F240000014B0F80414FF2902D8491CA0F80414D3
:10F25000002070474FF0FF30704770B50546002D15
:10F2600022D028680468217A206801F0AFFB00EE04
:10F27000100AD4ED060A217FB8EE400A012088402A
:10F2800060EE800A00EE100AB8EEC00A80EE801A26
:10F29000D4ED040A94ED050A01EE200A85ED030A77
:10F2A0002846BDE87040BCE770BD30B5002809D0E5
:10F2B000406938B131B1B0F80444944200D82246D4
:10F2C000002414E04FF0FF3030BDB0F8025400EBE2
:10F2D000850595ED000A01EB840585ED000A90F89F
:10F2E00002546D1CEDB2A0F80254641CA4B2944206
:10F2F000EBD3B0F80414891AA0F8041403B11A80EF
:10F30000002030BD1004002050080020504F533121
:10F31000000000002C040020580C0020504F5332F5
:10F320000000000048040020F0B5002A03D00023AC
:10F330004F4D504E10E00120F0BD05EB83042778BF
:10F34000874207D1647804F00F048C4202D1138005
:10F350000020F0BD5B1C9BB23488A342EDD301209A
:10F36000F0BDFEB5FEF7B2FF02909DF808009DF8D3
:10F37000091001F00F01002401943F4D85F83D0074
:10F3800001AAFFF7D1FF3A490222012670B185F8A0
:10F39000716085F88522886C0090FEF78EFF00244E
:10F3A0002046FEF7AAFF012836D047E0BDF804004A
:10F3B00001EB800300201918897801F0030181B165
:10F3C000022917D003291ED000EB800101EBC011E8
:10F3D00005EB810181F87140401CC0B20228EAD3DC
:10F3E000DDE700EB800101EBC01105EB810181F845
:10F3F0007140F1E700EB800101EBC01105EB8101E9
:10F4000081F87160E8E700EB800101EBC01105EBCA
:10F41000810181F87120DFE704EB840000EBC41068
:10F4200005EB800787F840622046FEF772FF87ED04
:10F430001A0A2046FEF773FF87ED190A641CE4B22E
:10F44000022CADD3FEBD1CB50022019201AAFFF72C
:10F450006BFF00280AD10648BDF8041000EB8100BC
:10F4600000680090FEF729FFFFF77BFF1CBD00003E
:10F47000BCFA02004CFB02003883FF1F70B5064641
:10F48000002E14D030460EF07CFD80B100246D4D6E
:10F4900005EB4410017B29B10D30102231460EF0EE
:10F4A00092FD30B1641C202CF2DB002070BD0020E6
:10F4B00070BD05EB441070BDF8B50646002E10D0A7
:10F4C00030460EF05EFD60B13046FFF7D7FF0028F2
:10F4D0000ED033465CA25EA1002009F0FFFE0020A2
:10F4E000F8BD59A269A1002009F0F8FE0020F8BD7E
:10F4F0000024544800EB4411097B49B1641C202CC2
:10F50000F8DB51A26DA1002009F0E8FE0020F8BD53
:10F5100000EB4415202128460EF010FD0120287331
:10F5200005F10D000F2231460EF01FFD0020287757
:10F53000234670A271A1009609F0D0FE2846F8BDBE
:10F54000002805D0027B1AB102680A4302607047A6
:10F550003DA278A1002009F0C1BE002805D0027BA1
:10F560001AB102688A430260704737A27DA1002069
:10F5700009F0B4BE2DE9F04104460E4690461F4600
:10F58000002C05D0207B18B116B1207A40B10CE0D8
:10F590002DA280A1002009F0A1FE0020BDE8F0818D
:10F5A00008F0D9FE60600120207225683540B8F16E
:10F5B000010F03D0B8F1020F07D00EE06DB129465C
:10F5C0002046FFF7CAFF2846E8E7B54205D1314695
:10F5D0002046FFF7C2FF2846E0E7781C07D008F076
:10F5E000BAFE6168401AB84201D30020D6E7002075
:10F5F000D4E7002804D0017B11B1002101607047DD
:10F6000011A270A1002009F069BE10B5002803D036
:10F61000017B09B1006810BD0BA277A1002009F0A1
:10F620005DFE002010BD70B505462846FFF726FF99
:10F6300004462CB92B467CA27DA1002009F04EFE89
:10F64000204670BD601000204552524F520000000D
:10F650001B5B33316D5B25735D204576656E7447AA
:10F66000726F7570206372656174653A206E616DAA
:10F670006520616C72656164792065786973747363
:10F6800020282573291B5B306D0D0A001B5B33316D
:10F690006D5B25735D204576656E7447726F75707E
:10F6A000206372656174653A206E616D65206973CF
:10F6B000204E554C4C1B5B306D0D0A001B5B3331EB
:10F6C0006D5B25735D204576656E7447726F75704E
:10F6D00020637265617465206661696C65643A20B7
:10F6E0006E6F20667265652067726F75701B5B3088
:10F6F0006D0D0A00494E464F000000001B5B33327F
:10F700006D5B25735D204576656E7447726F75700D
:10F7100020637265617465204F4B20286964783AD4
:10F7200025642C206E616D653A2573291B5B306D55
:10F730000D0A00001B5B33316D5B25735D20457640
:10F74000656E7447726F75702073656E643A2069D8
:10F750006E76616C69642067726F75701B5B306DCB
:10F760000D0A00001B5B33316D5B25735D20457610
:10F77000656E7447726F757020636C6561723A20B4
:10F78000696E76616C69642067726F75701B5B309F
:10F790006D0D0A001B5B33316D5B25735D20457673
:10F7A000656E7447726F757020726563763A206972
:10F7B0006E76616C696420706172616D1B5B306D87
:10F7C0000D0A00001B5B33316D5B25735D204576B0
:10F7D000656E7447726F757020636C65617220612D
:10F7E0006C6C3A20696E76616C69642067726F7523
:10F7F000701B5B306D0D0A001B5B33316D5B257335
:10F800005D204576656E7447726F7570206765740C
:10F810003A20696E76616C69642067726F75701B3F
:10F820005B306D0D0A0000005741524E0000000091
:10F830001B5B33336D5B25735D204576656E7447C6
:10F84000726F757020676574206279206E616D65D6
:10F85000206661696C65643A202573206E6F7420A0
:10F86000666F756E641B5B306D0D0A0010B57849CC
:10F870000020A1F8C000C42175480EF05FFB1023E2
:10F88000BDE8104073A275A1002009F027BD70B536
:10F8900000226F4D02EB420305EB8304267A46B14A
:10F8A00055F82330834204D163688B4201D1012093
:10F8B00070BD521C92B2102AECD3002070BDF8B576
:10F8C00005460E46002E0CD031462846FFF7DFFFD6
:10F8D00078B12B466FA27149002009F0FFFC01208E
:10F8E000F8BD2B466EA270A1002009F0F7FC0120A4
:10F8F000F8BD574CB4F8C000102807D32B4668A2B7
:10F900007949002009F0EAFC0120F8BD002202EB51
:10F91000420004EB8000007A28B1521C92B2102AF7
:10F92000F5D30120F8BD02EB420044F8205004EB6F
:10F93000800046600121017234F8C00F401C80B283
:10F94000208000902B4643A268A1002009F0C6FC4D
:10F950000020F8BDF8B500223D4B02EB420403EB5A
:10F9600084052E7AD6B153F82440844216D16C68AF
:10F970008C4213D102EB420203EB8202002111728E
:10F9800033F8C01F491E89B219800346009131A285
:10F9900065A1002009F0A2FC0020F8BD521C92B223
:10F9A000102ADAD303463BA26EA1002009F096FC90
:10F9B0000120F8BD2DE9F84F81468A4693461F463F
:10F9C0000026022F07D94B4632A275490020009726
:10F9D00009F084FC02270024DFF8748004EB440063
:10F9E00008EB8005297A71B158F8200048450AD102
:10F9F0000126D5F804C0BCF1000F13D03B465A468F
:10FA000051464846E047641CA4B2102CE6D3002EB1
:10FA100017D101B04B46BDE8F04F62A263A10020B0
:10FA200009F05CBC4B461EA26F490020009409F00F
:10FA300055FC00202872B8F8C000401EA8F8C0008D
:10FA4000E1E7BDE8F88F0248B0F8C0007047000059
:10FA500060140020494E464F000000001B5B33320B
:10FA60006D5B25735D204D73672050756253756221
:10FA700020696E6974204F4B2C206D61782073755E
:10FA8000627363726962653A2025641B5B306D0D99
:10FA90000A0000005741524E0000000040000300E1
:10FAA0004552524F520000001B5B33316D5B257392
:10FAB0005D204D7367205375627363726962653AA6
:10FAC0002063616C6C6261636B206973204E554CDE
:10FAD0004C2028746F7069633A3078253034582987
