:020000040000FA
:1000000060FD002095020000CD020000CF0200003C
:10001000D1020000D3020000D50200000000000061
:10002000000000000000000000000000D7020000F7
:10003000D902000000000000DB020000596D000042
:1000400099420000AD420000C1420000D5420000CC
:10005000E9420000FD42000011430000254300007A
:10006000394300004D430000614300007543000028
:10007000894300009D430000B1430000C5430000D8
:10008000D9430000ED430000014400001544000086
:10009000294400003D440000514400006544000034
:1000A000794400008D440000A1440000B5440000E4
:1000B000C9440000DD440000F14400000545000093
:1000C000194500002D450000414500005545000040
:1000D000694500007D45000091450000A5450000F0
:1000E000B9450000CD450000E1450000F5450000A0
:1000F000094600001D46000031460000454600004C
:10010000594600006D4600008146000095460000FB
:10011000A9460000BD460000D1460000E5460000AB
:10012000F94600000D470000214700003547000058
:10013000494700005D470000714700008547000007
:1001400099470000AD470000C1470000D5470000B7
:10015000E9470000FD470000114800002548000065
:10016000394800004D480000614800007548000013
:10017000894800009D480000B1480000C5480000C3
:10018000D9480000ED480000014900001549000071
:10019000294900003D49000051490000654900001F
:1001A000794900008D490000A1490000B5490000CF
:1001B000C9490000DD490000F1490000054A00007E
:1001C000194A00002D4A0000414A0000554A00002B
:1001D000694A00007D4A0000914A0000A54A0000DB
:1001E000B94A0000CD4A0000E14A0000F54A00008B
:1001F000094B00001D4B0000314B0000454B000037
:10020000594B00006D4B0000814B0000954B0000E6
:10021000A94B0000BD4B0000D14B0000E54B000096
:10022000F94B00000D4C0000214C0000354C000043
:10023000494C00005D4C0000714C0000854C0000F2
:10024000DF020000DF020000DF020000DF0200002A
:10025000DF020000DF020000DF020000DF0200001A
:10026000DF020000DF020000DF020000DF0200000A
:10027000DF020000DF020000DF020000DF020000FA
:10028000DFF80CD000F012F900480047EDBD000087
:1002900060FD002012484FF01F01016011484FF02F
:1002A0007701016010484FF0770101600F484FF46B
:1002B000885101600B484FF0760101600A484FF009
:1002C000760101600A4880470A480047FEE7FEE7DA
:1002D000FEE7FEE7FEE7FEE7FEE7FEE7FEE7FEE7F6
:1002E00010080540040805400C08054000080540BA
:1002F000717300008102000040EA01039B0703D0F4
:1003000009E008C9121F08C0042AFAD203E011F854
:10031000013B00F8013B521EF9D27047D2B201E016
:1003200000F8012B491EFBD270470022F6E710B5FA
:1003300013460A4604461946FFF7F0FF204610BD53
:1003400010B5044604E00B7800F8013B03B1491CEA
:10035000521EF8D2204610BD421C10F8011B002985
:10036000FBD1801A704710B5002200E0521C835C5C
:100370008C5CA34201D1002BF8D1D8B2E1B2401A73
:1003800010BD30B504460020034600E05B1C9342DC
:1003900003D2E05CCD5C401BF8D030BD30B50546E3
:1003A0000020034600E05B1C934205D2EC5CC85C75
:1003B000201A01D1002CF6D130BD00F0004230F0FF
:1003C00000400AD0C10D01F56071C0F3160042EA89
:1003D0000151C20840071143704700200146704791
:1003E00010B50121034800F013F903480CF0D2F8CE
:1003F00010BD0000000004407CE2FF1F7047704702
:10040000BFFFDFFFFFFEFFFFFFFFFFFFFFFFFFFF5D
:10041000FFFFFFFFFFFFFFFFFFFFFFFFFFFFFFFFEC
:1004200030B5041E71F1000404DB4FF0004440427B
:1004300064EB0101141E73F1000405DB1C464FF050
:100440000043524263EB04038B4208BF824230BD3B
:1004500030B5041E71F1000404DB4FF0004440424B
:1004600064EB0101141E73F1000405DB1C464FF020
:100470000043524263EB0403994208BF904230BDEF
:1004800030B50B46014600202022012409E021FA64
:1004900002F59D4205D303FA02F5491B04FA02F561
:1004A0002844151EA2F10102F1DC30BD064C074DB7
:1004B00006E0E06840F0010394E807009847103434
:1004C000AC42F6D3FFF7E0FED8F60000F8F60000E5
:1004D00070B58C1810F8015B15F0070301D110F806
:1004E000013B2A1106D110F8012B03E010F8016B33
:1004F00001F8016B5B1EF9D12B0705D40023521EB6
:100500000DD401F8013BFAE710F8013BCB1A921C1D
:1005100003E013F8015B01F8015B521EF9D5A1421B
:10052000D8D3002070BD000010B50221054800F0AE
:100530006FF805480CF02EF804480CF02BF809F081
:10054000EFFD10BD0000044098E2FF1FB4E2FF1F62
:100550002DE9F04107460C461546984600BF1F4856
:10056000874201D1102D04D91D48874202D1082DA0
:1005700000D804E040F265111AA002F039FB00BF78
:1005800000BF0CB1012C00D104E04FF4B37115A0F1
:1005900002F02EFB00BF00BFB8F1000F02D0B8F18F
:1005A000010F00D104E040F267110EA002F020FB21
:1005B00000BF07F10C0000EB8406B8F1010F05D174
:1005C00030680121A9400843306004E0306801210F
:1005D000A94088433060BDE8F0810000000004407D
:1005E000000404402E2E5C647269766572735C6848
:1005F0006333325F6C6C5F6472697665725C7372D0
:10060000635C686333325F6C6C5F6164632E6300AC
:1006100070B505460C4600BF0F48854202D00F4812
:10062000854200D104E040F2AB210DA002F0E0FAD7
:1006300000BF00BF24B144F00300032800D104E050
:100640004FF42B7106A002F0D3FA00BF84F0030030
:1006500085F8460070BD000000000440000404401E
:100660002E2E5C647269766572735C686333325FE8
:100670006C6C5F6472697665725C7372635C6863EC
:1006800033325F6C6C5F6164632E630070B5054646
:100690000C4600BF0A48854201D1102C04D90948F4
:1006A000854202D1082C00D804E040F2762106A051
:1006B00002F09EFA00BF05F1500030F8140070BD42
:1006C00000000440000404402E2E5C6472697665CC
:1006D00072735C686333325F6C6C5F6472697665F9
:1006E000725C7372635C686333325F6C6C5F61640D
:1006F000632E630070B505460C466FF0020600BF1E
:100700002148854202D02148854200D103E0E521FD
:100710001FA002F06DFA00BF002C33D000BF20886C
:1007200040B12088012805D02088022802D02088E6
:10073000032800D103E0E82115A002F059FA00BF18
:1007400000BF6088202804D06088102801D060880D
:1007500000B903E0E9210EA002F04AFA00BF00BF91
:10076000A08810B1A088802800D103E0EA2108A069
:1007700002F03EFA00BF208861880843A188084340
:1007800068800026304670BD00000440000404402C
:100790002E2E5C647269766572735C686333325FB7
:1007A0006C6C5F6472697665725C7372635C6863BB
:1007B00033325F6C6C5F6164632E630070B5044616
:1007C0000D46164600BF1948844202D0184884429C
:1007D00000D104E040F23B2116A002F009FA00BF6C
:1007E00000BF25B145F00300032800D104E04FF419
:1007F0000F7110A002F0FCF900BF00BF0EB1012E76
:1008000000D104E040F23D210AA002F0F1F900BF5E
:10081000012E05D194F84700284384F8470004E0EE
:1008200094F84700A84384F8470070BD00000440D6
:10083000000404402E2E5C647269766572735C68F5
:100840006333325F6C6C5F6472697665725C73727D
:10085000635C686333325F6C6C5F6164632E63005A
:1008600070B50446002500BF0A48844202D00A48F9
:10087000844200D104E040F2532108A002F0B8F90C
:1008800000BF2078012801D1C51F01E001202070A0
:10089000284670BD00000440000404402E2E5C6415
:1008A0007269766572735C686333325F6C6C5F6427
:1008B00072697665725C7372635C686333325F6C15
:1008C0006C5F6164632E630001466FF0020021B12A
:1008D00000220A804A808A800020704770B5044652
:1008E0000D46164600BF1A48844202D01948844279
:1008F00000D104E040F2222117A002F079F900BFF4
:1009000000BF0DB1012D00D104E040F2232112A05F
:1009100002F06EF900BF00BF0EB1012E00D104E05D
:100920004FF409710CA002F063F900BF012E07D14A
:100930006089EA008021914089B20843608105E026
:100940006089EA00802191408843608170BD000089
:1009500000000440000404402E2E5C647269766539
:1009600072735C686333325F6C6C5F647269766566
:10097000725C7372635C686333325F6C6C5F61647A
:10098000632E630070B506460C46154600BF1B4833
:10099000864202D01A48864200D104E040F20B2180
:1009A00018A002F025F900BF00BF0CB1012C00D146
:1009B00004E04FF4037113A002F01AF900BF00BF66
:1009C0002DB1012D03D0022D01D0032D00D104E063
:1009D00040F20D210BA002F00BF900BFE006040E5F
:1009E00070890321A140884305FA04F10322A24043
:1009F00092B211400843708170BD000000000440B5
:100A0000000404402E2E5C647269766572735C6823
:100A10006333325F6C6C5F6472697665725C7372AB
:100A2000635C686333325F6C6C5F6164632E630088
:100A300070B504460D4600BF0A48844207D30948F2
:100A40006830844203D804F0030000B903E08F212A
:100A500005A002F0CDF800BF206865F30800206013
:100A600070BD0000040801402E2E5C64726976653A
:100A700072735C686333325F6C6C5F647269766555
:100A8000725C7372635C686333325F6C6C5F616F5E
:100A9000732E630070B5044625462B4828606E20EF
:100AA000A8802A48A8601A20A8810120A8612846A9
:100AB00005F06CFE05F0F4FD2549086005F0F0FD39
:100AC0002449086005F0ECFD2349086005F0E8FDC5
:100AD0002249086005F0E4FD2149086005F0E0FDC9
:100AE000204908601A48006820B11F49184800686A
:100AF00005F00AFE1748006820B11C491548006837
:100B000005F002FE1448006820B119491248006837
:100B100005F0FAFD1148006820B116490F48006839
:100B200005F0F2FD0E48006820B113490C4800683A
:100B300005F0EAFD0B48006820B11049094800683B
:100B400005F0E2FD70BD0000ACE40000D4E9000057
:100B5000DC80FF1FE480FF1FE080FF1FE880FF1F95
:100B6000EC80FF1FF080FF1FFD030000FF0300006B
:100B70008D0F00008F0F0000910F0000CD0F0000BF
:100B800070B50446204609F003F894F82C000228BA
:100B900004D04FF4F6700059022800D170BD94F8CB
:100BA000FE01012808D12078F5490BF0BFF894F830
:100BB000FE0184F8FF01F1E794F8FE0194F8FF11BB
:100BC000884207D0207804210BF0B0F894F8FE0199
:100BD00084F8FF0194F8FC0140B92078E9490BF052
:100BE000A5F894F8FC0184F8FD01D7E701212078ED
:100BF00000EB800202EBC012E34800EB820080F8B9
:100C00002C1020460AF008FE20460CF0D7FA94F883
:100C1000FC0194F8FD11884207D0207804210BF0E4
:100C200085F894F8FC0184F8FD01D4F8B80102F0CD
:100C300081FD00F4001018B3207800EB800101EB77
:100C4000C011D14800EB8100D0F8AC01012817D1C8
:100C5000207800EB800101EBC011CB4800EB810054
:100C600090F82E0001280BD14FF40011D4F8B801F0
:100C700002F03AFC4FF48011D4F8B80102F0E4FD20
:100C8000D4F8B80102F056FD054605F0020058B14F
:100C9000022104F5CE7005F07FFD0221D4F8B801E1
:100CA00002F022FC0020607005F0010058B1012123
:100CB00004F5CE7005F070FD0121D4F8B80102F002
:100CC00013FC0120607005F4004058B14FF400415E
:100CD00004F5CE7005F060FD4FF40041D4F8B80182
:100CE00002F002FC05F4804058B14FF4804104F555
:100CF000CE7005F051FD4FF48041D4F8B80102F0F8
:100D0000F3FB05F4803058B14FF4803104F5CE7018
:100D100005F042FD4FF48031D4F8B80102F0E4FB55
:100D200005F4003058B14FF4003104F5CE7005F0F1
:100D300033FD4FF40031D4F8B80102F0D5FB05F4CF
:100D4000802058B14FF4802104F5CE7005F024FDC9
:100D50004FF48021D4F8B80102F0C6FB05F400205E
:100D600058B14FF4002104F5CE7005F015FD4FF495
:100D70000021D4F8B80102F0B7FB05F4801058B197
:100D80004FF4801104F5CE7005F006FD4FF480118C
:100D9000D4F8B80102F0A8FB05F4001058B14FF4E4
:100DA000001104F5CE7005F0F7FC4FF40011D4F8F3
:100DB000B80102F099FB05F4800058B14FF48001AE
:100DC00004F5CE7005F0E8FC4FF48001D4F8B801CA
:100DD00002F08AFB05F4000058B14FF4000104F55D
:100DE000CE7005F0D9FC4FF40001D4F8B80102F040
:100DF0007BFB05F0807058B14FF0807104F5CE7028
:100E000005F0CAFC4FF08071D4F8B80102F06CFB19
:100E100005F0800048B1802104F5CE7005F0BCFCDF
:100E20008021D4F8B80102F05FFB05F4005058B1FE
:100E30004FF4005104F5CE7005F0AEFC4FF40051B4
:100E4000D4F8B80102F050FB05F4807058B14FF4AB
:100E5000807104F5CE7005F09FFC4FF48071D4F8DA
:100E6000B80102F041FB05F0040048B1042104F58B
:100E7000CE7005F091FC0421D4F8B80102F034FBE7
:100E800005F0080048B1082104F5CE7005F084FC97
:100E90000821D4F8B80102F027FB05F0100048B192
:100EA000102104F5CE7005F077FC1021D4F8B801BC
:100EB00002F01AFB05F0200048B1202104F5CE70A5
:100EC00005F06AFC2021D4F8B80102F00DFB05F012
:100ED000400048B1402104F5CE7005F05DFC402192
:100EE000D4F8B80102F000FB05F0800048B1802181
:100EF00004F5CE7005F050FC8021D4F8B80102F062
:100F0000F3FA05F4007058B14FF4007104F5CE7097
:100F100005F042FC4FF40071D4F8B80102F0E4FA95
:100F200005F4806058B14FF4806104F5CE7005F08F
:100F300033FC4FF48061D4F8B80102F0D5FA05F41F
:100F4000006058B14FF4006104F5CE7005F024FC48
:100F50004FF40061D4F8B80102F0C6FA05F48050ED
:100F600058B14FF4805104F5CE7005F015FC4FF4E4
:100F70008051D4F8B80102F0B7FA00BF00BF0DE607
:100F800040000020808000302483FF1F704770479E
:100F900010B504460C48D0F8F001162806D10A49CD
:100FA000D1F8FC014FF4002102F04EFC0648D0F8C5
:100FB000F001182806D10449D1F8FC014FF08071E6
:100FC00002F042FC10BD0000E082FF1F10B5044695
:100FD0000C48D0F80404162806D10A49D1F81004A8
:100FE0004FF4002102F030FC0648D0F80404182821
:100FF00006D10449D1F810044FF0807102F024FCAE
:1010000010BD0000E082FF1F1FB501220321052053
:1010100002F05EFD02A801F01FF9684600F0C4FF6F
:101020002F49304800F0E9FF00208DF80A003020F9
:101030008DF8090000208DF8080005208DF80C00BF
:1010400002A801F067F800200190019820F01F002D
:1010500001903121019861F310200190019820F056
:10106000704000F180500190019820F0706000F114
:1010700080700190019820F4700000F580100190BC
:1010800000208DF80000019820F080000190684653
:1010900000F038FE00BF202000F0A0FD0128FAD1AA
:1010A00000221146042005F05BF8012211460B20B6
:1010B00005F056F8502002F043F94FF4404003F099
:1010C00013F804F0EDFC052000F0A1FF012001F071
:1010D000BDFE002001F0BAFE012001F081FE1FBD1F
:1010E00010221100777777072DE9F04105460C466D
:1010F00000BF1448854200D104E040F2723112A0D2
:1011000001F076FD00BF00BF2CB11A4820431949F9
:10111000884200D104E040F273310BA001F068FD79
:1011200000BF15480440C4F307474FEA146805F8A8
:10113000A57F6E7806F0EA0646EA08066E70A53DC1
:10114000BDE8F081000407402E2E5C64726976656C
:1011500072735C686333325F6C6C5F64726976656E
:10116000725C7372635C686333325F6C6C5F636183
:101170006E2E63002701FFD50000FF1510B5044651
:1011800000BF0848844200D104E040F2FA2106A0E2
:1011900001F02EFD00BF94F8A00000F07F0084F85D
:1011A000A00010BD000407402E2E5C6472697665B5
:1011B00072735C686333325F6C6C5F64726976650E
:1011C000725C7372635C686333325F6C6C5F636123
:1011D0006E2E63002DE9F04704460E4615464FF08B
:1011E000000900BF3D48844200D104E040F26A217A
:1011F0003BA001F0FDFC00BF00BF0EB1012E00D1ED
:1012000004E040F26B2136A001F0F2FC00BF002D9B
:101210005ED000BF2879C0F3401000B904E040F26E
:101220006E212FA001F0E4FC00BF3EB994F8A100AC
:1012300000F01000B8B16FF0050914E094F8A100B7
:1012400000F0060010B16FF005090CE094F8A470EE
:1012500094F8A28007F0010018B908F003000328F1
:1012600001D16FF00909B9F1000F33D100BF28791E
:10127000C0F3C01030B1286860F060406FF060418A
:10128000884209D02879C0F3C01030B940F2FF710C
:1012900028680843884200D104E040F2852110A06C
:1012A00001F0A6FC00BF04F1A10A1C2101EB4A10C9
:1012B00000F1844006602946204600F067FC012EBC
:1012C00008D194F8A20040F0400084F8A20001E0A8
:1012D0006FF002094846BDE8F087000000040740AF
:1012E0002E2E5C647269766572735C686333325F5C
:1012F0006C6C5F6472697665725C7372635C686360
:1013000033325F6C6C5F63616E2E63002DE9F047D2
:1013100006460F4614464FF0000800256FF00209FC
:1013200000BF3448864200D104E04FF4967132A0E9
:1013300001F05EFC00BF002F59D0002C57D053E0C5
:1013400007F0010000284AD000BF05EB450004EB80
:101350008000806878B105EB450004EB8000806870
:10136000B0F1804F07D005EB450004EB80008068AA
:10137000B0F1C04F00D104E040F231111EA001F0E5
:1013800037FC00BF00BF05EB450004EB8000406860
:1013900060F060406FF06041884200D104E04FF49B
:1013A000997115A001F024FC00BF06F8B48F05EB7D
:1013B000450054F820007060307840F02000307014
:1013C00005EB450004EB8000406805EB450104EBAC
:1013D0008101896808437060B43E681CC5B27F1003
:1013E00008F1010000F0FF08002FA9D1B9464846D6
:1013F000BDE8F087000407402E2E5C6472697665B4
:1014000072735C686333325F6C6C5F6472697665BB
:10141000725C7372635C686333325F6C6C5F6361D0
:101420006E2E630010B5044600BF0748844200D109
:1014300004E040F2F53105A001F0DAFB00BF94F8BA
:10144000A30000F0030010BD000407402E2E5C64D2
:101450007269766572735C686333325F6C6C5F646B
:1014600072697665725C7372635C686333325F6C59
:101470006C5F63616E2E630070B504460D466FF0BD
:10148000080600BF0F48844200D104E040F2D22198
:101490000DA001F0ADFB00BF15B96FF002060FE023
:1014A00094F8A30000F0030050B12946204600F054
:1014B00005FA94F8A30040F0100084F8A300002679
:1014C000304670BD000407402E2E5C64726976655C
:1014D00072735C686333325F6C6C5F6472697665EB
:1014E000725C7372635C686333325F6C6C5F636100
:1014F0006E2E63002DE9F05F05460C464FF0000BA1
:1015000000BF2048854200D104E04FF44F711EA077
:1015100001F06EFB00BF00BF2CB1264820432549D7
:10152000884200D104E040F23D3117A001F060FB99
:1015300000BF04F0070604F02007C4F30728C4F333
:1015400007494FEA146A15F8A00F0640E8780740EB
:10155000287900EA0808687900EA0909A879A03D15
:1015600000EA0A0A4EB947B9B8F1000F05D1B9F13E
:10157000000F02D1BAF1000F01D04FF0010B584615
:10158000BDE8F09F000407402E2E5C64726976650A
:1015900072735C686333325F6C6C5F64726976652A
:1015A000725C7372635C686333325F6C6C5F63613F
:1015B0006E2E63002701FFD570B505460C466FF00F
:1015C0000206002C4FD02146284600F04FF815F8AF
:1015D000A00F40F0800028706068801EA168491E3E
:1015E00040EA0121A089401E41EA00412078401EC6
:1015F00041EA0060A860A87800F0DF00617E01F099
:1016000020010843A870A03DA18A28462269FFF75F
:101610007DFE95F8A00000F07F0085F8A000A17D78
:10162000284600F07BF9E07D217E084300F0180099
:1016300015F8A01F01F0E70108432870E07EA17EA5
:1016400040EA0110E871207F617F0843A17F0843D1
:10165000E870207DA875A03D206A18B12846216A4F
:1016600000F0DEF90026304670BD000070B505467A
:101670000C4600BF5648854200D103E0D52155A055
:1016800001F0B6FA00BF00BFA07D042800D803E037
:10169000D62150A001F0ACFA00BF00BFE07D10B130
:1016A000E07D102800D103E0D7214AA001F0A0FA84
:1016B00000BF00BF207E10B1207E082800D103E0CB
:1016C000D82144A001F094FA00BF00BF607E10B1A1
:1016D000607E202800D103E0D9213EA001F088FAE5
:1016E00000BF00BFA07E18B1A07E0A2800D803E08A
:1016F000DA2138A001F07CFA00BF00BFE07E10289C
:1017000000D203E0DB2133A001F072FA00BF00BF7A
:10171000A08A28B1A08A40F0FF00FF2800D103E092
:10172000DC212CA001F064FA00BF00BF207F10B1C3
:10173000207F082800D103E0DD2126A001F058FA1F
:1017400000BF00BF607F10B1607F402800D103E080
:10175000DE2120A001F04CFA00BF00BFA07F10B135
:10176000A07F802800D103E0DF211AA001F040FA19
:1017700000BF00BF206820B12068B0F5807F00D88E
:1017800003E0E12113A001F033FA00BF00BF60685D
:10179000022816D36068412813D8A06888B1A068D1
:1017A00008280ED8E06860B1E068082809D8D4E9B4
:1017B0000110401C814204D3D4E90201884200D3C5
:1017C00003E0E22103A001F013FA00BF70BD0000A6
:1017D000000407402E2E5C647269766572735C6843
:1017E0006333325F6C6C5F6472697665725C7372CE
:1017F000635C686333325F6C6C5F63616E2E6300A1
:101800002DE9F04104460D46164600BF1F488442AC
:1018100000D104E040F243211DA001F0E9F900BF2E
:1018200000BF3DB142F6FE20284342F6FE21884229
:1018300000D104E04FF4117115A001F0D9F900BFF7
:1018400000BF0EB1012E00D104E040F2452110A0EE
:1018500001F0CEF900BFEFB2C5F30728012E09D180
:1018600014F8A40F38432070A07840EA0800A07054
:10187000A43C08E014F8A40FB8432070A07820EA34
:101880000800A070A43CBDE8F081000000040740FF
:101890002E2E5C647269766572735C686333325FA6
:1018A0006C6C5F6472697665725C7372635C6863AA
:1018B00033325F6C6C5F63616E2E6300F0B502467D
:1018C00001F10805144626680E6066684E600E79C0
:1018D000C6F3C01626B90E88C6F30A060E6003E0EA
:1018E0000E6826F060460E600E7906F00F060A4F6D
:1018F000BB5D0E79C6F3401616B9022B00D9022340
:10190000002006E0861C54F8266045F82060461C3E
:10191000F0B29842F6DBF0BD6CF2000030B5002268
:10192000002305290DD2DFE801F00D0305070900AA
:10193000402308E0202206E0402204E04023402229
:1019400001E000BF00BF00BF10F8A04F04F09F04EB
:1019500002F060052C430470447804F0BF0403F0E7
:1019600040052C434470A03830BD000070B50446DB
:101970000D4600BF0E48844200D104E040F2A92188
:101980000CA001F035F900BF00BF25B145F01600ED
:10199000162800D104E040F2AA2106A001F028F99F
:1019A00000BF94F8A100284384F8A10070BD000096
:1019B000000407402E2E5C647269766572735C6861
:1019C0006333325F6C6C5F6472697665725C7372EC
:1019D000635C686333325F6C6C5F63616E2E6300BF
:1019E00001466FF00200D1B104220A6010224A6061
:1019F00004228A600222CA6000220A618A828A75F1
:101A0000CA750A764A760A228A760722CA760022A0
:101A10000A7740224A7700228A770A6200207047BC
:101A20002DE9F04105460C466FF0020700BF4B4818
:101A3000854200D104E040F25F4149A001F0D8F8AE
:101A400000BF002C7DD000BF607A10B1607A1028F2
:101A500000D104E040F2624141A001F0C9F800BFAA
:101A600000BF207A40B1207A022805D0207A0428CD
:101A700002D0207A062800D104E040F2634138A069
:101A800001F0B6F800BF00BF6068012806D12068E9
:101A900060F060406FF06041884207D0606830B904
:101AA00040F2FF7120680843884200D104E040F210
:101AB00064412BA001F09CF800BF00BF608978B1A1
:101AC0006089B0F5807F0BD06089B0F5007F07D0CA
:101AD0006089B0F5407F03D06089B0F5806F00D198
:101AE00004E040F265411EA001F082F800BF00BF93
:101AF000A08918B1A089102800D804E040F26641FE
:101B000017A001F075F800BF206820F0004615F816
:101B1000A20F00F0EF00617A01F010010843287075
:101B20006189207B401E41EA00306884207946EAC2
:101B3000C070C5F81E00E089A884208AE884687F08
:101B400000E008E000F0F900217A01F00601084306
:101B50006877A23D00273846BDE8F08100040740C1
:101B60002E2E5C647269766572735C686333325FD3
:101B70006C6C5F6472697665725C7372635C6863D7
:101B800033325F6C6C5F63616E2E6300F0B50346A9
:101B900001F1080503F150020E6816604E685660A8
:101BA0000E7906F00F060C4FBC5D0E79C6F3401699
:101BB00016B9022C00D902240E79C6F3801656B944
:101BC000002006E055F82070861C42F82670461C5E
:101BD000F0B2A042F6DBF0BD6CF2000010B5044696
:101BE00000BF24B144F06900692800D104E040F24C
:101BF0008B5106A000F0FCFF00BF0F48007820408A
:101C000008B1012010BD0020FCE700002E2E5C640E
:101C10007269766572735C686333325F6C6C5F64A3
:101C200072697665725C7372635C686333325F6C91
:101C30006C5F636C6B2E63003C40054070B50446DE
:101C4000002500BF0CB1012C00D104E040F2E541B9
:101C50001FA000F0CDFF00BF00BF2848008800F0A3
:101C6000010000B104E040F2E64119A000F0C0FF1D
:101C700000BF64B92248007800F00700052801D1B0
:101C8000C54322E001201E49091D08701DE01C48C3
:101C9000DA300068C0F3C01030B94FF4805108202A
:101CA00000F0BDF9054605E04FF48051012000F039
:101CB000B6F905464DB900201149091D08704FF4C9
:101CC0008051202000F0ABF90546284670BD000089
:101CD0002E2E5C647269766572735C686333325F62
:101CE0006C6C5F6472697665725C7372635C686366
:101CF00033325F6C6C5F636C6B2E6300FE43054098
:101D0000264005402DE9F041044614B96FF0020663
:101D10001FE100BF2079C0F3C01018B12079C0F3D3
:101D2000C01000B104E04FF497618BA000F060FF99
:101D300000BF00BF207900F01F00401C182805D804
:101D4000207900F01F00401C00B104E040F2B941CE
:101D500081A000F04DFF00BF00BF6068C0F3082005
:101D6000401CB0F5F07F06D86068C0F30820401C26
:101D7000142800D304E040F2BA4177A000F038FF05
:101D800000BF00BF0121606801EB1070102805D86A
:101D9000606801EB1070022800D304E040F2BB4100
:101DA0006DA000F025FF00BF2079C0F3C01008B976
:101DB000744901E074480168207900F01F00401C5C
:101DC000B1FBF0F76068C0F30820401C00FB07F58A
:101DD00000BF6E48874203D86D48874200D304E0B5
:101DE0004FF498615CA000F003FF00BF00BF69489A
:101DF000854203D84010854200D304E040F2C1413F
:101E000055A000F0F5FE00BF00BF0121606801EBA6
:101E10001070B5FBF0F06049884209D80121606874
:101E200001EB1070B5FBF0F05C49884200D304E090
:101E300040F2C24148A000F0DBFE00BF00BF606876
:101E4000C0F30360401C102806D86068C0F303602C
:101E5000401C022800D304E040F2C3413EA000F041
:101E6000C7FE00BF00BF6068C0F30350401C1028CD
:101E700006D86068C0F30350401C022800D304E079
:101E800040F2C44134A000F0B3FE00BF00BF606860
:101E9000C0F30350401CB5FBF0F03F49884209D81D
:101EA0006068C0F30350401CB5FBF0F03B4988422A
:101EB00000D304E040F2C54127A000F099FE00BF26
:101EC00000BF6068C0F30360401CB5FBF0F032490E
:101ED000884209D86068C0F30360401CB5FBF0F08D
:101EE0002E49884200D304E040F2C6411AA000F017
:101EF0007FFE00BF00BF2078012801D0207800B904
:101F000004E04FF4996114A000F072FE00BF00BF1E
:101F10002348008800F0010000B104E040F2C9410C
:101F20000DA000F065FE00BF2079C1091D480068C2
:101F300061F3C7101B49086060680860207820B909
:101F40000120FFF77BFE064603E00020FFF776FE48
:101F500006463046BDE8F0812E2E5C6472697665D7
:101F600072735C686333325F6C6C5F647269766550
:101F7000725C7372635C686333325F6C6C5F636C5A
:101F80006B2E630000127A000480FF1F40787D01F1
:101F900040420F0000389C1C00C2EB0BC0E1E40083
:101FA000FE430540004105400146002009B9C01E1E
:101FB00022E000224A604A6822F080024A604A68B1
:101FC00022F01F024A6013234A6863F310224A601A
:101FD0004A6822F0704202F180524A604A6822F058
:101FE000706202F180724A604A6822F4700202F55F
:101FF00080124A6001220A70704770B504460D468F
:102000002946204604F022F905F04CF970BD10B5C0
:102010000446204604F0B0FA05F044F910BDF8B5C6
:1020200005460C46002000906FF0070609E02846A0
:10203000FFF7D4FD012801D1002605E00098401CDF
:1020400000900098A042F2D900BF3046F8BD0000D1
:1020500070B50446002500BF0CB1012C00D104E08E
:102060004FF467711EA000F0C3FD00BF00BF2748FA
:10207000008800F0010000B104E040F29D3118A09A
:1020800000F0B6FD00BFFCB92148007800F0070061
:10209000032802D16FF0050520E01D48DA30006802
:1020A000C0F3C01058B91A48001D007810B96FF07D
:1020B000050513E0012016490C3108700EE00120DF
:1020C00013490C31087009E0002011490C310870E7
:1020D0004FF480510820FFF7A2FF0546284670BD47
:1020E0002E2E5C647269766572735C686333325F4E
:1020F0006C6C5F6472697665725C7372635C686352
:1021000033325F6C6C5F636C6B2E6300FE43054083
:102110002640054070B5044614B96FF002057FE013
:1021200000BF2078012801D0207800B904E04FF4E6
:102130005F713CA000F05CFD00BF00BF607840B163
:102140006078102805D06078202802D06078302888
:1021500000D104E040F27D3132A000F049FD00BF23
:1021600000BFA07810B1A078402800D104E040F270
:102170007E312CA000F03CFD00BF00BFE07880283D
:1021800001D0E07800B904E040F27F3125A000F0F2
:102190002FFD00BF00BF2079012817D02079022829
:1021A00014D02079032811D0207904280ED020796A
:1021B00005280BD02079062808D02079072805D0DB
:1021C0002079082802D02079092800D104E04FF4B2
:1021D000607114A000F00CFD00BF00BF1C48008817
:1021E00000F0010000B104E040F281310DA000F0E8
:1021F000FFFC00BF207917490870E0786178084338
:10220000A1780843124912310870207820B90120C2
:10221000FFF71EFF054603E00020FFF719FF054604
:10222000284670BD2E2E5C647269766572735C6898
:102230006333325F6C6C5F6472697665725C737273
:10224000635C686333325F6C6C5F636C6B2E63003E
:10225000FE430540A24005400146002009B9C01ECA
:1022600008E001220A7000228A704A708022CA7037
:1022700005220A717047000070B5044625460748DC
:1022800028601D20A8800648A8600A20A881012097
:10229000A861284604F07AFA70BD00000CEB00003B
:1022A00068EC000070B50446D4F8F80101F042FA79
:1022B000054605F4807050B125F4807626B131468C
:1022C000D4F8F80101F010F94FF4807500BFB5F5AE
:1022D000007F76D015DC102D5DD008DC012D2ED0CE
:1022E000022D37D0042D40D0082D6BD148E0202D91
:1022F0005CD0402D68D0802D74D0B5F5807FF4D1AE
:102300007FE0B5F5804F6BD00CDCB5F5806F68D001
:10231000B5F5006F71D0B5F5805F6FD0B5F5005F92
:10232000E3D1B0E0B5F5004F69D0B5F5803F67D097
:10233000B5F5003F72D0B5F5802FD6D1E4E001218C
:1023400004F5EE7004F028FA0121D4F8F80101F048
:10235000CBF8E7E0022104F5EE7004F01DFA02214B
:10236000D4F8F80101F0C0F8DCE0042104F5EE70C7
:1023700004F012FA0421D4F8F80101F0B5F8D1E024
:10238000082104F5EE7004F007FA0821D4F8F801EA
:1023900001F0AAF8C6E0102104F5EE7004F0FCF993
:1023A0001021D4F8F80101F09FF8BBE0202104F5DA
:1023B000EE7004F0F1F92021D4F8F80101F094F85E
:1023C000B0E02CE0ADE0FFE7402104F5EE7004F052
:1023D000E3F94021D4F8F80101F086F8A2E001E029
:1023E0005EE029E0802104F5EE7004F0D5F980214B
:1023F000D4F8F80101F078F894E02AE036E05CE0E7
:1024000068E04FF4807104F5EE7004F0C5F94FF404
:102410008071D4F8F80101F067F883E067E04FF4C9
:10242000007104F5EE7004F0B7F94FF40071D4F8C0
:10243000F80101F059F875E04FF4806104F5EE7091
:1024400004F0AAF94FF48061D4F8F80101F04CF8D7
:1024500068E04FF4006104F5EE7004F09DF94FF46C
:102460000061D4F8F80101F03FF85BE04FF48051CF
:1024700004F5EE7004F090F94FF48051D4F8F801AF
:1024800001F032F84EE04FF4005104F5EE7004F024
:1024900083F94FF40051D4F8F80101F025F841E038
:1024A0004FF4804104F5EE7004F076F94FF480416A
:1024B000D4F8F80101F018F834E04FF4004104F5C5
:1024C000EE7004F069F94FF40041D4F8F80101F01E
:1024D0000BF827E04FF4803104F5EE7004F05CF95E
:1024E0004FF48031D4F8F80100F0FEFF1AE04FF409
:1024F000003104F5EE7004F04FF94FF40031D4F8D8
:10250000F80100F0F1FF0DE04FF4802104F5EE70CA
:1025100004F042F94FF48021D4F8F80100F0E4FF10
:1025200000E000BF00BF70BD10B5002481E004EBE7
:10253000840202EBC413414A02EB830202F5AA7142
:1025400004EB840202EBC4133C4A02EB830202F563
:10255000A07003F006FA012104EB840000EBC41222
:10256000364800EB820080F84011B6EE000A04EB1A
:10257000840000EBC411314800EB810080ED510A6A
:102580009FED2F0A04EB840000EBC4112B4800EBF5
:10259000810080ED520A9FED2B0A04EB840000EBD2
:1025A000C411264800EB810080ED530A9FED250AF7
:1025B00004EB840000EBC411204800EB810080EDA7
:1025C000540A9FED210A04EB840000EBC4111B4860
:1025D00000EB810080ED5D0A9FED1A0A04EB840098
:1025E00000EBC411154800EB810080ED5E0A9FED01
:1025F000170A04EB840000EBC411104800EB8100C3
:1026000080ED630A9FED120A04EB840000EBC41115
:102610000A4800EB810080ED640A9FED0E0A04EB8E
:10262000840000EBC411054800EB810080ED650AD1
:10263000641C022CFFF67BAF10BD00002483FF1F3B
:10264000CDCC4C3D0000000000401C4500002F4454
:102650000080BB440000FA4410B500246BE004EB9A
:10266000840202EBC413354A02EB830202F19C019F
:1026700004EB840202EBC413304A02EB830202F142
:10268000880003F06EF9012104EB840000EBC41212
:102690002A4800EB820080F88810B7EE000A04EBAD
:1026A000840000EBC411254800EB810080ED230A73
:1026B0009FED230A04EB840000EBC4111F4800EBDC
:1026C000810080ED240A9FED1F0A04EB840000EBDB
:1026D000C4111A4800EB810080ED250A9FED190A0C
:1026E00004EB840000EBC411144800EB810080ED82
:1026F000260AB2EE000A04EB840000EBC4110F4876
:1027000000EB810080ED2F0ABAEE000A04EB840092
:1027100000EBC411094800EB810080ED300AB6EEF1
:10272000000A04EB840000EBC411044800EB8100B4
:1027300080ED350A641C022C91DB10BD2483FF1F41
:102740000AD7233C0000000010B52DED048B0024B7
:1027500008E104EB840000EBC411854800EB810024
:1027600090F89C00002876D004EB840202EBC4139E
:102770007F4A02EB830292ED291AF0EE410A04EB44
:10278000840202EBC4137A4A02EB830292ED281A08
:10279000B0EE410A04EB840202EBC413744A02EB6C
:1027A000830202F19C0104EB840202EBC413704A21
:1027B00002EB830202F1880003F066F884BB6D48E7
:1027C000008802282DDB00206A4908806A480088BA
:1027D000B0F5C87F2ADA04EB840000EBC41164482A
:1027E00000EB810090ED2D0A64486349098800EBF5
:1027F000810080ED000A04EB840000EBC4115C480A
:1028000000EB810090ED310A5D485B49098800EBDF
:10281000810080ED000A58480088401C5649088015
:1028200004E054480088401C5249088004EB8400AE
:1028300000EBC4114E4800EB810090ED310AF0EE40
:10284000C08AB2EE040AF4EEC08AF1EE10FA03DD9B
:10285000B1EE048A16E084E0B1EE040AF4EEC08A18
:10286000F1EE10FA02DDB0EE088A0BE0B0EE000ADD
:10287000F4EEC08AF1EE10FA02DDB7EE088A01E04C
:102880009FED408A04EB840000EBC411384800EB54
:10289000810090ED2D0AB0EEC09A04EB840000EBAD
:1028A000C411334800EB810090F8600001281CD16E
:1028B00004EB840000EBC4112D4800EB810090ED87
:1028C0002D0AB5EEC00AF1EE10FA09DD04EB840022
:1028D00000EBC411264800EB810090ED2D9A2DE00D
:1028E0009FED290AB0EE409A28E004EB840000EB4B
:1028F000C4111F4800EB810090F8600002281DD130
:1029000004EB840000EBC411194800EB810090ED4A
:102910002D0AB5EEC00AF1EE10FA0BD204EB8400DA
:1029200000EBC411124800EB810090ED2D0AB1EECE
:10293000409A03E09FED140AB0EE409AB4EEC89AB4
:10294000F1EE10FA00DD00BF104890ED000A04EB34
:10295000840000EBC411064800EB810080ED3F0AC3
:1029600000BF641C022CFFF6F4AEBDEC048B10BD5E
:102970002483FF1F7E80FF1F7C80FF1FFC8AFF1FB8
:102980007C97FF1FCDCC4C3F000000007880FF1FDC
:1029900010B500246BE004EB840202EBC413354A4B
:1029A00002EB830202F1F80104EB840202EBC41390
:1029B000304A02EB830202F1E40002F0D2FF01216F
:1029C00004EB840000EBC4122A4800EB820080F87C
:1029D000E410B3EE040A04EB840000EBC4112548B4
:1029E00000EB810080ED3A0A9FED230A04EB84009E
:1029F00000EBC4111F4800EB810080ED3B0A9FED06
:102A00001F0A04EB840000EBC4111A4800EB81009C
:102A100080ED3C0A9FED1A0A04EB840000EBC41120
:102A2000144800EB810080ED3D0A9FED160A04EB8F
:102A3000840000EBC4110F4800EB810080ED460AD2
:102A40009FED0E0A04EB840000EBC411094800EB73
:102A5000810080ED470AB6EE000A04EB840000EB2B
:102A6000C411044800EB810080ED4C0A641C022C68
:102A700091DB10BD2483FF1F0AD7A33C0000000098
:102A80000000FA440080BB4410B500249BE004EB36
:102A9000840000EBC4114E4800EB810090F8F80070
:102AA00000287DD004EB840202EBC413484A02EBF9
:102AB000830292ED401AF0EE410A04EB840202EB2D
:102AC000C413434A02EB830292ED3F1AB0EE410A6F
:102AD00004EB840202EBC4133D4A02EB830202F1D1
:102AE000F80104EB840202EBC413394A02EB8302BF
:102AF00002F1E40002F0C8FE002C57D135480088EE
:102B000005284EDB00203349088033480088B0F5A3
:102B10007A7F4BDA04EB840000EBC4112C4800EB05
:102B2000810090ED3F0A2D482B49098800EB810078
:102B300080ED000A04EB840000EBC411244800EB94
:102B4000810090ED400A26482349098800EB810066
:102B500080ED000A04EB840000EBC4111C4800EB7C
:102B6000810090ED440A1F481B49098800EB810051
:102B700080ED000A04EB840000EBC411144800EB64
:102B8000810090ED480A18481349098800EB81003C
:102B900080ED000A10480088401C0F49088005E0BD
:102BA00010E00C480088401C0A4908800F4890ED4E
:102BB000000A04EB840000EBC411054800EB81001F
:102BC00080ED560A641C022CFFF661AF10BD0000B8
:102BD0002483FF1F8A80FF1F8880FF1FFCA3FF1F25
:102BE0009CB3FF1F3CC3FF1FDCD2FF1F8080FF1F71
:102BF00004460D462A46214602A006F067F800BFAB
:102C0000FEE7000057726F6E6720706172616D653C
:102C1000746572732076616C75653A2066696C65BF
:102C2000202573206F6E206C696E652025640D0A67
:102C30000000000038B50246002300250095D81E8C
:102C400000BF0D4D2D682C4600BF0C4D2D68294648
:102C500089B105E00D6805F08003009D6D1C0095AD
:102C6000009DA54201D8002BF4D013B18A8000202A
:102C700001E06FF0070038BD8882FF1F8482FF1FCC
:102C800008B50D49096AC1F302630C490968D940C6
:102C900041F270731944491EB1FBF3F206E0009251
:102CA00000BF00994B1E00930029FAD1011EA0F12C
:102CB0000100F4D108BD0000004005400080FF1F66
:102CC00008B50C49096AC1F302630B490968D94088
:102CD0000A4B1944491EB1FBF3F206E0009200BF13
:102CE00000994B1E00930029FAD1011EA0F10100AA
:102CF000F4D108BD004005400080FF1F808D5B00BF
:102D000030B587B004460121084600F05DFE03A8F7
:102D100005F0F6F9002003901020049000200590A3
:102D20004CF24F30ADF8180003AA0121274805F0F6
:102D3000ADF801221146254805F052F80122910410
:102D4000224805F04DF94120ADF804000620ADF809
:102D500006001F48029001A801F02CFABDF90600F8
:102D6000002807DB00F01F0101228A4019494309AE
:102D700041F8232000BFBDF906000F21002804DB25
:102D80000A07130E144A135406E00A07150E134AD5
:102D900000F00F031B1FD55400BFBDF9060000282B
:102DA0000DDB00BF00BF00F01F020121914042096E
:102DB000920002F1E022C2F8001100BF00BF00BF84
:102DC0000121024805F05EF907B030BD0040024025
:102DD000C97D000080E200E000E400E018ED00E0C2
:102DE00010B5044600BF0CB1012C00D104E040F244
:102DF000711109A0FFF7FCFE00BF00BF1148006879
:102E0000012800D104E04FF4B97103A0FFF7F0FEF0
:102E100000BF0D48046010BD2E2E5C64726976659B
:102E200072735C686333325F6C6C5F647269766581
:102E3000725C7372635C686333325F6C6C5F65668F
:102E40006D2E6300000401404081204210B504460D
:102E500000BF0CB1012C00D104E040F2631109A0C5
:102E6000FFF7C6FE00BF00BF11480068012800D16F
:102E700004E04FF4B27103A0FFF7BAFE00BF0D48A3
:102E8000046010BD2E2E5C647269766572735C6896
:102E90006333325F6C6C5F6472697665725C737207
:102EA000635C686333325F6C6C5F65666D2E6300D4
:102EB000000401406081204210B5044600BF0F4865
:102EC0000068012800D104E040F21E210CA0FFF7A9
:102ED0008FFE00BF00BF40F23F10204340F23F1181
:102EE000884200D104E040F21F2105A0FFF780FED8
:102EF00000BF02481430046010BD0000000401400F
:102F00002E2E5C647269766572735C686333325F1F
:102F10006C6C5F6472697665725C7372635C686323
:102F200033325F6C6C5F65666D2E630010B50446CE
:102F300000BF0CB1012C00D104E04FF4747103A068
:102F4000FFF756FE00BF0C48046010BD2E2E5C64D7
:102F50007269766572735C686333325F6C6C5F6450
:102F600072697665725C7372635C686333325F6C3E
:102F70006C5F65666D2E63008081204210B504464B
:102F800000BF40F23F10204340F23F11884200D181
:102F900004E04FF4047106A0FFF72AFE00BF0F48BB
:102FA00000682040A04201D1012010BD0020FCE7B4
:102FB0002E2E5C647269766572735C686333325F6F
:102FC0006C6C5F6472697665725C7372635C686373
:102FD00033325F6C6C5F65666D2E630010040140D8
:102FE0002DE9F04104460D4600BF3748006801282E
:102FF00000D104E040F2D22134A0FFF7F9FD00BF78
:1030000000BF3D480068012800D104E040F2D32110
:103010002EA0FFF7EDFD00BF00BFB4F5002F0BD3CE
:103020003648844202D33648844205D93548844222
:1030300003D3B4F1467F00D204E04FF4357123A0EE
:10304000FFF7D6FD00BF00BF04F0030000B904E0A5
:1030500040F2D5211DA0FFF7CBFD00BF40F23F108D
:10306000FFF72AFF184808300068274900EA0106E0
:10307000154808300068C943084013490831086002
:103080000027081D006820F0700040F02000091D96
:1030900008602560384600F0E9F980460A480C309F
:1030A000006820F0700008490C310860081F0068B3
:1030B0001549C9430840C943314008430249083112
:1030C00008604046BDE8F081000401402E2E5C649B
:1030D0007269766572735C686333325F6C6C5F64CF
:1030E00072697665725C7372635C686333325F6CBD
:1030F0006C5F65666D2E630080812042000C0003CA
:10310000FB0F0003E0FF1703000001012DE9F05F52
:1031100004460E4615466FF002092746A8464FF4AE
:10312000807A00BFB4F5002F0BD32B48844202D322
:103130002A48844205D92A48844203D3B4F1467F01
:1031400000D204E040F2462126A0FFF751FD00BF67
:1031500000BF6019401EB0F5002F13D36019401E48
:103160001D49884204D36019401E1C49884209D970
:103170006019401E1A49884205D36019401EB0F1FB
:10318000467F00D204E040F2472116A0FFF730FD51
:1031900000BFF6B11E48006AC0F302611D48006816
:1031A000C84044F62061B0FBF1FB5946504600F0A0
:1031B00044F960B905E017F8010B06F8010BA8F116
:1031C0000108B8F1000FF6D14FF0000901E06FF0EF
:1031D00004094846BDE8F09F000C0003FB0F000304
:1031E000E0FF17032E2E5C647269766572735C686B
:1031F0006333325F6C6C5F6472697665725C7372A4
:10320000635C686333325F6C6C5F65666D2E630070
:10321000004005400080FF1F2DE9F041044600BF3B
:10322000B4F5002F00D204E040F2633134A0FFF780
:10323000DFFC00BF00BF04F0030000B904E04FF45E
:1032400059712FA0FFF7D4FC00BF00BF37480068BA
:10325000012800D104E040F2653129A0FFF7C8FC45
:1032600000BF00BF32480068012800D104E040F2EE
:10327000663123A0FFF7BCFC00BF40F23F10FFF710
:103280001BFE2A48083000682A4900EA0106274840
:1032900008300068C9430840244908310860002705
:1032A000081D006820F0700040F04000091D086013
:1032B000002020602048006AC0F302611F480068B7
:1032C000C8403221B0FBF1F84146384600F094F88E
:1032D000054616480C30006820F0700013490C3188
:1032E0000860081F00681349C9430840C9433140BA
:1032F00008430E49083108602846BDE8F081000007
:103300002E2E5C647269766572735C686333325F1B
:103310006C6C5F6472697665725C7372635C68631F
:1033200033325F6C6C5F65666D2E63000004014094
:103330008081204200000101004005400080FF1F05
:1033400070B50446002500BF1D480068012800D163
:1033500004E040F24F111BA0FFF74AFC00BF00BF82
:10336000F02C00D804E04FF4A87116A0FFF740FC41
:1033700000BF13480830006820F0F00004F0F001AE
:1033800008430F490831086010E06D1C1848006AB6
:10339000C0F3026117480068C84044F62061B0FBE2
:1033A000F1F0A84202D26FF0070070BD0448083067
:1033B000006800F0F000A042E7D10020F5E700002F
:1033C000000401402E2E5C647269766572735C683D
:1033D0006333325F6C6C5F6472697665725C7372C2
:1033E000635C686333325F6C6C5F65666D2E63008F
:1033F000004005400080FF1F70B504460E460025C2
:103400004FF4807101FA04F0314600F016F810F123
:10341000080F00D16D1F75B9102101FA04F0FFF7F4
:10342000ADFD012805D1102101FA04F0FFF744FD9C
:1034300001E04FF0FF35284670BDF8B505460C4653
:1034400000200090002608E00098401C00900098A2
:10345000A04202D96FF0070604E02846FFF78EFD70
:103460000128F1D100BF3046F8BD000070B5044618
:1034700000251B48006AC0F302611A480068C84072
:1034800044F62061B0FBF1F64FF4807101FA04F0CC
:103490003146FFF7D2FF10F1080F00D16D1FEDB9D3
:1034A000082101FA04F0FFF769FD012806D108217F
:1034B00001FA04F0FFF700FD4FF0FF3575B9102158
:1034C00001FA04F0FFF75AFD012805D1102101FA95
:1034D00004F0FFF7F1FC01E04FF0FF35284670BD26
:1034E000004005400080FF1F70B504460D460CB13A
:1034F000207B38B900BF06A207A1002002F01AFD08
:1035000000BF70BD2068A843206000BFF9E700003D
:103510004552524F520000001B5B33316D5B2573E7
:103520005D204576656E7447726F757020636C65BB
:1035300061723A20696E76616C69642067726F759A
:10354000701B5B306D0D0A0038B505461DB128466D
:10355000FCF702FF40B900BF27A229A1002002F01A
:10356000E9FC00BF002038BD284600F0BDF848B196
:1035700000BF2B4620A22EA1002002F0DBFC00BFE2
:103580000020F0E700242CE0384800EB4410007BDA
:10359000002825D1354901EB44102021FCF7C5FE58
:1035A0000120324901EB44110873304901EB441109
:1035B00001F10D000F222946FCF7C2FE00212B4825
:1035C00000EB4410017700BF234629A22AA1002066
:1035D000009502F0AFFC00BF244800EB4410C2E7A6
:1035E000641C202CD0DB00BF03A231A1002002F01C
:1035F000A1FC00BF0020B6E74552524F5200000028
:103600001B5B33316D5B25735D204576656E7447BA
:10361000726F7570206372656174653A206E616DBA
:1036200065206973204E554C4C1B5B306D0D0A00B4
:103630001B5B33316D5B25735D204576656E74478A
:10364000726F7570206372656174653A206E616D8A
:103650006520616C72656164792065786973747343
:1036600020282573291B5B306D0D0A0068AC0020F3
:10367000494E464F000000001B5B33326D5B2573E3
:103680005D204576656E7447726F75702063726554
:10369000617465204F4B20286964783A25642C209A
:1036A0006E616D653A2573291B5B306D0D0A000054
:1036B0001B5B33316D5B25735D204576656E74470A
:1036C000726F757020637265617465206661696CE4
:1036D00065643A206E6F20667265652067726F754B
:1036E000701B5B306D0D0A0070B505461DB1284694
:1036F000FCF732FE08B9002070BD002413E00C482E
:1037000000EB4410007B68B1094901EB441101F161
:103710000D0010222946FCF741FE18B9044800EBC1
:103720004410E9E7641C202CE9DB0020E4E70000FA
:1037300068AC002010B504460CB1207B40B900BF36
:1037400004A206A1002002F0F5FB00BF002010BD7E
:103750002068FCE74552524F520000001B5B33319A
:103760006D5B25735D204576656E7447726F75706D
:10377000206765743A20696E76616C6964206772AF
:103780006F75701B5B306D0D0A0000002DE9F0476E
:1037900004460E461746984614B1207B00B14EB938
:1037A00000BF1BA21CA1002002F0C4FB00BF002030
:1037B000BDE8F087207A20B908F0BCFB60600121E9
:1037C0002172D4F8009009EA0605012F06D17DB1D7
:1037D00029462046FFF788FE2846E9E7022F07D151
:1037E000B54205D131462046FFF77EFE2846DFE789
:1037F00008F1010050B108F09DFB82466068AAEB19
:103800000000404501D30020D2E700BF0020CFE7F1
:103810004552524F520000001B5B33316D5B2573E4
:103820005D204576656E7447726F757020726563B2
:10383000763A20696E76616C696420706172616DA0
:103840001B5B306D0D0A000070B504460D460CB1CF
:10385000207B38B900BF06A207A1002002F06AFB56
:1038600000BF70BD20682843206000BFF9E700005A
:103870004552524F520000001B5B33316D5B257384
:103880005D204576656E7447726F75702073656E46
:10389000643A20696E76616C69642067726F757036
:1038A0001B5B306D0D0A000070B504460D4600BF6D
:1038B0002CB1174820431649884200D103E07121FA
:1038C00014A0FFF795F900BF00BF0DB1012D00D185
:1038D00003E072210FA0FFF78BF900BF00BF18486B
:1038E000006900F0010000B103E0732109A0FFF7B7
:1038F0007FF900BF012D05D111480068A043104990
:10390000086004E00E48006820430D49086070BD5F
:1039100011C5F38F2E2E5C647269766572735C68D4
:103920006333325F6C6C5F6472697665725C73726C
:10393000635C686333325F6C6C5F6663672E630041
:103940000080044070B504460D4600BF2CB11148FC
:1039500020431049884200D103E084210EA0FFF7E4
:1039600047F900BF00BF0DB1012D00D103E0852153
:1039700009A0FFF73DF900BF012D05D111484068AE
:10398000A0431049486004E00E48406820430D49B8
:10399000486070BD79FD0F0F2E2E5C6472697665EC
:1039A00072735C686333325F6C6C5F6472697665F6
:1039B000725C7372635C686333325F6C6C5F666306
:1039C000672E63000080044070B504460D4600BFBA
:1039D0002CB1114820431049884200D103E09621C0
:1039E0000EA0FFF705F900BF00BF0DB1012D00D1FA
:1039F00003E0972109A0FFF7FBF800BF012D05D1D7
:103A000011488068A0431049886004E00E4880682F
:103A100020430D49886070BDFF8707002E2E5C642F
:103A20007269766572735C686333325F6C6C5F6475
:103A300072697665725C7372635C686333325F6C63
:103A40006C5F6663672E63000080044070B50446B7
:103A50000D4600BF3CB141F20310204341F2031177
:103A6000884200D103E0A8210DA0FFF7C1F800BFF4
:103A700000BF0DB1012D00D103E0A92108A0FFF77F
:103A8000B7F800BF012D05D11048C068A0430F4909
:103A9000C86004E00D48C06820430C49C86070BD90
:103AA0002E2E5C647269766572735C686333325F74
:103AB0006C6C5F6472697665725C7372635C686378
:103AC00033325F6C6C5F6663672E63000080044076
:103AD0002DE9F04104460D46904600BF2548008878
:103AE00000F0010000B104E040F2812122A0FFF7C4
:103AF0007FF800BF00BF4CB1012C07D0022C05D0CD
:103B0000032C03D0042C01D0052C00D104E040F29A
:103B1000822119A0FFF76CF800BF00BF15B1A8B251
:103B200000B104E040F2832113A0FFF761F800BF69
:103B3000002719E005F0010088B10E48001D00EBD8
:103B4000841000EB8706B8F1010F04D1308840F4EF
:103B50000040308003E03088C0F30E0030806D10EC
:103B600005B903E0781CC7B2102FE3D300BFBDE84E
:103B7000F0810000FC3B05402E2E5C647269766586
:103B800072735C686333325F6C6C5F647269766514
:103B9000725C7372635C686333325F6C6C5F677016
:103BA000696F2E63000000002DE9F05F05460E46A8
:103BB00014464FF0000B14B96FF0020BD9E000BFB0
:103BC0006D48008800F0010000B104E04FF48071FE
:103BD0006AA0FFF70DF800BF00BF4DB1012D07D05F
:103BE000022D05D0032D03D0042D01D0052D00D1C9
:103BF00004E040F2011161A0FEF7FAFF00BF00BF30
:103C000016B1B0B200B104E04FF481715BA0FEF7D1
:103C1000EFFF00BF00BF208810B12088012800D12D
:103C200004E040F2031155A0FEF7E2FF00BF00BF21
:103C3000608810B16088022800D104E04FF48271DE
:103C40004EA0FEF7D5FF00BF00BFA08810B1A0882E
:103C5000042800D104E040F2051148A0FEF7C8FF97
:103C600000BF00BFE08828B1E088102802D0E088BB
:103C7000202800D104E04FF4837140A0FEF7B8FF84
:103C800000BF00BF208918B12089B0F5804F00D156
:103C900004E040F2071139A0FEF7AAFF00BF00BF01
:103CA000608910B16089402800D104E04FF484712C
:103CB00032A0FEF79DFF00BF00BFA08918B1A08908
:103CC000B0F5007F00D104E040F209112BA0FEF70F
:103CD0008FFF00BF00BFE08918B1E089B0F5805FB9
:103CE00000D104E04FF4857124A0FEF781FF00BFEE
:103CF00000BF208A18B1208AB0F5004F00D104E03F
:103D000040F20B111DA0FEF773FF00BF00272DE04E
:103D100006F0010028B3208861880843A188084381
:103D2000E188084361890843A1890843E189084380
:103D3000218940EA010A45F27728208A40EA0A0AE6
:103D400048F400480C48001D00EB851000EB870983
:103D5000B9F8000020EA08000AEA08010843A9F8B7
:103D60000000761006B903E0781CC7B2102FCFD33D
:103D700000BF5846BDE8F09FFC3B05402E2E5C641A
:103D80007269766572735C686333325F6C6C5F6412
:103D900072697665725C7372635C686333325F6C00
:103DA0006C5F6770696F2E630000000070B5044699
:103DB0000D4600BF4CB1012C07D0022C05D0032CBE
:103DC00003D0042C01D0052C00D104E04FF4FF7186
:103DD0000CA0FEF70DFF00BF00BF15B1A8B200B1E7
:103DE00004E040F2FF1107A0FEF702FF00BF1149F7
:103DF00001EB0410B0F80008284008B1012070BDA4
:103E00000020FCE72E2E5C647269766572735C6834
:103E10006333325F6C6C5F6472697665725C737277
:103E2000635C686333325F6C6C5F6770696F2E63CD
:103E3000000000000030054070B504460D4600BF8C
:103E40004CB1012C07D0022C05D0032C03D0042C3C
:103E500001D0052C00D104E040F24A210BA0FEF76E
:103E6000C7FE00BF00BF15B1A8B200B104E040F228
:103E70004B2106A0FEF7BCFE00BF1048102101FB3D
:103E8000040630882843308070BD00002E2E5C640C
:103E90007269766572735C686333325F6C6C5F6401
:103EA00072697665725C7372635C686333325F6CEF
:103EB0006C5F6770696F2E63000000000A38054070
:103EC00070B504460D4600BF24B144F01F001F2802
:103ED00000D104E04FF4B27118A0FEF789FE00BFD4
:103EE00000BF0DB1012D00D104E040F2651113A017
:103EF000FEF77EFE00BF00BF1C48008800F00100F6
:103F000000B104E04FF4B3710CA0FEF771FE00BFE6
:103F1000012D09D115480838008804F01F01084315
:103F200012490839088008E010480838008804F071
:103F30001F0188430D490839088070BD2E2E5C642E
:103F40007269766572735C686333325F6C6C5F6450
:103F500072697665725C7372635C686333325F6C3E
:103F60006C5F6770696F2E6300000000FC3B0540CA
:103F70002DE9F04104460D46164600BF4CB1012C18
:103F800007D0022C05D0032C03D0042C01D0052C23
:103F900000D104E04FF4BE7124A0FEF729FE00BF5B
:103FA00000BF15B1A8B200B104E040F27D111FA01E
:103FB000FEF71EFE00BF00BF0F2E03D9202E02D336
:103FC0003B2E00D804E04FF4BF7118A0FEF710FE9E
:103FD00000BF00BF2148008800F0010000B104E0EC
:103FE00040F27F1111A0FEF703FE00BF002717E08B
:103FF00005F0010078B11948801D00EB841000EB3A
:104000008708B8F800004FF6C071084006F03F017D
:104010000843A8F800006D1005B903E0781CC7B28A
:10402000102FE5D300BFBDE8F08100002E2E5C64A8
:104030007269766572735C686333325F6C6C5F645F
:1040400072697665725C7372635C686333325F6C4D
:104050006C5F6770696F2E6300000000FC3B0540D9
:1040600070B504460D4600BF4CB1012C07D0022CA0
:1040700005D0032C03D0042C01D0052C00D104E082
:104080004FF40E710BA0FEF7B3FD00BF00BF15B1DA
:10409000A8B200B104E040F2392106A0FEF7A8FD65
:1040A00000BF1048102101FB0406308828433080EF
:1040B00070BD00002E2E5C647269766572735C6858
:1040C0006333325F6C6C5F6472697665725C7372C5
:1040D000635C686333325F6C6C5F6770696F2E631B
:1040E000000000000838054010B5044600BF44B188
:1040F000B4F5804F05D0B4F5004F02D0B4F5404F71
:1041000000D104E04FF4ED710EA0FEF771FD00BF89
:1041100000BF1848008800F0010000B104E040F240
:10412000DB1108A0FEF764FD00BF1248001F0088E5
:10413000C0F30D0004F4404108430E49091F0880F4
:1041400010BD00002E2E5C647269766572735C6827
:104150006333325F6C6C5F6472697665725C737234
:10416000635C686333325F6C6C5F6770696F2E638A
:1041700000000000FC3B05400146002009B9C01EBC
:1041800009E000220A804A80CA800A820A814A81A4
:104190008A81CA818A80704770B505460C461DB970
:1041A0002046FEF7ADFD01E0002070BD00BF0120FC
:1041B000FBE7000070B5044600260CB9F61E4BE084
:1041C00000BF2088B0F5007F00DA03E0CD2123A0F6
:1041D000FEF70EFD00BF2088400900EB40002021C3
:1041E00001EB4000B4F9021088420AD82088400947
:1041F00000EB4000252101EB4000B4F90210884299
:1042000006D2B4F90200202802D36FF0020623E0A0
:1042100060881F49042212FB00152868C0F30800BB
:1042200040F2FF11884208D120882860B4F90210BA
:10423000184A606842F821000EE020882968C1F31E
:104240000801884206D1B4F90210124A606842F8A7
:10425000210001E06FF00106304670BD2E2E5C6437
:104260007269766572735C686333325F6C6C5F642D
:1042700072697665725C7372635C686333325F6C1B
:104280006C5F696E74657272757074732E63000072
:104290005C10054014B5002010B50349086880473C
:1042A000BFF34F8F10BD000014B5002010B50349B7
:1042B00048688047BFF34F8F10BD000014B5002041
:1042C00010B5034988688047BFF34F8F10BD0000C9
:1042D00014B5002010B50349C8688047BFF34F8F5D
:1042E00010BD000014B5002010B5034908698047CF
:1042F000BFF34F8F10BD000014B5002010B5034967
:1043000048698047BFF34F8F10BD000014B50020EF
:1043100010B5034988698047BFF34F8F10BD000077
:1043200014B5002010B50349C8698047BFF34F8F0B
:1043300010BD000014B5002010B50349086A80477D
:10434000BFF34F8F10BD000014B5002010B5034916
:10435000486A8047BFF34F8F10BD000014B500209E
:1043600010B50349886A8047BFF34F8F10BD000026
:1043700014B5002010B50349C86A8047BFF34F8FBA
:1043800010BD000014B5002010B50349086B80472C
:10439000BFF34F8F10BD000014B5002010B50349C6
:1043A000486B8047BFF34F8F10BD000014B500204D
:1043B00010B50349886B8047BFF34F8F10BD0000D5
:1043C00014B5002010B50349C86B8047BFF34F8F69
:1043D00010BD000014B5002010B50349086C8047DB
:1043E000BFF34F8F10BD000014B5002010B5034976
:1043F000486C8047BFF34F8F10BD000014B50020FC
:1044000010B50349886C8047BFF34F8F10BD000083
:1044100014B5002010B50349C86C8047BFF34F8F17
:1044200010BD000014B5002010B50349086D804789
:10443000BFF34F8F10BD000014B5002010B5034925
:10444000486D8047BFF34F8F10BD000014B50020AA
:1044500010B50349886D8047BFF34F8F10BD000032
:1044600014B5002010B50349C86D8047BFF34F8FC6
:1044700010BD000014B5002010B50349086E804738
:10448000BFF34F8F10BD000014B5002010B50349D5
:10449000486E8047BFF34F8F10BD000014B5002059
:1044A00010B50349886E8047BFF34F8F10BD0000E1
:1044B00014B5002010B50349C86E8047BFF34F8F75
:1044C00010BD000014B5002010B50349086F8047E7
:1044D000BFF34F8F10BD000014B5002010B5034985
:1044E000486F8047BFF34F8F10BD000014B5002008
:1044F00010B50349886F8047BFF34F8F10BD000090
:1045000014B5002010B50349C86F8047BFF34F8F23
:1045100010BD000014B5002010B50349D1F880008B
:104520008047BFF34F8F10BD14B5002010B503496D
:10453000D1F884008047BFF34F8F10BD14B5002021
:1045400010B50349D1F888008047BFF34F8F10BDE5
:1045500014B5002010B50349D1F88C008047BFF393
:104560004F8F10BD14B5002010B50349D1F890004D
:104570008047BFF34F8F10BD14B5002010B503491D
:10458000D1F894008047BFF34F8F10BD14B50020C1
:1045900010B50349D1F898008047BFF34F8F10BD85
:1045A00014B5002010B50349D1F89C008047BFF333
:1045B0004F8F10BD14B5002010B50349D1F8A000ED
:1045C0008047BFF34F8F10BD14B5002010B50349CD
:1045D000D1F8A4008047BFF34F8F10BD14B5002061
:1045E00010B50349D1F8A8008047BFF34F8F10BD25
:1045F00014B5002010B50349D1F8AC008047BFF3D3
:104600004F8F10BD14B5002010B50349D1F8B0008C
:104610008047BFF34F8F10BD14B5002010B503497C
:10462000D1F8B4008047BFF34F8F10BD14B5002000
:1046300010B50349D1F8B8008047BFF34F8F10BDC4
:1046400014B5002010B50349D1F8BC008047BFF372
:104650004F8F10BD14B5002010B50349D1F8C0002C
:104660008047BFF34F8F10BD14B5002010B503492C
:10467000D1F8C4008047BFF34F8F10BD14B50020A0
:1046800010B50349D1F8C8008047BFF34F8F10BD64
:1046900014B5002010B50349D1F8CC008047BFF312
:1046A0004F8F10BD14B5002010B50349D1F8D000CC
:1046B0008047BFF34F8F10BD14B5002010B50349DC
:1046C000D1F8D4008047BFF34F8F10BD14B5002040
:1046D00010B50349D1F8D8008047BFF34F8F10BD04
:1046E00014B5002010B50349D1F8DC008047BFF3B2
:1046F0004F8F10BD14B5002010B50349D1F8E0006C
:104700008047BFF34F8F10BD14B5002010B503498B
:10471000D1F8E4008047BFF34F8F10BD14B50020DF
:1047200010B50349D1F8E8008047BFF34F8F10BDA3
:1047300014B5002010B50349D1F8EC008047BFF351
:104740004F8F10BD14B5002010B50349D1F8F0000B
:104750008047BFF34F8F10BD14B5002010B503493B
:10476000D1F8F4008047BFF34F8F10BD14B500207F
:1047700010B50349D1F8F8008047BFF34F8F10BD43
:1047800014B5002010B50349D1F8FC008047BFF3F1
:104790004F8F10BD14B5002010B50349D1F80001AA
:1047A0008047BFF34F8F10BD14B5002010B50349EB
:1047B000D1F804018047BFF34F8F10BD14B500201E
:1047C00010B50349D1F808018047BFF34F8F10BDE2
:1047D00014B5002010B50349D1F80C018047BFF390
:1047E0004F8F10BD14B5002010B50349D1F810014A
:1047F0008047BFF34F8F10BD14B5002010B503499B
:10480000D1F814018047BFF34F8F10BD14B50020BD
:1048100010B50349D1F818018047BFF34F8F10BD81
:1048200014B5002010B50349D1F81C018047BFF32F
:104830004F8F10BD14B5002010B50349D1F82001E9
:104840008047BFF34F8F10BD14B5002010B503494A
:10485000D1F824018047BFF34F8F10BD14B500205D
:1048600010B50349D1F828018047BFF34F8F10BD21
:1048700014B5002010B50349D1F82C018047BFF3CF
:104880004F8F10BD14B5002010B50349D1F8300189
:104890008047BFF34F8F10BD14B5002010B50349FA
:1048A000D1F834018047BFF34F8F10BD14B50020FD
:1048B00010B50349D1F838018047BFF34F8F10BDC1
:1048C00014B5002010B50349D1F83C018047BFF36F
:1048D0004F8F10BD14B5002010B50349D1F8400129
:1048E0008047BFF34F8F10BD14B5002010B50349AA
:1048F000D1F844018047BFF34F8F10BD14B500209D
:1049000010B50349D1F848018047BFF34F8F10BD60
:1049100014B5002010B50349D1F84C018047BFF30E
:104920004F8F10BD14B5002010B50349D1F85001C8
:104930008047BFF34F8F10BD14B5002010B5034959
:10494000D1F854018047BFF34F8F10BD14B500203C
:1049500010B50349D1F858018047BFF34F8F10BD00
:1049600014B5002010B50349D1F85C018047BFF3AE
:104970004F8F10BD14B5002010B50349D1F8600168
:104980008047BFF34F8F10BD14B5002010B5034909
:10499000D1F864018047BFF34F8F10BD14B50020DC
:1049A00010B50349D1F868018047BFF34F8F10BDA0
:1049B00014B5002010B50349D1F86C018047BFF34E
:1049C0004F8F10BD14B5002010B50349D1F8700108
:1049D0008047BFF34F8F10BD14B5002010B50349B9
:1049E000D1F874018047BFF34F8F10BD14B500207C
:1049F00010B50349D1F878018047BFF34F8F10BD40
:104A000014B5002010B50349D1F87C018047BFF3ED
:104A10004F8F10BD14B5002010B50349D1F88001A7
:104A20008047BFF34F8F10BD14B5002010B5034968
:104A3000D1F884018047BFF34F8F10BD14B500201B
:104A400010B50349D1F888018047BFF34F8F10BDDF
:104A500014B5002010B50349D1F88C018047BFF38D
:104A60004F8F10BD14B5002010B50349D1F8900147
:104A70008047BFF34F8F10BD14B5002010B5034918
:104A8000D1F894018047BFF34F8F10BD14B50020BB
:104A900010B50349D1F898018047BFF34F8F10BD7F
:104AA00014B5002010B50349D1F89C018047BFF32D
:104AB0004F8F10BD14B5002010B50349D1F8A001E7
:104AC0008047BFF34F8F10BD14B5002010B50349C8
:104AD000D1F8A4018047BFF34F8F10BD14B500205B
:104AE00010B50349D1F8A8018047BFF34F8F10BD1F
:104AF00014B5002010B50349D1F8AC018047BFF3CD
:104B00004F8F10BD14B5002010B50349D1F8B00186
:104B10008047BFF34F8F10BD14B5002010B5034977
:104B2000D1F8B4018047BFF34F8F10BD14B50020FA
:104B300010B50349D1F8B8018047BFF34F8F10BDBE
:104B400014B5002010B50349D1F8BC018047BFF36C
:104B50004F8F10BD14B5002010B50349D1F8C00126
:104B60008047BFF34F8F10BD14B5002010B5034927
:104B7000D1F8C4018047BFF34F8F10BD14B500209A
:104B800010B50349D1F8C8018047BFF34F8F10BD5E
:104B900014B5002010B50349D1F8CC018047BFF30C
:104BA0004F8F10BD14B5002010B50349D1F8D001C6
:104BB0008047BFF34F8F10BD14B5002010B50349D7
:104BC000D1F8D4018047BFF34F8F10BD14B500203A
:104BD00010B50349D1F8D8018047BFF34F8F10BDFE
:104BE00014B5002010B50349D1F8DC018047BFF3AC
:104BF0004F8F10BD14B5002010B50349D1F8E00166
:104C00008047BFF34F8F10BD14B5002010B5034986
:104C1000D1F8E4018047BFF34F8F10BD14B50020D9
:104C200010B50349D1F8E8018047BFF34F8F10BD9D
:104C300014B5002010B50349D1F8EC018047BFF34B
:104C40004F8F10BD14B5002010B50349D1F8F00105
:104C50008047BFF34F8F10BD14B5002010B5034936
:104C6000D1F8F4018047BFF34F8F10BD14B5002079
:104C700010B50349D1F8F8018047BFF34F8F10BD3D
:104C800014B5002010B50349D1F8FC018047BFF3EB
:104C90004F8F10BD14B5002070B50446002512E0FA
:104CA000665D062E01DB002070BD06EB860101EB80
:104CB000C601074A02EB810000F022F808B9002083
:104CC000F2E7681CC5B2207AA842E9DC0120EBE7D4
:104CD0003889FF1F10B586B0044601A8FFF74CFACB
:104CE0000020ADF80600207A10B94020ADF80E0083
:104CF000A28891B2207801AAFEF756FF06B010BD37
:104D000030B501464868037A002200200CE00C7898
:104D100004EB8404084D05EB4404245C9C4201D15F
:104D2000541CE2B2441CE0B20A28F0DB0A2A01DB80
:104D3000012030BD0020FCE7FC88FF1F70B5002576
:104D40003DE005EB850000EBC5001E4901EB80044A
:104D5000257005EB45001C4901EB800060600020D8
:104D600084F82600206384F8240084F82500606815
:104D7000FFF7B0FF1548A0600421A181144921610B
:104D80000421A1820021216204F1080001F0FEFC4F
:104D900000200DE06168097A09B9012100E00021D5
:104DA00005EB85020B4B03EB42021154411CC8B2C8
:104DB0000A28EFDB002008494855681CC5B2062DBB
:104DC000BFDB70BD3889FF1FD0DC000070DC000045
:104DD000A0DC0000FC88FF1F4080FF1F7FB5044659
:104DE0000D4616460020009001900290039000941A
:104DF00001958DF8086001F0A9FF039002231022AD
:104E000069463D2000F0FEFB7FBD000010B5214C3F
:104E1000214820602720A0802048A0600E20A0818B
:104E20000120A061204601F0B1FC01F039FC1C49D1
:104E3000086001F035FC1B49086001F031FC1A499B
:104E4000086001F02DFC194908601548006820B180
:104E500017491348006801F057FC1248006820B158
:104E600014491048006801F04FFC0F48006820B159
:104E700011490D48006801F047FC0C48006820B15A
:104E80000E490A48006801F03FFC0D493D2000F042
:104E90004BFC10BD708AFF1F18DD0000ECDE000027
:104EA0005080FF1F5480FF1F5880FF1F5C80FF1F32
:104EB000B5880000C9880000DD880000F188000086
:104EC000316A000010B51448047C052C06D0062C6D
:104ED00005D00B2C0FD00C2C1AD10DE000BF0F48C1
:104EE000007838B90D48407820B94FF480710A48ED
:104EF00001F052FC0DE000BF0848007838B90748BF
:104F0000407820B94FF48031034801F045FC00E0BF
:104F100000BF00BF10BD0000708AFF1F4C80FF1F44
:104F2000F8B501F013FF06460027002428E004EB43
:104F3000840202EBC402634B03EB82025268928844
:104F400091B204EB840202EBC40203EB82025268CA
:104F50001078FEF72BFF054604EB84005A4901EB5D
:104F600040005A49095D45545848005D401C0A21DB
:104F7000B0FBF1F201FB120054490855601CC4B2A9
:104F8000062CD4DB002427E004EB4400504901EB5D
:104F9000C0052846FFF780FEC0B101274D4850F8F4
:104FA0002400E968884207D24A4850F82400401C8F
:104FB000484941F824000DE00222D5E90401FFF739
:104FC0000DFF0020434941F8240003E0002041493F
:104FD00041F82400601CC4B2002CD5D00020009001
:104FE0006AE09DF8000000EB800101EBC00035494C
:104FF00001EB80042046FFF783FE84F824001FB1F4
:10500000012084F8260002E0002084F8260094F8AD
:10501000240094F8251088422BD014F8240F6070D7
:1050200014F8240940B1A66200202063002104F195
:10503000080001F0B1FB1CE0E662012104F1080068
:1050400001F0AAFB94F8260068B9D4E90A10451AC1
:1050500060684089A84205D9012269469DF8000090
:10506000FFF7BCFE00BF032269469DF80000FFF772
:10507000B5FEA06902281AD194F82400B8B194F8BA
:105080002600A0B9206B401C206361684989206B11
:1050900088420CD3022104F1080001F07DFB0020BE
:1050A0002063022269469DF80000FFF797FE9DF8F5
:1050B0000000401CC0B200909DF80000062890DB64
:1050C000F8BD00003889FF1FFC88FF1F4080FF1FCC
:1050D00058DC00004880FF1F30B5034618480078B0
:1050E000834200DA09B9002030BD086810B10868B1
:1050F000007908B90020F7E7C3EBC300114C04EBBB
:10510000C00292F8350088B192F8240003280DD12E
:10511000D0680C68A04209D1107C0C79A04205D15E
:1051200054698868844201D10120DDE791E83100AB
:10513000C2E907459061012082F8240000BFD3E74F
:10514000CFE000008C8AFF1F70B505460C460CB9F5
:10515000002070BD0DB90020FBE7002020606060DA
:10516000A06000211EE001EB4100144A52F820002B
:105170002840A84214D101EB410002EB80000079E5
:10518000207001EB410002EB80004079607001EB80
:10519000410002EB80008068606001202072D8E747
:1051A000481CC1B21829DED32146284606F0B4F9BE
:1051B00008B10120CDE70020CBE7000094DF00001C
:1051C0000146162901DB0020704701EB4100024A2D
:1051D00002EB8000F8E70000ACE1000070B500F0E1
:1051E00059F800252EE0C5EBC500194901EBC004B4
:1051F00005EB8500174901EB40000168216041681B
:105200006160008920810020E06020616061A06110
:10521000E061206284F8240084F82500A062E06246
:10522000206384F8340084F8350084F8360084F86C
:105230003700204606F0B0FC0021204606F036FD7F
:10524000681CC5B2044800788542CCDB70BD000004
:105250008C8AFF1FB4E00000CFE0000070B5054667
:105260000A480078854200DB70BDC5EBC5000849DF
:1052700001EBC004002084F83600012084F83400DB
:1052800001F064FDA06200BFEEE70000CFE0000087
:105290008C8AFF1F7047000010B50446064800784E
:1052A000844200DB10BDC4EBC401044A02EBC10020
:1052B00006F0ECFC00BFF5E7CFE000008C8AFF1F92
:1052C0002DE9F04101F042FD05461E480068281A0C
:1052D0000A2801D2BDE8F0811A48056000262AE0BC
:1052E000C6EBC600184901EBC00494F8240001285D
:1052F00002D1204606F071FC94F8350028B194F8EC
:10530000340010B194F8360000B112E0E06800B942
:105310000FE0E068006894F8251000EB8108A06AAF
:105320002F1AB8F80000B84202D8204606F070FCE8
:1053300000BF701CC6B2054800788642D0DB00BFB3
:10534000C8E700007080FF1F8C8AFF1FCFE00000BD
:1053500010B5044604F0010048B100BF40F223102C
:105360001A49086043F21020086000BF00BF04F033
:10537000020028B100BF16481649086100BF00BFEF
:1053800004F0040030B100BF4AF201501249088015
:1053900000BF00BF04F0100018B14AF2085000F03E
:1053A000C7FB04F0400018B14AF2035000F0C0FB04
:1053B00004F0800040B100BF772008490860074929
:1053C0000831086000BF00BF10BD000000040140AC
:1053D0000100A5A500800440FC3B054004080540F1
:1053E00010B5044604F0010028B100BF002019499F
:1053F000086000BF00BF04F0020028B100BF1648DB
:105400001649086100BF00BF04F0040030B100BFBE
:105410004FF425401249088000BF00BF04F010007F
:1054200018B14AF2085000F075FB04F0400018B1C2
:105430004AF2035000F06EFB04F0800040B100BF60
:1054400076200849086007490831086000BF00BF9E
:1054500010BD0000000401400000A5A5008004402C
:10546000FC3B05400408054010B500F0F7FC10BDFA
:1054700070B504462546074828601420A8800648D1
:10548000A8600620A8810020A861284601F07EF9C6
:1054900070BD0000E0EC0000D0ED000070B50446E7
:1054A00084210859FEF746F90546202D22D006DC56
:1054B000042D09D0082D12D0102D47D125E0402D04
:1054C0002ED0802D42D136E0042104F1680001F095
:1054D00063F9842108590421FEF706F837E0082112
:1054E00004F1680001F058F9842108590821FDF7FA
:1054F000FBFF2CE0202104F1680001F04DF984212C
:1055000008592021FDF7F0FF21E0102104F1680087
:1055100001F042F9842108591021FDF7E5FF16E05A
:10552000402104F1680001F037F984210859402135
:10553000FDF7DAFF0BE0802104F1680001F02CF99F
:10554000842108598021FDF7CFFF00E000BF00BF94
:1055500070BD000010B500200749A1F8C000C421AB
:105560000548FAF7E2FE00BF102304A205A10020BF
:1055700000F0E0FC00BF10BD68B00020494E464F6F
:10558000000000001B5B33326D5B25735D204D73A3
:10559000672050756253756220696E6974204F4BA5
:1055A0002C206D6178207375627363726962653A4D
:1055B0002025641B5B306D0D0A00000010B502460B
:1055C0000B46002117E001EB41000D4C04EB80007D
:1055D000007A70B101EB410054F82000904208D1EC
:1055E00001EB410004EB80004068984201D10120AA
:1055F00010BD481C81B21029E5DB0020F8E700004F
:1056000068B000202DE9F84305460F4690461E4637
:105610004FF00009022E09DD00BF2B462AA22C49BB
:105620000020009600F086FC00BF022600243BE02C
:1056300004EB4400274901EB8000007A88B304EBB7
:10564000440051F82000A8422BD14FF0010904EB8F
:10565000440001EB80004068B8B900BF2B461EA291
:105660001F490020009400F065FC00BF002004EBFF
:105670004401184A02EB810108721046B0F8C000DC
:10568000401E1146A1F8C0000CE004EB4400114993
:1056900001EB8000334642463946D0F804C0284624
:1056A000E04700BF601C84B2102CC1DBB9F1000FD1
:1056B00007D100BF2B460BA20CA1002000F03AFC42
:1056C00000BFBDE8F88300005741524E00000000C3
:1056D0008CF5000068B000204552524F5200000087
:1056E000D0F5000044454255470000001B5B3336AF
:1056F0006D5B25735D204D7367205075626C697317
:10570000683A206E6F2073756273637269626572A6
:105710002028746F7069633A307825303458291B1B
:105720005B306D0D0A000000F8B505460E464EB917
:1057300000BF2B462CA22EA1002000F0FBFB00BFD7
:105740000120F8BD31462846FFF738FF48B100BFB9
:105750002B4637A23849002000F0ECFB00BF0120A7
:10576000EFE73648B0F8C000102809DB00BF2B4631
:105770001DA23349002000F0DDFB00BF0120E0E75F
:1057800000242DE004EB44002C4901EB8000007A5A
:1057900020BB04EB440041F8205004EB440001EB33
:1057A00080004660012004EB4401244A02EB8101A1
:1057B00008721046B0F8C000401C1146A1F8C000A5
:1057C00000BF0846B0F8C0002B461EA21FA10090E3
:1057D000002000F0AFFB00BF0020B2E7601C84B2E5
:1057E000102CCFDB0120ACE74552524F5200000095
:1057F0001B5B33316D5B25735D204D7367205375E3
:10580000627363726962653A2063616C6C626163A2
:105810006B206973204E554C4C2028746F7069635F
:105820003A307825303458291B5B306D0D0A000062
:105830005741524E0000000004F5000068B00020FF
:1058400048F50000494E464F000000001B5B333214
:105850006D5B25735D204D736720537562736372B2
:105860006962653A20746F7069632030782530343E
:1058700058204F4B2028746F74616C3A2564291BA3
:105880005B306D0D0A00000070B52DED028B0546F2
:105890000C46B0EE408AF0EE608A84ED018AC4EDD9
:1058A000028A38EE680A84ED0A0A287810B10128C5
:1058B0000ED106E02146284600F059F884ED060A8C
:1058C0000BE02146284600F029F884ED060A04E0A2
:1058D0009FED110ABDEC028B70BD00BF94ED060A6E
:1058E000D4ED090AB4EEE00AF1EE10FA04D294ED18
:1058F000090A84ED060A0CE094ED060AD4ED080AC4
:10590000B4EEE00AF1EE10FA03DD94ED080A84ED3E
:10591000060A94ED060ADDE70000000091ED0A0A90
:1059200091ED0B1A30EE410A90ED011A20EE010ABA
:1059300090ED021AD1ED0A1A01EE210AF0EE400AAA
:1059400091ED060A30EE200A81ED060A91ED0B0A70
:1059500081ED0C0A91ED0A0A81ED0B0A91ED060A20
:10596000704700B50246084600F05AF800BD70B511
:105970002DED068B05460C4694ED0D0AD4ED0A0A72
:1059800030EE200A84ED0D0A95ED040A10EE101A8F
:105990000846FAF712FD41EC180B94ED0D0A10EED3
:1059A000101A0846FAF709FD41EC1A0BB0EE4A0A44
:1059B000F0EE6A0A03F09AF9B0EE409AF0EE609ABF
:1059C00053EC182B51EC190BFAF742FD14D2D5ED1C
:1059D000040A94ED0D0AB5EEC00AF1EE10FA01DDED
:1059E000012001E04FF0FF3000EE100AB8EEC00ACF
:1059F00020EE800A84ED0D0A95ED010AD4ED0A0A25
:105A000020EE200AD5ED020A94ED0D1A00EE810A6F
:105A100084ED060A94ED060ABDEC068B70BD00000D
:105A20009FED0C0A80ED010A9FED0A0A80ED020A43
:105A30009FED080A80ED0A0A9FED060A80ED0B0A29
:105A40009FED040A80ED0D0A9FED020A80ED060A23
:105A500070470000000000009FED0A0A80ED0A0A6E
:105A60009FED080A80ED0B0A9FED060A80ED0C0AF7
:105A70009FED040A80ED0D0A9FED020A80ED060AF3
:105A8000704700000000000000B9704780ED010A77
:105A9000D0ED020A70EE600AC0ED0A0A00BFF4E71A
:105AA00010B500BF0F48008800F00200022800D1A6
:105AB00004E040F2AD410CA0FDF79AF800BF0948A0
:105AC000001D007800F0C00040F00F000549091DDE
:105AD000087010200349113108701E20FDF7F0F8FE
