:020000040001F9
:10A0000050F6012095A20100CDA20100CFA20100CF
:10A01000D1A20100D3A20100D5A2010000000000DE
:10A02000000000000000000000000000D7A20100B6
:10A03000D9A2010000000000DBA20100B11D020056
:10A0400011F2010025F2010039F201004DF2010088
:10A0500061F2010075F2010089F201009DF2010038
:10A06000B1F20100C5F20100D9F20100EDF20100E8
:10A0700001F3010015F3010029F301003DF3010094
:10A0800051F3010065F3010079F301008DF3010044
:10A09000A1F30100B5F30100C9F30100DDF30100F4
:10A0A000F1F3010005F4010019F401002DF40100A1
:10A0B00041F4010055F4010069F401007DF4010050
:10A0C00091F40100A5F40100B9F40100CDF4010000
:10A0D000E1F40100F5F4010009F501001DF50100AE
:10A0E00031F5010045F5010059F501006DF501005C
:10A0F00081F5010095F50100A9F50100BDF501000C
:10A10000D1F50100E5F50100F9F501000DF60100BA
:10A1100021F6010035F6010049F601005DF6010067
:10A1200071F6010085F6010099F60100ADF6010017
:10A13000C1F60100D5F60100E9F60100FDF60100C7
:10A1400011F7010025F7010039F701004DF7010073
:10A1500061F7010075F7010089F701009DF7010023
:10A16000B1F70100C5F70100D9F70100EDF70100D3
:10A1700001F8010015F8010029F801003DF801007F
:10A1800051F8010065F8010079F801008DF801002F
:10A19000A1F80100B5F80100C9F80100DDF80100DF
:10A1A000F1F8010005F9010019F901002DF901008C
:10A1B00041F9010055F9010069F901007DF901003B
:10A1C00091F90100A5F90100B9F90100CDF90100EB
:10A1D000E1F90100F5F9010009FA01001DFA010099
:10A1E00031FA010045FA010059FA01006DFA010047
:10A1F00081FA010095FA0100A9FA0100BDFA0100F7
:10A20000D1FA0100E5FA0100F9FA01000DFB0100A5
:10A2100021FB010035FB010049FB01005DFB010052
:10A2200071FB010085FB010099FB0100ADFB010002
:10A23000C1FB0100D5FB0100E9FB0100FDFB0100B2
:10A24000DFA20100DFA20100DFA20100DFA2010006
:10A25000DFA20100DFA20100DFA20100DFA20100F6
:10A26000DFA20100DFA20100DFA20100DFA20100E6
:10A27000DFA20100DFA20100DFA20100DFA20100D6
:10A28000DFF80CD000F03AF900480047C18902001D
:10A2900050F6012012484FF01F01016011484FF0A5
:10A2A0007701016010484FF0770101600F484FF4CB
:10A2B000885101600B484FF0760101600A484FF069
:10A2C000760101600A4880470A480047FEE7FEE73A
:10A2D000FEE7FEE7FEE7FEE7FEE7FEE7FEE7FEE756
:10A2E00010080540040805400C080540000805401A
:10A2F000C923020081A201002DE9F05F054600207C
:10A3000092469B4688460646814640241BE02846E6
:10A3100041464746224600F0E0F853465A46C01AE6
:10A32000914110D311461846224600F0C7F82D1A65
:10A3300067EB01084F4622460120002100F0BEF8DD
:10A3400017EB00094E41201EA4F10104DFDC484652
:10A3500031462A464346BDE8F09F40EA01039B0789
:10A3600003D009E008C9121F08C0042AFAD203E08A
:10A3700011F8013B00F8013B521EF9D27047D2B2EE
:10A3800001E000F8012B491EFBD270470022F6E7DE
:10A3900010B513460A4604461946FFF7F0FF20465B
:10A3A00010BD421E12F8013F002BFBD111F8013BFA
:10A3B00002F8013B002BF9D1704710B5044604E0C8
:10A3C0000B7800F8013B03B1491C521EF8D220461D
:10A3D00010BD421C10F8011B0029FBD1801A7047E8
:10A3E00010B5002200E0521C835C8C5CA34201D1BA
:10A3F000002BF8D1D8B2E1B2401A10BD30B50446F6
:10A400000020034600E05B1C934203D2E05CCD5C7D
:10A41000401BF8D030BD30B505460020034600E0B3
:10A420005B1C934205D2EC5CC85C201A01D1002C65
:10A43000F6D130BD00F0004230F000400AD0C10D2E
:10A4400001F56071C0F3160042EA0151C2084007ED
:10A4500011437047002001467047000030B5041ECC
:10A4600071F1000404DB4FF00044404264EB010151
:10A47000141E73F1000405DB1C464FF000435242EA
:10A4800063EB04038B4208BF824230BD30B5041E2B
:10A4900071F1000404DB4FF00044404264EB010121
:10A4A000141E73F1000405DB1C464FF000435242BA
:10A4B00063EB0403994208BF904230BD202A04DBBD
:10A4C000203A00FA02F1002070479140C2F12003C7
:10A4D00020FA03F3194390407047202A04DB203A06
:10A4E00021FA02F00021704721FA02F3D040C2F1B4
:10A4F000200291400843194670470000064C074D62
:10A5000006E0E06840F0010394E807009847103443
:10A51000AC42F6D3FFF7B8FEF8F9020018FA0200D1
:10A5200070B58C1810F8015B15F0070301D110F815
:10A53000013B2A1106D110F8012B03E010F8016B42
:10A5400001F8016B5B1EF9D12B0705D40023521EC5
:10A550000DD401F8013BFAE710F8013BCB1A921C2D
:10A5600003E013F8015B01F8015B521EF9D5A1422B
:10A57000D8D3002070BD000010B50121034800F0C1
:10A580007DF803480EF09AFF10BD00000000044063
:10A59000D8E2FF1F10B50221054800F06FF805480A
:10A5A0000EF08CFF04480EF089FF0AF0ADFF10BDDD
:10A5B00000000440F4E2FF1F10E3FF1F2DE9F0410B
:10A5C00007460C461546984600BF1F48874201D1F2
:10A5D000102D04D91D48874202D1082D00D804E06F
:10A5E00040F265111AA002F039FF00BF00BF0CB1A4
:10A5F000012C00D104E04FF4B37115A002F02EFF3E
:10A6000000BF00BFB8F1000F02D0B8F1010F00D1B8
:10A6100004E040F267110EA002F020FF00BF07F136
:10A620000C0000EB8406B8F1010F05D13068012160
:10A63000A9400843306004E030680121A940884304
:10A640003060BDE8F08100000000044000040440D8
:10A650002E2E5C647269766572735C686333325F58
:10A660006C6C5F6472697665725C7372635C68635C
:10A6700033325F6C6C5F6164632E630070B50546B6
:10A680000C4600BF0F48854202D00F48854200D1DA
:10A6900004E040F2AB210DA002F0E0FE00BF00BFDD
:10A6A00024B144F00300032800D104E04FF42B71DF
:10A6B00006A002F0D3FE00BF84F0030085F8460038
:10A6C00070BD000000000440000404402E2E5C64B5
:10A6D0007269766572735C686333325F6C6C5F6459
:10A6E00072697665725C7372635C686333325F6C47
:10A6F0006C5F6164632E630070B505460C4600BF55
:10A700000A48854201D1102C04D90948854202D15A
:10A71000082C00D804E040F2762106A002F09EFE4C
:10A7200000BF05F1500030F8140070BD0000044077
:10A73000000404402E2E5C647269766572735C6856
:10A740006333325F6C6C5F6472697665725C7372DE
:10A75000635C686333325F6C6C5F6164632E6300BB
:10A7600070B505460C466FF0020600BF21488542D1
:10A7700002D02148854200D103E0E5211FA002F06C
:10A780006DFE00BF002C33D000BF208840B1208870
:10A79000012805D02088022802D02088032800D173
:10A7A00003E0E82115A002F059FE00BF00BF608859
:10A7B000202804D06088102801D0608800B903E008
:10A7C000E9210EA002F04AFE00BF00BFA08810B130
:10A7D000A088802800D103E0EA2108A002F03EFE14
:10A7E00000BF208861880843A1880843688000264C
:10A7F000304670BD00000440000404402E2E5C640E
:10A800007269766572735C686333325F6C6C5F6427
:10A8100072697665725C7372635C686333325F6C15
:10A820006C5F6164632E630070B504460D46164686
:10A8300000BF1948844202D01848844200D104E085
:10A8400040F23B2116A002F009FE00BF00BF25B177
:10A8500045F00300032800D104E04FF40F7110A06D
:10A8600002F0FCFD00BF00BF0EB1012E00D104E0DC
:10A8700040F23D210AA002F0F1FD00BF012E05D1FA
:10A8800094F84700284384F8470004E094F8470010
:10A89000A84384F8470070BD000004400004044051
:10A8A0002E2E5C647269766572735C686333325F06
:10A8B0006C6C5F6472697665725C7372635C68630A
:10A8C00033325F6C6C5F6164632E630070B5044665
:10A8D000002500BF0A48844202D00A48844200D1C1
:10A8E00004E040F2532108A002F0B8FD00BF207838
:10A8F000012801D1C51F01E001202070284670BD4C
:10A9000000000440000404402E2E5C6472697665E9
:10A9100072735C686333325F6C6C5F647269766516
:10A92000725C7372635C686333325F6C6C5F61642A
:10A93000632E630001466FF0020021B100220A80FD
:10A940004A808A800020704770B504460D4616463E
:10A9500000BF1A48844202D01948844200D104E062
:10A9600040F2222117A002F079FD00BF00BF0DB117
:10A97000012D00D104E040F2232112A002F06EFD6F
:10A9800000BF00BF0EB1012E00D104E04FF40971E9
:10A990000CA002F063FD00BF012E07D16089EA0020
:10A9A0008021914089B20843608105E06089EA0016
:10A9B000802191408843608170BD00000000044008
:10A9C000000404402E2E5C647269766572735C68C4
:10A9D0006333325F6C6C5F6472697665725C73724C
:10A9E000635C686333325F6C6C5F6164632E630029
:10A9F00070B506460C46154600BF1B48864202D07D
:10AA00001A48864200D104E040F20B2118A002F05F
:10AA100025FD00BF00BF0CB1012C00D104E04FF4B4
:10AA2000037113A002F01AFD00BF00BF2DB1012D6C
:10AA300003D0022D01D0032D00D104E040F20D21FE
:10AA40000BA002F00BFD00BFE006040E708903218D
:10AA5000A140884305FA04F10322A24092B21140BA
:10AA60000843708170BD00000000044000040440F1
:10AA70002E2E5C647269766572735C686333325F34
:10AA80006C6C5F6472697665725C7372635C686338
:10AA900033325F6C6C5F6164632E630070B5044693
:10AAA0000D4600BF0A48844207D3094868308442F3
:10AAB00003D804F0030000B903E08F2105A002F0E1
:10AAC000CDFC00BF206865F30800206070BD000069
:10AAD000040801402E2E5C647269766572735C68AE
:10AAE0006333325F6C6C5F6472697665725C73723B
:10AAF000635C686333325F6C6C5F616F732E6300FD
:10AB000070B5044625462B4828606E20A8802A4848
:10AB1000A8601A20A8810120A861284606F062FEDC
:10AB200006F0EAFD2549086006F0E6FD24490860C4
:10AB300006F0E2FD2349086006F0DEFD22490860C8
:10AB400006F0DAFD2149086006F0D6FD20490860CC
:10AB50001A48006820B11F491848006806F000FE36
:10AB60001748006820B11C491548006806F0F8FD38
:10AB70001448006820B119491248006806F0F0FD39
:10AB80001148006820B116490F48006806F0E8FD3A
:10AB90000E48006820B113490C48006806F0E0FD3B
:10ABA0000B48006820B110490948006806F0D8FD3C
:10ABB00070BD00008CDD0200B4E20200DC80FF1FEB
:10ABC000E480FF1FE080FF1FE880FF1FEC80FF1F75
:10ABD000F080FF1F1BB001001DB001001FB001007D
:10ABE00021B0010025B0010061B0010070B504463C
:10ABF000207800EB800101EBC011FE4800EB8100E2
:10AC000090F82D0020B9207804210DF079FE70BD58
:10AC100020460AF005FA94F82C00022804D04FF4DC
:10AC2000F6700059022800D1F1E794F8FE010128DE
:10AC300008D12078F0490DF063FE94F8FE0184F805
:10AC4000FF01E4E794F8FE0194F8FF11884207D071
:10AC5000207804210DF054FE94F8FE0184F8FF01E1
:10AC600094F8FC0140B92078E4490DF049FE94F8CD
:10AC7000FC0184F8FD01CAE70121207800EB800285
:10AC800002EBC012DB4800EB820080F82C1020465B
:10AC90000CF094FB20460FF0C7FA94F8FC0194F8EE
:10ACA000FD11884207D0207804210DF029FE94F888
:10ACB000FC0184F8FD01D4F8B80103F071F900F447
:10ACC000001018B3207800EB800101EBC011C948D7
:10ACD00000EB8100D0F8AC01012817D1207800EBFF
:10ACE000800101EBC011C34800EB810090F82E00F9
:10ACF00001280BD14FF40011D4F8B80103F02AF861
:10AD00004FF48011D4F8B80103F0D4F9D4F8B801A5
:10AD100003F046F9054605F0020058B1022104F59A
:10AD2000CE7006F065FD0221D4F8B80103F012F8E8
:10AD30000020607005F0010058B1012104F5CE70CB
:10AD400006F056FD0121D4F8B80103F003F8012004
:10AD5000607005F4004058B14FF4004104F5CE7026
:10AD600006F046FD4FF40041D4F8B80102F0F2FFBE
:10AD700005F4804058B14FF4804104F5CE7006F0E0
:10AD800037FD4FF48041D4F8B80102F0E3FF05F439
:10AD9000803058B14FF4803104F5CE7006F028FDB4
:10ADA0004FF48031D4F8B80102F0D4FF05F400303C
:10ADB00058B14FF4003104F5CE7006F019FD4FF490
:10ADC0000031D4F8B80102F0C5FF05F4802058B175
:10ADD0004FF4802104F5CE7006F00AFD4FF4802177
:10ADE000D4F8B80102F0B6FF05F4002058B14FF4D2
:10ADF000002104F5CE7006F0FBFC4FF40021D4F8DE
:10AE0000B80102F0A7FF05F4801058B14FF480118B
:10AE100004F5CE7006F0ECFC4FF48011D4F8B801C4
:10AE200002F098FF05F4001058B14FF4001104F53A
:10AE3000CE7006F0DDFC4FF40011D4F8B80102F03A
:10AE400089FF05F4800058B14FF4800104F5CE70FD
:10AE500006F0CEFC4FF48001D4F8B80102F07AFF7E
:10AE600005F4000058B14FF4000104F5CE7006F06F
:10AE7000BFFC4FF40001D4F8B80102F06BFF05F0FD
:10AE8000807058B14FF0807104F5CE7006F0B0FCC0
:10AE90004FF08071D4F8B80102F05CFF05F080003B
:10AEA00048B1802104F5CE7006F0A2FC8021D4F8D0
:10AEB000B80102F04FFF05F4005058B14FF40051B3
:10AEC00004F5CE7006F094FC4FF40051D4F8B801AC
:10AED00002F040FF05F4807058B14FF4807104F522
:10AEE000CE7006F085FC4FF48071D4F8B80102F002
:10AEF00031FF05F0040048B1042104F5CE7006F0DE
:10AF000077FC0421D4F8B80102F024FF05F0080012
:10AF100048B1082104F5CE7006F06AFC0821D4F887
:10AF2000B80102F017FF05F0100048B1102104F538
:10AF3000CE7006F05DFC1021D4F8B80102F00AFFD3
:10AF400005F0200048B1202104F5CE7006F050FC39
:10AF50002021D4F8B80102F0FDFE05F0400048B110
:10AF6000402104F5CE7006F043FC4021D4F8B8012E
:10AF700002F0F0FE05F0800048B1802104F5CE70AB
:10AF800006F036FC8021D4F8B80102F0E3FE05F4A7
:10AF9000007058B14FF4007104F5CE7006F028FC33
:10AFA0004FF40071D4F8B80102F0D4FE05F48060CB
:10AFB00058B14FF4806104F5CE7006F019FC4FF4DF
:10AFC0008061D4F8B80102F0C5FE05F4006058B104
:10AFD0004FF4006104F5CE7006F00AFC4FF40061F6
:10AFE000D4F8B80102F0B6FE05F4805090B14FF4E9
:10AFF000805105E08083FF1F4000002080800030EA
:10B0000004F5CE7006F0F4FB4FF48051D4F8B8018B
:10B0100002F0A0FE00BF00BFF9E57047704770471F
:10B020007047000010B504460C48D0F8F00116280F
:10B0300006D10A49D1F8FC014FF4002103F03AF897
:10B040000648D0F8F001182806D10449D1F8FC01CF
:10B050004FF0807103F02EF810BD00003C83FF1FFD
:10B0600010B504460C48D0F80404162806D10A4945
:10B07000D1F810044FF4002103F01CF80648D0F872
:10B080000404182806D10449D1F810044FF0807147
:10B0900003F010F810BD00003C83FF1F00B595B011
:10B0A00007A808F01DFD1D490798884201D015B07A
:10B0B00000BD0D990898CDE9000119A21A49002098
:10B0C000079B05F059FF0D9811281DD114A217A157
:10B0D000002005F051FF182101A8FFF757F920487B
:10B0E000019001208DF8080008208DF80C00042044
:10B0F0008DF80D0051218DF80E1001218DF80F10E3
:10B1000001A801F0FFFC00BF08F0E4FC04A215A1B7
:10B11000002005F031FF00BFC9E70000005344558F
:10B120004D41494E0000000094F002001B5B333695
:10B130006D5B25735D2053656E64696E6720706575
:10B140006E64696E672031312030312041434B20DD
:10B15000283531203031290D0A1B5B306D0D0A0076
:10B1600003F1DA181B5B33366D5B25735D205544A4
:10B170005320536861726564207374617465206341
:10B180006C65617265640D0A1B5B306D0D0A000011
:10B190001FB501220321052003F056FC02A801F08F
:10B1A0007DF9684601F022F82F49304801F047F850
:10B1B00000208DF80A0030208DF8090000208DF85D
:10B1C000080005208DF80C0002A801F0C5F8002049
:10B1D0000190019820F01F0001903121019861F346
:10B1E00010200190019820F0704000F180500190F3
:10B1F000019820F0706000F180700190019820F4B7
:10B20000700000F58010019000208DF8000001987A
:10B2100020F080000190684600F096FE00BF2020DC
:10B2200000F0FEFD0128FAD100221146042005F0AD
:10B23000B9FF012211460B2005F0B4FF502002F0A7
:10B24000B5FC4FF4404003F00BFF05F04BFC05202C
:10B2500000F0FFFF012002F02FFA002002F02CFA8C
:10B26000012002F0F3F91FBD102211007777770754
:10B2700010B586B004460C48009001208DF80400FB
:10B2800000208DF805008DF806008DF807000820D5
:10B290008DF808008DF8094000200590684601F0FF
:10B2A00031FC06B010BD00005555EF182DE9F041F6
:10B2B00005460C4600BF1448854200D104E040F228
:10B2C000723112A002F0CAF800BF00BF2CB11A48B8
:10B2D00020431949884200D104E040F273310BA0A9
:10B2E00002F0BCF800BF15480440C4F307474FEA1A
:10B2F000146805F8A57F6E7806F0EA0646EA0806A7
:10B300006E70A53DBDE8F081000407402E2E5C6400
:10B310007269766572735C686333325F6C6C5F640C
:10B3200072697665725C7372635C686333325F6CFA
:10B330006C5F63616E2E63002701FFD50000FF156F
:10B3400010B5044600BF0848844200D104E040F232
:10B35000FA2106A002F082F800BF94F8A00000F0E5
:10B360007F0084F8A00010BD000407402E2E5C640E
:10B370007269766572735C686333325F6C6C5F64AC
:10B3800072697665725C7372635C686333325F6C9A
:10B390006C5F63616E2E63002DE9F04704460E4634
:10B3A00015464FF0000900BF3D48844200D104E03B
:10B3B00040F26A213BA002F051F800BF00BF0EB17D
:10B3C000012E00D104E040F26B2136A002F046F8D5
:10B3D00000BF002D5ED000BF2879C0F3401000B937
:10B3E00004E040F26E212FA002F038F800BF3EB911
:10B3F00094F8A10000F01000B8B16FF0050914E056
:10B4000094F8A10000F0060010B16FF005090CE0FF
:10B4100094F8A47094F8A28007F0010018B908F01D
:10B420000300032801D16FF00909B9F1000F33D1EE
:10B4300000BF2879C0F3C01030B1286860F06040C8
:10B440006FF06041884209D02879C0F3C01030B94C
:10B4500040F2FF7128680843884200D104E040F2BE
:10B46000852110A001F0FAFF00BF04F1A10A1C2100
:10B4700001EB4A1000F1844006602946204600F0A6
:10B48000A7FC012E08D194F8A20040F0400084F8F7
:10B49000A20001E06FF002094846BDE8F087000015
:10B4A000000407402E2E5C647269766572735C68D6
:10B4B0006333325F6C6C5F6472697665725C737261
:10B4C000635C686333325F6C6C5F63616E2E630034
:10B4D0002DE9F04706460F4614464FF000080025B8
:10B4E0006FF0020900BF3448864200D104E04FF4F7
:10B4F000967132A001F0B2FF00BF002F59D0002C8E
:10B5000057D053E007F0010000284AD000BF05EBF8
:10B51000450004EB8000806878B105EB450004EB42
:10B5200080008068B0F1804F07D005EB450004EB48
:10B5300080008068B0F1C04F00D104E040F23111CA
:10B540001EA001F08BFF00BF00BF05EB450004EB20
:10B550008000406860F060406FF06041884200D138
:10B5600004E04FF4997115A001F078FF00BF06F8D0
:10B57000B48F05EB450054F820007060307840F03F
:10B580002000307005EB450004EB8000406805EBBF
:10B59000450104EB8101896808437060B43E681C72
:10B5A000C5B27F1008F1010000F0FF08002FA9D1FB
:10B5B000B9464846BDE8F087000407402E2E5C647B
:10B5C0007269766572735C686333325F6C6C5F645A
:10B5D00072697665725C7372635C686333325F6C48
:10B5E0006C5F63616E2E630010B5044600BF0748B0
:10B5F000844200D104E040F2F53105A001F02EFFB5
:10B6000000BF94F8A30000F0030010BD0004074041
:10B610002E2E5C647269766572735C686333325F88
:10B620006C6C5F6472697665725C7372635C68638C
:10B6300033325F6C6C5F63616E2E630070B50446DD
:10B640000D466FF0080600BF0F48844200D104E0A9
:10B6500040F2D2210DA001F001FF00BF15B96FF03B
:10B6600002060FE094F8A30000F0030050B1294651
:10B67000204600F045FA94F8A30040F0100084F84A
:10B68000A3000026304670BD000407402E2E5C64E7
:10B690007269766572735C686333325F6C6C5F6489
:10B6A00072697665725C7372635C686333325F6C77
:10B6B0006C5F63616E2E63002DE9F05F05460C46FA
:10B6C0004FF0000B00BF2048854200D104E04FF44A
:10B6D0004F711EA001F0C2FE00BF00BF2CB1264872
:10B6E00020432549884200D104E040F23D3117A0B3
:10B6F00001F0B4FE00BF04F0070604F02007C4F315
:10B700000728C4F307494FEA146A15F8A00F06404A
:10B71000E8780740287900EA0808687900EA09090A
:10B72000A879A03D00EA0A0A4EB947B9B8F1000F5E
:10B7300005D1B9F1000F02D1BAF1000F01D04FF0DD
:10B74000010B5846BDE8F09F000407402E2E5C64B4
:10B750007269766572735C686333325F6C6C5F64C8
:10B7600072697665725C7372635C686333325F6CB6
:10B770006C5F63616E2E63002701FFD52DE9F047F2
:10B78000044600BF1048844200D104E040F2A731D3
:10B790000EA001F063FE00BF14F8A05FE67806F08B
:10B7A000200694F80480677994F80690A03C46EA55
:10B7B000082040EA074040EA096005430E4805407A
:10B7C0002846BDE8F0870000000407402E2E5C6488
:10B7D0007269766572735C686333325F6C6C5F6448
:10B7E00072697665725C7372635C686333325F6C36
:10B7F0006C5F63616E2E63002701FFD570B505464F
:10B800000C466FF00206002C4FD02146284600F06F
:10B810004FF815F8A00F40F0800028706068801E77
:10B82000A168491E40EA0121A089401E41EA004169
:10B830002078401E41EA0060A860A87800F0DF0090
:10B84000617E01F020010843A870A03DA18A28462E
:10B850002269FFF73DFE95F8A00000F07F0085F813
:10B86000A000A17D284600F07BF9E07D217E084301
:10B8700000F0180015F8A01F01F0E7010843287038
:10B88000E07EA17E40EA0110E871207F617F0843DD
:10B89000A17F0843E870207DA875A03D206A18B1FB
:10B8A0002846216A00F0DEF90026304670BD00000F
:10B8B00070B505460C4600BF5648854200D103E0EE
:10B8C000D52155A001F0CAFD00BF00BFA07D04280E
:10B8D00000D803E0D62150A001F0C0FD00BF00BF9A
:10B8E000E07D10B1E07D102800D103E0D7214AA00F
:10B8F00001F0B4FD00BF00BF207E10B1207E0828FB
:10B9000000D103E0D82144A001F0A8FD00BF00BF92
:10B91000607E10B1607E202800D103E0D9213EA0D6
:10B9200001F09CFD00BF00BFA07E18B1A07E0A28D8
:10B9300000D803E0DA2138A001F090FD00BF00BF7D
:10B94000E07E102800D203E0DB2133A001F086FD69
:10B9500000BF00BFA08A28B1A08A40F0FF00FF28E6
:10B9600000D103E0DC212CA001F078FD00BF00BF76
:10B97000207F10B1207F082800D103E0DD2126A020
:10B9800001F06CFD00BF00BF607F10B1607F4028F8
:10B9900000D103E0DE2120A001F060FD00BF00BF68
:10B9A000A07F10B1A07F802800D103E0DF211AA082
:10B9B00001F054FD00BF00BF206820B12068B0F541
:10B9C000807F00D803E0E12113A001F047FD00BF14
:10B9D00000BF6068022816D36068412813D8A068A9
:10B9E00088B1A06808280ED8E06860B1E06808282F
:10B9F00009D8D4E90110401C814204D3D4E90201E2
:10BA0000884200D303E0E22103A001F027FD00BF3C
:10BA100070BD0000000407402E2E5C6472697665DC
:10BA200072735C686333325F6C6C5F6472697665F5
:10BA3000725C7372635C686333325F6C6C5F63610A
:10BA40006E2E63002DE9F04104460D46164600BFF8
:10BA50001F48844200D104E040F243211DA001F0C0
:10BA6000FDFC00BF00BF3DB142F6FE20284342F678
:10BA7000FE21884200D104E04FF4117115A001F0BD
:10BA8000EDFC00BF00BF0EB1012E00D104E040F27A
:10BA9000452110A001F0E2FC00BFEFB2C5F307287A
:10BAA000012E09D114F8A40F38432070A07840EA81
:10BAB0000800A070A43C08E014F8A40FB84320705C
:10BAC000A07820EA0800A070A43CBDE8F081000046
:10BAD000000407402E2E5C647269766572735C68A0
:10BAE0006333325F6C6C5F6472697665725C73722B
:10BAF000635C686333325F6C6C5F63616E2E6300FE
:10BB0000F0B5024601F10805144626680E60666825
:10BB10004E600E79C6F3C01626B90E88C6F30A0623
:10BB20000E6003E00E6826F060460E600E7906F0A7
:10BB30000F060A4FBB5D0E79C6F3401616B9022BED
:10BB400000D90223002006E0861C54F8266045F840
:10BB50002060461CF0B29842F6DBF0BDF8EA020025
:10BB600030B50022002305290DD2DFE801F00D03D6
:10BB700005070900402308E0202206E0402204E0F7
:10BB80004023402201E000BF00BF00BF10F8A04FDB
:10BB900004F09F0402F060052C430470447804F024
:10BBA000BF0403F040052C434470A03830BD0000B2
:10BBB00070B504460D4600BF0E48844200D104E033
:10BBC00040F2A9210CA001F049FC00BF00BF25B143
:10BBD00045F01600162800D104E040F2AA2106A084
:10BBE00001F03CFC00BF94F8A100284384F8A100B8
:10BBF00070BD0000000407402E2E5C6472697665FB
:10BC000072735C686333325F6C6C5F647269766513
:10BC1000725C7372635C686333325F6C6C5F636128
:10BC20006E2E630001466FF00200D1B104220A605B
:10BC300010224A6004228A600222CA6000220A613D
:10BC40008A828A75CA750A764A760A228A76072215
:10BC5000CA7600220A7740224A7700228A770A624F
:10BC6000002070472DE9F04105460C466FF00207B1
:10BC700000BF4B48854200D104E040F25F4149A03B
:10BC800001F0ECFB00BF002C7DD000BF607A10B14A
:10BC9000607A102800D104E040F2624141A001F036
:10BCA000DDFB00BF00BF207A40B1207A022805D01A
:10BCB000207A042802D0207A062800D104E040F23D
:10BCC000634138A001F0CAFB00BF00BF60680128D3
:10BCD00006D1206860F060406FF06041884207D074
:10BCE000606830B940F2FF7120680843884200D193
:10BCF00004E040F264412BA001F0B0FB00BF00BFA4
:10BD0000608978B16089B0F5807F0BD06089B0F52B
:10BD1000007F07D06089B0F5407F03D06089B0F51F
:10BD2000806F00D104E040F265411EA001F096FB57
:10BD300000BF00BFA08918B1A089102800D804E076
:10BD400040F2664117A001F089FB00BF206820F097
:10BD5000004615F8A20F00F0EF00617A01F0100123
:10BD6000084328706189207B401E41EA00306884C6
:10BD7000207946EAC070C5F81E00E089A884208AB0
:10BD8000E884687F00E008E000F0F900217A01F023
:10BD9000060108436877A23D00273846BDE8F081D8
:10BDA000000407402E2E5C647269766572735C68CD
:10BDB0006333325F6C6C5F6472697665725C737258
:10BDC000635C686333325F6C6C5F63616E2E63002B
:10BDD000F0B5034601F1080503F150020E68166044
:10BDE0004E6856600E7906F00F060C4FBC5D0E795A
:10BDF000C6F3401616B9022C00D902240E79C6F3F8
:10BE0000801656B9002006E055F82070861C42F8CE
:10BE10002670461CF0B2A042F6DBF0BDF8EA020044
:10BE200010B5044600BF24B144F06900692800D170
:10BE300004E040F28B5106A001F010FB00BF0F4858
:10BE40000078204008B1012010BD0020FCE7000070
:10BE50002E2E5C647269766572735C686333325F40
:10BE60006C6C5F6472697665725C7372635C686344
:10BE700033325F6C6C5F636C6B2E63003C4005403B
:10BE800070B50446002500BF0CB1012C00D104E0C0
:10BE900040F2E5411FA001F0E1FA00BF00BF2848D1
:10BEA000008800F0010000B104E040F2E64119A072
:10BEB00001F0D4FA00BF64B92248007800F007000E
:10BEC000052801D1C54322E001201E49091D087043
:10BED0001DE01C48DA300068C0F3C01030B94FF4E0
:10BEE0008051082000F0BDF9054605E04FF480516F
:10BEF000012000F0B6F905464DB900201149091D91
:10BF000008704FF48051202000F0ABF90546284618
:10BF100070BD00002E2E5C647269766572735C6879
:10BF20006333325F6C6C5F6472697665725C7372E6
:10BF3000635C686333325F6C6C5F636C6B2E6300B1
:10BF4000FE430540264005402DE9F041044614B962
:10BF50006FF002061FE100BF2079C0F3C01018B1D6
:10BF60002079C0F3C01000B104E04FF497618BA0BA
:10BF700001F074FA00BF00BF207900F01F00401CE0
:10BF8000182805D8207900F01F00401C00B104E0FB
:10BF900040F2B94181A001F061FA00BF00BF6068C2
:10BFA000C0F30820401CB0F5F07F06D86068C0F3ED
:10BFB0000820401C142800D304E040F2BA4177A0C6
:10BFC00001F04CFA00BF00BF0121606801EB107066
:10BFD000102805D8606801EB1070022800D304E037
:10BFE00040F2BB416DA001F039FA00BF2079C0F3E7
:10BFF000C01008B9744901E074480168207900F064
:10C000001F00401CB1FBF0F76068C0F30820401C23
:10C0100000FB07F500BF6E48874203D86D48874292
:10C0200000D304E04FF498615CA001F017FA00BF60
:10C0300000BF6948854203D84010854200D304E020
:10C0400040F2C14155A001F009FA00BF00BF012133
:10C05000606801EB1070B5FBF0F06049884209D8C8
:10C060000121606801EB1070B5FBF0F05C4988427B
:10C0700000D304E040F2C24148A001F0EFF900BF54
:10C0800000BF6068C0F30360401C102806D86068D9
:10C09000C0F30360401C022800D304E040F2C34117
:10C0A0003EA001F0DBF900BF00BF6068C0F30350A1
:10C0B000401C102806D86068C0F30350401C0228BA
:10C0C00000D304E040F2C44134A001F0C7F900BF3E
:10C0D00000BF6068C0F30350401CB5FBF0F03F495F
:10C0E000884209D86068C0F30350401CB5FBF0F0EB
:10C0F0003B49884200D304E040F2C54127A001F04B
:10C10000ADF900BF00BF6068C0F30360401CB5FB21
:10C11000F0F03249884209D86068C0F30360401CDF
:10C12000B5FBF0F02E49884200D304E040F2C6414E
:10C130001AA001F093F900BF00BF2078012801D0B8
:10C14000207800B904E04FF4996114A001F086F959
:10C1500000BF00BF2348008800F0010000B104E0E8
:10C1600040F2C9410DA001F079F900BF2079C10961
:10C170001D48006861F3C7101B49086060680860CB
:10C18000207820B90120FFF77BFE064603E000205F
:10C19000FFF776FE06463046BDE8F0812E2E5C6441
:10C1A0007269766572735C686333325F6C6C5F646E
:10C1B00072697665725C7372635C686333325F6C5C
:10C1C0006C5F636C6B2E630000127A000480FF1FAB
:10C1D00040787D0140420F0000389C1C00C2EB0BF0
:10C1E000C0E1E400FE430540004105400146002057
:10C1F00009B9C01E22E000224A604A6822F080028B
:10C200004A604A6822F01F024A6013234A6863F3B7
:10C2100010224A604A6822F0704202F180524A605D
:10C220004A6822F0706202F180724A604A6822F421
:10C23000700202F580124A6001220A70704770B5E0
:10C2400004460D462946204605F02CF806F056F81F
:10C2500070BD10B50446204605F0BAF906F04EF858
:10C2600010BDF8B505460C46002000906FF007069B
:10C2700009E02846FFF7D4FD012801D1002605E09A
:10C280000098401C00900098A042F2D900BF3046B0
:10C29000F8BD000070B50446002500BF0CB1012CAC
:10C2A00000D104E04FF467711EA001F0D7F800BF81
:10C2B00000BF2748008800F0010000B104E040F210
:10C2C0009D3118A001F0CAF800BFFCB921480078E0
:10C2D00000F00700032802D16FF0050520E01D489B
:10C2E000DA300068C0F3C01058B91A48001D007851
:10C2F00010B96FF0050513E0012016490C310870E4
:10C300000EE0012013490C31087009E000201149AA
:10C310000C3108704FF480510820FFF7A2FF05464A
:10C32000284670BD2E2E5C647269766572735C68F7
:10C330006333325F6C6C5F6472697665725C7372D2
:10C34000635C686333325F6C6C5F636C6B2E63009D
:10C35000FE4305402640054070B5044614B96FF011
:10C3600002057FE000BF2078012801D0207800B9C5
:10C3700004E04FF45F713CA001F070F800BF00BF13
:10C38000607840B16078102805D06078202802D00D
:10C390006078302800D104E040F27D3132A001F015
:10C3A0005DF800BF00BFA07810B1A078402800D190
:10C3B00004E040F27E312CA001F050F800BF00BF35
:10C3C000E078802801D0E07800B904E040F27F31C5
:10C3D00025A001F043F800BF00BF2079012817D045
:10C3E0002079022814D02079032811D0207904283C
:10C3F0000ED0207905280BD02079062808D0207986
:10C40000072805D02079082802D02079092800D1F2
:10C4100004E04FF4607114A001F020F800BF00BFE9
:10C420001C48008800F0010000B104E040F28131B6
:10C430000DA001F013F800BF207917490870E078CB
:10C4400061780843A17808431249123108702078B6
:10C4500020B90120FFF71EFF054603E00020FFF78B
:10C4600019FF0546284670BD2E2E5C6472697665FC
:10C4700072735C686333325F6C6C5F64726976659B
:10C48000725C7372635C686333325F6C6C5F636CA5
:10C490006B2E6300FE430540A2400540014600208C
:10C4A00009B9C01E08E001220A7000228A704A7091
:10C4B0008022CA7005220A717047000070B50446D8
:10C4C0002546074828601D20A8800648A8600A2045
:10C4D000A8810120A861284605F084F970BD0000FC
:10C4E000ECE3020048E5020070B50446D4F8F80118
:10C4F00001F056FD054605F4807050B125F48076B4
:10C5000026B13146D4F8F80101F024FC4FF48075CF
:10C5100000BFB5F5007F76D015DC102D5DD008DCAE
:10C52000012D2ED0022D37D0042D40D0082D6BD1F7
:10C5300048E0202D5CD0402D68D0802D74D0B5F51A
:10C54000807FF4D17FE0B5F5804F6BD00CDCB5F582
:10C55000806F68D0B5F5006F71D0B5F5805F6FD092
:10C56000B5F5005FE3D1B0E0B5F5004F69D0B5F5A2
:10C57000803F67D0B5F5003F72D0B5F5802FD6D19A
:10C58000E4E0012104F5EE7005F032F90121D4F860
:10C59000F80101F0DFFBE7E0022104F5EE7005F0A1
:10C5A00027F90221D4F8F80101F0D4FBDCE00421E2
:10C5B00004F5EE7005F01CF90421D4F8F80101F03F
:10C5C000C9FBD1E0082104F5EE7005F011F908214E
:10C5D000D4F8F80101F0BEFBC6E0102104F5EE70BE
:10C5E00005F006F91021D4F8F80101F0B3FBBBE027
:10C5F000202104F5EE7005F0FBF82021D4F8F801B5
:10C6000001F0A8FBB0E02CE0ADE0FFE7402104F52D
:10C61000EE7005F0EDF84021D4F8F80101F09AFB36
:10C62000A2E001E05EE029E0802104F5EE7005F073
:10C63000DFF88021D4F8F80101F08CFB94E02AE0C7
:10C6400036E05CE068E04FF4807104F5EE7005F0D0
:10C65000CFF84FF48071D4F8F80101F07BFB83E050
:10C6600067E04FF4007104F5EE7005F0C1F84FF487
:10C670000071D4F8F80101F06DFB75E04FF48061B2
:10C6800004F5EE7005F0B4F84FF48061D4F8F801C9
:10C6900001F060FB68E04FF4006104F5EE7005F016
:10C6A000A7F84FF40061D4F8F80101F053FB5BE008
:10C6B0004FF4805104F5EE7005F09AF84FF4805174
:10C6C000D4F8F80101F046FB4EE04FF4005104F5B8
:10C6D000EE7005F08DF84FF40051D4F8F80101F038
:10C6E00039FB41E04FF4804104F5EE7005F080F82D
:10C6F0004FF48041D4F8F80101F02CFB34E04FF402
:10C70000004104F5EE7005F073F84FF40041D4F8E1
:10C71000F80101F01FFB27E04FF4803104F5EE70C3
:10C7200005F066F84FF48031D4F8F80101F012FBFF
:10C730001AE04FF4003104F5EE7005F059F84FF4AB
:10C740000031D4F8F80101F005FB0DE04FF4802131
:10C7500004F5EE7005F04CF84FF48021D4F8F801A0
:10C7600001F0F8FA00E000BF00BF70BD10B51B4833
:10C77000FFF704F8044604F00100002822D018480E
:10C78000007858B917A219A1002004F0F5FB012088
:10C790001349087005F006FB2449086005F002FB08
:10C7A00022490968401AB0F5FA7F16D30DA220A1DC
:10C7B000002004F0E1FB0948FEF7C2FD0020084913
:10C7C00008700AE00648007838B106A226A10020C9
:10C7D00004F0D2FB00200249087010BD000407409D
:10C7E000F082FF1F43414E49460000001B5B33337C
:10C7F0006D5B25735D204275732D4F666620646501
:10C8000074656374656421205374617274696E6722
:10C81000207265636F766572792074696D65722E1A
:10C820002E2E1B5B306D0D0A00000000EC82FF1FF6
:10C830001B5B33326D5B25735D204275732D4F6634
:10C8400066207265636F766572793A2065786974DF
:10C85000696E67206C6F63616C2072657365741B11
:10C860005B306D0D0A0000001B5B33326D5B25737E
:10C870005D204275732D4F6666207265636F766525
:10C880007265641B5B306D0D0A00000000B101B9D8
:10C89000704702680A60027A0A7342790AB101227B
:10C8A00000E000224A7302790AB1012200E000226E
:10C8B0008A73D0F809204A60D0F80D208A6000BF42
:10C8C000E6E7000010B5044618A21AA1002004F003
:10C8D00053FB23480460234809F030FD13A222A132
:10C8E000002004F049FB4FF440712948FDF74EFD4C
:10C8F000002028490870284908704FF480712748A3
:10C90000FDF744FD002026490870264908602649A5
:10C9100008602649087000F0C9F901202449087010
:10C9200002A224A1002004F027FB10BD43414E4980
:10C93000460000001B5B33326D5B25735D203D3D7F
:10C940003D2043616E496620496E697420537461CD
:10C950007274203D3D3D1B5B306D0D0A00000000F0
:10C96000E882FF1F11CD01001B5B33366D5B257321
:10C970005D2054582063616C6C6261636B2072654A
:10C9800067697374657265641B5B306D0D0A000026
:10C99000B8BD0020E082FF1FE182FF1FB8C0002069
:10C9A000E282FF1FE482FF1FEC82FF1FF082FF1F65
:10C9B000F182FF1F1B5B33326D5B25735D203D3DB4
:10C9C0003D2043616E496620496E697420446F6E54
:10C9D00065203D3D3D1B5B306D0D0A0010B50948DB
:10C9E000007800B910BDFFF7C1FE09F0C3FB38B9EC
:10C9F0000548007805490978884201D000F088F997
:10CA000000BFEFE7F182FF1FE082FF1FE182FF1FFF
:10CA10007CB504461A48007800B10CB900207CBDF2
:10CA2000E06830B917A219A1002004F0A5FA00208F
:10CA3000F5E723480078102807D3102311A221A17D
:10CA4000002004F099FA0020E9E72C481C490978F5
:10CA500000EB011094E82E002EC019480078401C0D
:10CA600017490870084601786068CDE9000105A201
:10CA700023490020236804F07FFA0120CFE700005B
:10CA8000F182FF1F43414E49460000001B5B3333D8
:10CA90006D5B25735D2052656769737465722066EE
:10CAA000696C7465723A2063616C6C6261636B20BF
:10CAB0006973204E554C4C1B5B306D0D0A00000015
:10CAC000E282FF1F1B5B33336D5B25735D20526574
:10CAD0006769737465722066696C7465723A207454
:10CAE00061626C652066756C6C20286D61783D25EF
:10CAF00064291B5B306D0D0A00000000B8C00020E7
:10CB00000CF00200F0B585B00446002734480078E8
:10CB100000B114B9002005B0F0BD207A082807D96B
:10CB2000237A30A231A1002004F026FA0020F2E797
:10CB300001A92046FFF7AAFE72B609F01BFB00BB55
:10CB40009DF81200012807D19DF8102002A9019834
:10CB500009F022FC054606E09DF8102002A9019884
:10CB600009F050FC0546012D0BD162B69DF810006E
:10CB700000901CA225A10020019B04F0FDF90120DA
:10CB8000C9E72E480078401C00F01F062C480078AA
:10CB900086421BD02949097801EB4101294A02EB61
:10CBA000C10018222146FDF7D8FB24480670012752
:10CBB000007823490978401A00F01F00009009A26C
:10CBC00021A10020236804F0D7F905E005A22AA1DD
:10CBD0000020236804F0D0F962B638469BE70000D5
:10CBE000F182FF1F43414E49460000001B5B333179
:10CBF0006D5B25735D20496E76616C696420444CE1
:10CC0000433A2025641B5B306D0D0A001B5B3336F5
:10CC10006D5B25735D205458206469726563743AB6
:10CC20002049443D3078253038582C206C656E3DC5
:10CC300025641B5B306D0D0A00000000E082FF1FC1
:10CC4000E182FF1FB8BD00201B5B33366D5B25738F
:10CC50005D205458207175657565643A2049443DDE
:10CC60003078253038582C2071756575653D256400
:10CC70001B5B306D0D0A00001B5B33336D5B25734E
:10CC80005D2054582071756575652066756C6C2142
:10CC90002049443D3078253038582064726F7070D8
:10CCA00065641B5B306D0D0A0000000010B5044682
:10CCB000064804600CB106A000E006A0034607A2E7
:10CCC00008A1002004F058F910BD0000E482FF1F05
:10CCD000594553004E554C4C0000000043414E490D
:10CCE000460000001B5B33366D5B25735D20446599
:10CCF0006661756C742063616C6C6261636B207338
:10CD000065743A2025731B5B306D0D0A000000002E
:10CD100030B58BB000252148007821490978884238
:10CD200012D01F48007800EB40001E4A02EBC00101
:10CD3000182205A8FDF711FB19480078401C00F0E7
:10CD40001F001749087001250DB90BB030BD01A9AE
:10CD500005A8FFF79BFD9DF81200012807D19DF85B
:10CD6000102002A9019809F017FB044606E09DF87F
:10CD7000102002A9019809F045FB0446012C0BD0B4
:10CD800007480078401E00F01F000549087006A201
:10CD90000749002004F0F0F800BFD6E7E082FF1F4B
:10CDA000E182FF1FB8BD002043414E49460000000C
:10CDB00050F0020010B5002481E004EB840202EB85
:10CDC000C413414A02EB830202F5AA7104EB840208
:10CDD00002EBC4133C4A02EB830202F5A07003F09D
:10CDE000E2FD012104EB840000EBC412364800EBA5
:10CDF000820080F84011B6EE000A04EB840000EBDC
:10CE0000C411314800EB810080ED510A9FED2F0ADB
:10CE100004EB840000EBC4112B4800EB810080ED93
:10CE2000520A9FED2B0A04EB840000EBC411264844
:10CE300000EB810080ED530A9FED250A04EB84008E
:10CE400000EBC411204800EB810080ED540A9FEDF7
:10CE5000210A04EB840000EBC4111B4800EB8100A5
:10CE600080ED5D0A9FED1A0A04EB840000EBC4110B
:10CE7000154800EB810080ED5E0A9FED170A04EB78
:10CE8000840000EBC411104800EB810080ED630AC0
:10CE90009FED120A04EB840000EBC4110A4800EB7A
:10CEA000810080ED640A9FED0E0A04EB840000EB24
:10CEB000C411054800EB810080ED650A641C022C5A
:10CEC000FFF67BAF10BD00008083FF1FCDCC4C3D33
:10CED0000000000000401C4500002F440080BB44BF
:10CEE0000000FA4410B500246BE004EB840202EB6E
:10CEF000C413354A02EB830202F19C0104EB840265
:10CF000002EBC413304A02EB830202F1880003F003
:10CF10004AFD012104EB840000EBC4122A4800EB17
:10CF2000820080F88810B7EE000A04EB840000EB62
:10CF3000C411254800EB810080ED230A9FED230AF0
:10CF400004EB840000EBC4111F4800EB810080ED6E
:10CF5000240A9FED1F0A04EB840000EBC4111A4859
:10CF600000EB810080ED250A9FED190A04EB840097
:10CF700000EBC411144800EB810080ED260AB2EEEC
:10CF8000000A04EB840000EBC4110F4800EB8100A1
:10CF900080ED2F0ABAEE000A04EB840000EBC41106
:10CFA000094800EB810080ED300AB6EE000A04EB80
:10CFB000840000EBC411044800EB810080ED350AC9
:10CFC000641C022C91DB10BD8083FF1F0AD7233C19
:10CFD0000000000010B52DED048B002408E104EBE7
:10CFE000840000EBC411854800EB810090F89C00A0
:10CFF000002876D004EB840202EBC4137F4A02EBD4
:10D00000830292ED291AF0EE410A04EB840202EB4E
:10D01000C4137A4A02EB830292ED281AB0EE410A59
:10D0200004EB840202EBC413744A02EB830202F1A4
:10D030009C0104EB840202EBC413704A02EB8302EE
:10D0400002F1880003F042FC84BB6D48008802288E
:10D050002DDB00206A4908806A480088B0F5C87F47
:10D060002ADA04EB840000EBC411644800EB810071
:10D0700090ED2D0A64486349098800EB810080ED3A
:10D08000000A04EB840000EBC4115C4800EB810053
:10D0900090ED310A5D485B49098800EB810080ED25
:10D0A000000A58480088401C5649088004E054484B
:10D0B0000088401C5249088004EB840000EBC41136
:10D0C0004E4800EB810090ED310AF0EEC08AB2EEDE
:10D0D000040AF4EEC08AF1EE10FA03DDB1EE048A20
:10D0E00016E084E0B1EE040AF4EEC08AF1EE10FA24
:10D0F00002DDB0EE088A0BE0B0EE000AF4EEC08A62
:10D10000F1EE10FA02DDB7EE088A01E09FED408AE9
:10D1100004EB840000EBC411384800EB810090ED73
:10D120002D0AB0EEC09A04EB840000EBC411334822
:10D1300000EB810090F8600001281CD104EB840012
:10D1400000EBC4112D4800EB810090ED2D0AB5EEE7
:10D15000C00AF1EE10FA09DD04EB840000EBC41103
:10D16000264800EB810090ED2D9A2DE09FED290AD5
:10D17000B0EE409A28E004EB840000EBC4111F4895
:10D1800000EB810090F8600002281DD104EB8400C0
:10D1900000EBC411194800EB810090ED2D0AB5EEAB
:10D1A000C00AF1EE10FA0BD204EB840000EBC411BC
:10D1B000124800EB810090ED2D0AB1EE409A03E099
:10D1C0009FED140AB0EE409AB4EEC89AF1EE10FA50
:10D1D00000DD00BF104890ED000A04EB840000EB76
:10D1E000C411064800EB810080ED3F0A00BF641CBB
:10D1F000022CFFF6F4AEBDEC048B10BD8083FF1F44
:10D200007E80FF1F7C80FF1F588BFF1FD897FF1F5A
:10D21000CDCC4C3F000000007880FF1F10B50024EB
:10D220006BE004EB840202EBC413354A02EB830289
:10D2300002F1F80104EB840202EBC413304A02EB62
:10D24000830202F1E40003F0AEFB012104EB840051
:10D2500000EBC4122A4800EB820080F8E410B3EE21
:10D26000040A04EB840000EBC411254800EB8100A4
:10D2700080ED3A0A9FED230A04EB840000EBC41111
:10D280001F4800EB810080ED3B0A9FED1F0A04EB75
:10D29000840000EBC4111A4800EB810080ED3C0AC9
:10D2A0009FED1A0A04EB840000EBC411144800EB54
:10D2B000810080ED3D0A9FED160A04EB840000EB2F
:10D2C000C4110F4800EB810080ED460A9FED0E0A65
:10D2D00004EB840000EBC411094800EB810080EDF1
:10D2E000470AB6EE000A04EB840000EBC4110448C0
:10D2F00000EB810080ED4C0A641C022C91DB10BD18
:10D300008083FF1F0AD7A33C000000000000FA44FE
:10D3100000007A4510B500248EE004EB840000EB99
:10D32000C411474800EB810090F8F80000287CD039
:10D3300004EB840202EBC413414A02EB830292ED38
:10D34000401AF0EE410A04EB840202EBC4133C4A9B
:10D3500002EB830292ED3F1AB0EE410A04EB840225
:10D3600002EBC413364A02EB830202F1F80104EB2C
:10D37000840202EBC413324A02EB830202F1E4009E
:10D3800003F0A4FA002C56D12E48008805284DDB66
:10D3900000202C4908802C480088B0F57A7F4ADAB2
:10D3A00004EB840000EBC411254800EB810090EDF4
:10D3B0003F0A26482449098800EB810080ED000AD5
:10D3C00004EB840000EBC4111D4800EB810090EDDC
:10D3D000400A1F481C49098800EB810080ED000AC3
:10D3E00004EB840000EBC411154800EB810090EDC4
:10D3F000440A18481449098800EB810080ED000AAE
:10D4000004EB840000EBC4110D4800EB810090EDAB
:10D41000480A11480C49098800EB810080ED000A98
:10D4200009480088401C0849088004E00548008835
:10D43000401C04490880641C022CFFF66EAF10BD2E
:10D440008083FF1F8A80FF1F8880FF1F58A4FF1F53
:10D45000F8B3FF1F98C3FF1F38D3FF1F04460D46C4
:10D460002A46214602A006F04BFD00BFFEE7000061
:10D4700057726F6E6720706172616D65746572734B
:10D480002076616C75653A2066696C65202573208D
:10D490006F6E206C696E652025640D0A0000000027
:10D4A00038B50246002300250095D81E00BF0D4D5B
:10D4B0002D682C4600BF0C4D2D68294689B105E02A
:10D4C0000D6805F08003009D6D1C0095009DA54230
:10D4D00001D8002BF4D013B18A80002001E06FF056
:10D4E000070038BD9482FF1F9082FF1F08B50D49C9
:10D4F000096AC1F302630C490968D94041F27073AB
:10D500001944491EB1FBF3F206E0009200BF0099F6
:10D510004B1E00930029FAD1011EA0F10100F4D1A5
:10D5200008BD0000004005400080FF1F08B50C4901
:10D53000096AC1F302630B490968D9400A4B1944CF
:10D54000491EB1FBF3F206E0009200BF00994B1EAA
:10D5500000930029FAD1011EA0F10100F4D108BD09
:10D56000004005400080FF1F808D5B0030B587B014
:10D5700004460121084600F05DFE03A805F0F8FD11
:10D580000020039010200490002005904CF24F30B2
:10D59000ADF8180003AA0121274805F0AFFC0122CD
:10D5A0001146254805F054FC01229104224805F05B
:10D5B0004FFD4120ADF804000620ADF806001F48DD
:10D5C000029001A801F0B2FDBDF90600002807DBBA
:10D5D00000F01F0101228A401949430941F8232024
:10D5E00000BFBDF906000F21002804DB0A07130E57
:10D5F000144A135406E00A07150E134A00F00F03ED
:10D600001B1FD55400BFBDF9060000280DDB00BF6D
:10D6100000BF00F01F02012191404209920002F177
:10D62000E022C2F8001100BF00BF00BF0121024884
:10D6300005F060FD07B030BD00400240392E020009
:10D6400080E200E000E400E018ED00E010B50446E0
:10D6500000BF0CB1012C00D104E040F2711109A00F
:10D66000FFF7FCFE00BF00BF11480068012800D191
:10D6700004E04FF4B97103A0FFF7F0FE00BF0D48BE
:10D68000046010BD2E2E5C647269766572735C68EE
:10D690006333325F6C6C5F6472697665725C73725F
:10D6A000635C686333325F6C6C5F65666D2E63002C
:10D6B000000401404081204210B5044600BF0CB177
:10D6C000012C00D104E040F2631109A0FFF7C6FE6F
:10D6D00000BF00BF11480068012800D104E04FF4EA
:10D6E000B27103A0FFF7BAFE00BF0D48046010BD81
:10D6F0002E2E5C647269766572735C686333325F88
:10D700006C6C5F6472697665725C7372635C68638B
:10D7100033325F6C6C5F65666D2E63000004014000
:10D720006081204210B5044600BF0F480068012800
:10D7300000D104E040F21E210CA0FFF78FFE00BFD5
:10D7400000BF40F23F10204340F23F11884200D119
:10D7500004E040F21F2105A0FFF780FE00BF024851
:10D760001430046010BD0000000401402E2E5C64E3
:10D770007269766572735C686333325F6C6C5F6488
:10D7800072697665725C7372635C686333325F6C76
:10D790006C5F65666D2E630010B5044600BF0CB16A
:10D7A000012C00D104E04FF4747103A0FFF756FE82
:10D7B00000BF0C48046010BD2E2E5C647269766553
:10D7C00072735C686333325F6C6C5F647269766538
:10D7D000725C7372635C686333325F6C6C5F656646
:10D7E0006D2E63008081204210B5044600BF40F2D8
:10D7F0003F10204340F23F11884200D104E04FF433
:10D80000047106A0FFF72AFE00BF0F480068204001
:10D81000A04201D1012010BD0020FCE72E2E5C6447
:10D820007269766572735C686333325F6C6C5F64D7
:10D8300072697665725C7372635C686333325F6CC5
:10D840006C5F65666D2E6300100401402DE9F041A8
:10D8500004460D4600BF37480068012800D104E0A7
:10D8600040F2D22134A0FFF7F9FD00BF00BF3D48D0
:10D870000068012800D104E040F2D3212EA0FFF778
:10D88000EDFD00BF00BFB4F5002F0BD33648844236
:10D8900002D33648844205D93548844203D3B4F1D3
:10D8A000467F00D204E04FF4357123A0FFF7D6FD88
:10D8B00000BF00BF04F0030000B904E040F2D5212E
:10D8C0001DA0FFF7CBFD00BF40F23F10FFF72AFF7E
:10D8D000184808300068274900EA01061548083052
:10D8E0000068C94308401349083108600027081D33
:10D8F000006820F0700040F02000091D08602560DD
:10D90000384600F0E9F980460A480C30006820F0FB
:10D91000700008490C310860081F00681549C943A8
:10D920000840C94331400843024908310860404675
:10D93000BDE8F081000401402E2E5C6472697665BA
:10D9400072735C686333325F6C6C5F6472697665B6
:10D95000725C7372635C686333325F6C6C5F6566C4
:10D960006D2E630080812042000C0003FB0F00033A
:10D97000E0FF1703000001012DE9F05F04460E46A9
:10D9800015466FF002092746A8464FF4807A00BF7B
:10D99000B4F5002F0BD32B48844202D32A4884428B
:10D9A00005D92A48844203D3B4F1467F00D204E06B
:10D9B00040F2462126A0FFF751FD00BF00BF6019CD
:10D9C000401EB0F5002F13D36019401E1D49884238
:10D9D00004D36019401E1C49884209D96019401EB1
:10D9E0001A49884205D36019401EB0F1467F00D223
:10D9F00004E040F2472116A0FFF730FD00BFF6B16A
:10DA00001E48006AC0F302611D480068C84044F621
:10DA10002061B0FBF1FB5946504600F044F960B973
:10DA200005E017F8010B06F8010BA8F10108B8F1A1
:10DA3000000FF6D14FF0000901E06FF004094846ED
:10DA4000BDE8F09F000C0003FB0F0003E0FF17038D
:10DA50002E2E5C647269766572735C686333325F24
:10DA60006C6C5F6472697665725C7372635C686328
:10DA700033325F6C6C5F65666D2E6300004005405D
:10DA80000080FF1F2DE9F041044600BFB4F5002FD0
:10DA900000D204E040F2633134A0FFF7DFFC00BFA6
:10DAA00000BF04F0030000B904E04FF459712FA047
:10DAB000FFF7D4FC00BF00BF37480068012800D141
:10DAC00004E040F2653129A0FFF7C8FC00BF00BFA9
:10DAD00032480068012800D104E040F2663123A0FA
:10DAE000FFF7BCFC00BF40F23F10FFF71BFE2A48C7
:10DAF000083000682A4900EA010627480830006813
:10DB0000C94308402449083108600027081D0068FF
:10DB100020F0700040F04000091D086000202060E7
:10DB20002048006AC0F302611F480068C8403221E3
:10DB3000B0FBF1F84146384600F094F80546164827
:10DB40000C30006820F0700013490C310860081F89
:10DB500000681349C9430840C943314008430E498E
:10DB6000083108602846BDE8F08100002E2E5C6474
:10DB70007269766572735C686333325F6C6C5F6484
:10DB800072697665725C7372635C686333325F6C72
:10DB90006C5F65666D2E6300000401408081204249
:10DBA00000000101004005400080FF1F70B50446E1
:10DBB000002500BF1D480068012800D104E040F2A4
:10DBC0004F111BA0FFF74AFC00BF00BFF02C00D88C
:10DBD00004E04FF4A87116A0FFF740FC00BF134803
:10DBE0000830006820F0F00004F0F00108430F490D
:10DBF0000831086010E06D1C1848006AC0F302612B
:10DC000017480068C84044F62061B0FBF1F0A84214
:10DC100002D26FF0070070BD04480830006800F0C1
:10DC2000F000A042E7D10020F5E700000004014029
:10DC30002E2E5C647269766572735C686333325F42
:10DC40006C6C5F6472697665725C7372635C686346
:10DC500033325F6C6C5F65666D2E6300004005407B
:10DC60000080FF1F70B504460E4600254FF48071FA
:10DC700001FA04F0314600F016F810F1080F00D157
:10DC80006D1F75B9102101FA04F0FFF7ADFD0128F1
:10DC900005D1102101FA04F0FFF744FD01E04FF037
:10DCA000FF35284670BDF8B505460C4600200090AB
:10DCB000002608E00098401C00900098A04202D97D
:10DCC0006FF0070604E02846FFF78EFD0128F1D12A
:10DCD00000BF3046F8BD000070B5044600251B4863
:10DCE000006AC0F302611A480068C84044F6206127
:10DCF000B0FBF1F64FF4807101FA04F03146FFF702
:10DD0000D2FF10F1080F00D16D1FEDB9082101FA03
:10DD100004F0FFF769FD012806D1082101FA04F09B
:10DD2000FFF700FD4FF0FF3575B9102101FA04F03F
:10DD3000FFF75AFD012805D1102101FA04F0FFF781
:10DD4000F1FC01E04FF0FF35284670BD0040054072
:10DD50000080FF1F70B504460D460CB1207B38B91A
:10DD600000BF06A207A1002003F006F900BF70BDA6
:10DD70002068A843206000BFF9E700004552524FD9
:10DD8000520000001B5B33316D5B25735D204576CF
:10DD9000656E7447726F757020636C6561723A20AE
:10DDA000696E76616C69642067726F75701B5B3099
:10DDB0006D0D0A0038B505461DB12846FCF709FB74
:10DDC00040B900BF27A229A1002003F0D5F800BF69
:10DDD000002038BD284600F0BDF848B100BF2B46F2
:10DDE00020A22EA1002003F0C7F800BF0020F0E71A
:10DDF00000242CE0384800EB4410007B002825D19B
:10DE0000354901EB44102021FCF7C0FA01203249CA
:10DE100001EB44110873304901EB441101F10D008D
:10DE20000F222946FCF7C9FA00212B4800EB4410C9
:10DE3000017700BF234629A22AA10020009503F004
:10DE40009BF800BF244800EB4410C2E7641C202C60
:10DE5000D0DB00BF03A231A1002003F08DF800BF8A
:10DE60000020B6E74552524F520000001B5B333191
:10DE70006D5B25735D204576656E7447726F7570B6
:10DE8000206372656174653A206E616D6520697307
:10DE9000204E554C4C1B5B306D0D0A001B5B333123
:10DEA0006D5B25735D204576656E7447726F757086
:10DEB000206372656174653A206E616D6520616CE6
:10DEC000726561647920657869737473202825739D
:10DED000291B5B306D0D0A00C4AC0020494E464F33
:10DEE000000000001B5B33326D5B25735D204576BF
:10DEF000656E7447726F757020637265617465201A
:10DF00004F4B20286964783A25642C206E616D653A
:10DF10003A2573291B5B306D0D0A00001B5B333102
:10DF20006D5B25735D204576656E7447726F757005
:10DF300020637265617465206661696C65643A206E
:10DF40006E6F20667265652067726F75701B5B303F
:10DF50006D0D0A0070B505461DB12846FCF739FA6B
:10DF600008B9002070BD002413E00C4800EB4410F9
:10DF7000007B68B1094901EB441101F10D00102249
:10DF80002946FCF748FA18B9044800EB4410E9E7C1
:10DF9000641C202CE9DB0020E4E70000C4AC002076
:10DFA00010B504460CB1207B40B900BF04A206A105
:10DFB000002002F0E1FF00BF002010BD2068FCE758
:10DFC0004552524F520000001B5B33316D5B25738D
:10DFD0005D204576656E7447726F75702067657455
:10DFE0003A20696E76616C69642067726F75701B88
:10DFF0005B306D0D0A0000002DE9F04704460E4627
:10E000001746984614B1207B00B14EB900BF1BA241
:10E010001CA1002002F0B0FF00BF0020BDE8F08787
:10E02000207A20B90AF01AFF606001212172D4F829
:10E03000009009EA0605012F06D17DB12946204648
:10E04000FFF788FE2846E9E7022F07D1B54205D140
:10E0500031462046FFF77EFE2846DFE708F1010043
:10E0600050B10AF0FBFE82466068AAEB0000404512
:10E0700001D30020D2E700BF0020CFE74552524F26
:10E08000520000001B5B33316D5B25735D204576CC
:10E09000656E7447726F757020726563763A206999
:10E0A0006E76616C696420706172616D1B5B306DAE
:10E0B0000D0A000070B504460D460CB1207B38B93E
:10E0C00000BF06A207A1002002F056FF00BF70BDEE
:10E0D00020682843206000BFF9E700004552524FF6
:10E0E000520000001B5B33316D5B25735D2045766C
:10E0F000656E7447726F75702073656E643A20693F
:10E100006E76616C69642067726F75701B5B306D31
:10E110000D0A000070B504460D4600BF2CB117482B
:10E1200020431649884200D103E0712114A0FFF773
:10E1300095F900BF00BF0DB1012D00D103E07221A0
:10E140000FA0FFF78BF900BF00BF1848006900F06F
:10E15000010000B103E0732109A0FFF77FF900BFC0
:10E16000012D05D111480068A0431049086004E062
:10E170000E48006820430D49086070BD11C5F38F3B
:10E180002E2E5C647269766572735C686333325FED
:10E190006C6C5F6472697665725C7372635C6863F1
:10E1A00033325F6C6C5F6663672E630000800440EF
:10E1B00070B504460D4600BF2CB1114820431049EC
:10E1C000884200D103E084210EA0FFF747F900BF89
:10E1D00000BF0DB1012D00D103E0852109A0FFF79B
:10E1E0003DF900BF012D05D111484068A0431049F9
:10E1F000486004E00E48406820430D49486070BD07
:10E2000079FD0F0F2E2E5C647269766572735C68FF
:10E210006333325F6C6C5F6472697665725C7372D3
:10E22000635C686333325F6C6C5F6663672E6300A8
:10E230000080044070B504460D4600BF2CB1114863
:10E2400020431049884200D103E096210EA0FFF739
:10E2500005F900BF00BF0DB1012D00D103E09721EA
:10E2600009A0FFF7FBF800BF012D05D11148806818
:10E27000A0431049886004E00E48806820430D499F
:10E28000886070BDFF8707002E2E5C64726976651A
:10E2900072735C686333325F6C6C5F64726976655D
:10E2A000725C7372635C686333325F6C6C5F66636D
:10E2B000672E63000080044070B504460D4600BF21
:10E2C0003CB141F20310204341F20311884200D1D6
:10E2D00003E0A8210DA0FFF7C1F800BF00BF0DB1FA
:10E2E000012D00D103E0A92108A0FFF7B7F800BF76
:10E2F000012D05D11048C068A0430F49C86004E053
:10E300000D48C06820430C49C86070BD2E2E5C6467
:10E310007269766572735C686333325F6C6C5F64DC
:10E3200072697665725C7372635C686333325F6CCA
:10E330006C5F6663672E63000080044070B504461E
:10E340000E46154605B10EB9012070BD09498C4233
:10E3500002D14FF4D03106E0B4F1904F02D14FF426
:10E36000882100E021460846314608F0A6FE2860D4
:10E370000020EAE70000018810B500200BF0D6FE6F
:10E380000020044981F8280003A204A102F0F4FD52
:10E3900010BD0000B8C10020465700001B5B33329F
:10E3A0006D5B25735D20446F776E6C6F61642063D5
:10E3B000616E63656C6C65641B5B306D0D0A0000FB
:10E3C00070B504460D46104A944202D14FF4D03243
:10E3D00006E0B4F1904F02D14FF4882200E02246CB
:10E3E0002A44511E084A944202D14FF4D03206E02A
:10E3F000B4F1904F02D14FF4882200E0224610463B
:10E4000008F05CFD70BD00000000018808B5042222
:10E4100069460020FFF7B0FA009880B208BD08B541
:10E42000042269464FF48820FFF7A6FA009808BD39
:10E4300008B5042269464FF48820FFF79DFA00983A
:10E4400080B208BD0148407870470000B8C1002084
:10E4500000B970470C49896801600B49C96841607F
:10E460000949496881600849896849B10649C9680C
:10E4700064225143044A9268B1FBF2F1C9B200E050
:10E480000021017300BFE4E7B8C100200148007813
:10E4900070470000B8C100201CB50446302119485F
:10E4A000FBF774FF4FF42830164948614FF40051D0
:10E4B000144881614FF48821C1611349016201212F
:10E4C00080F824104CB1206810B10E4920684861D2
:10E4D000606810B10B486168816100200BF026FE76
:10E4E00001200A4908700748806906494969CDE951
:10E4F0000010044806A20749C369002002F03CFD51
:10E500001CBD0000B8C10020FFDF0600F282FF1F23
:10E5100046570000E4F00200014890F828007047D8
:10E52000B8C10020F8B506460C463348007808B953
:10E530000820F8BD3148007840B13048037830A257
:10E5400030A1002002F018FD0720F2E7354886428E
:10E5500002D14FF4D03006E0B6F1904F02D14FF423
:10E56000882000E030460546B5F5882F02D3B5F582
:10E57000DC2F08D3334622A22BA10020009502F005
:10E58000FBFC0120D5E71D484069A04200D33CB9FF
:10E5900023461BA233A1002002F0EEFC0220C8E7B4
:10E5A0002819B0F5DC2F08D92B4615A236A100207A
:10E5B000009402F0E1FC0120BBE72819411E284627
:10E5C00008F07CFC07460FB13846B2E70B484560BF
:10E5D000846000200949C86001200874801EC86258
:10E5E0002B4607A238A10020009402F0C5FC0220AF
:10E5F0000BF09CFD00209CE7F282FF1FB8C10020B9
:10E60000465700001B5B33336D5B25735D204275FD
:10E6100073792C2073746174653D25641B5B306DC8
:10E620000D0A0000000001881B5B33316D5B257310
:10E630005D20446F776E6C6F616420616464726505
:10E64000737320696E76616C69643A203078253086
:10E650003858202D3E203078253038581B5B306DDF
:10E660000D0A00001B5B33316D5B25735D20536920
:10E670007A6520696E76616C69643A2025641B5B5B
:10E68000306D0D0A000000001B5B33316D5B25739C
:10E690005D2052616E676520696E76616C69643ACF
:10E6A00020307825303858202B2025642065786369
:10E6B0006565647320415050322077696E646F77CE
:10E6C0001B5B306D0D0A00001B5B33326D5B2573E5
:10E6D0005D20446F776E6C6F616420726561647950
:10E6E0003A20616464723D3078253038582C2073AC
:10E6F000697A653D25641B5B306D0D0A00000000E2
:10E700002DE9FE430546884614463C48007810B97A
:10E710000820BDE8FE833A48007802280CD038482B
:10E720000078032808D03648037836A236A10020A6
:10E7300002F022FC0620ECE70CB90020E9E73048A3
:10E74000007CA8420ED02E480095037C2DA237A154
:10E75000002002F011FC0620294948700BF0E6FC6D
:10E760000620D6E7264880682549C968401AA04295
:10E7700001D20220CDE703200BF0D8FC20494968E4
:10E780001F4AD2688818224641460EF075FE06469A
:10E7900036B11B48467006200BF0C8FC3046B8E77F
:10E7A000002709E018F80710154AD06A07F0CEFFD5
:10E7B0001349C862781C87B2A742F3DB1048C068CF
:10E7C00020440F49C8600846007CFF2802D1012080
:10E7D000087404E00A48007C401C09490874084891
:10E7E0008168C0682B4607A2CDE9004002911AA1BA
:10E7F000002002F0C1FB00208BE70000F282FF1F27
:10E80000B8C10020465700001B5B33336D5B257396
:10E810005D204E6F742072656164792C2073746181
:10E8200074653D25641B5B306D0D0A001B5B333145
:10E830006D5B25735D20536571206D69736D617427
:10E8400063683A2065787020256420676F742025FE
:10E85000641B5B306D0D0A001B5B33366D5B2573EB
:10E860005D20426C6F636B2025643A202564206232
:10E87000797465732C20746F74616C3D25642F2549
:10E88000641B5B306D0D0A001CB52B48007808B97D
:10E8900008201CBD2948C06AC0432849C8620846F0
:10E8A000C06A8968CDE90010244825A225A1C36863
:10E8B000002002F061FB2148C06820498968884235
:10E8C00009D21E48806800901C481DA22CA1C36874
:10E8D000002002F051FB194890F82400002820D0B5
:10E8E00004200BF023FC154A9168506808F0E5FB02
:10E8F00004461248C06A234611A22AA100900020B3
:10E9000002F03AFB0D48C06AA04209D00CA233A124
:10E91000002002F031FB06200BF008FC0520B8E7D0
:10E9200000BF05200BF002FC05A234A1002002F07C
:10E9300023FB0020ADE70000F282FF1FB8C10020DA
:10E94000465700001B5B33326D5B25735D205472AC
:10E95000616E7366657220657869743A20726563CA
:10E9600065697665643D25642F25642C20435243F8
:10E970003D3078253038581B5B306D0D0A000000A3
:10E980001B5B33336D5B25735D20496E636F6D7068
:10E990006C6574653A202564203C2025641B5B303F
:10E9A0006D0D0A001B5B33326D5B25735D20566570
:10E9B000726966793A20666C6173685F6372633D61
:10E9C0003078253038582C2072785F6372633D3080
:10E9D00078253038581B5B306D0D0A001B5B3331D6
:10E9E0006D5B25735D20435243206D69736D6174C7
:10E9F0006368211B5B306D0D0A0000001B5B333226
:10EA00006D5B25735D20466C61736820646F776E63
:10EA10006C6F616420636F6D706C657465211B5B46
:10EA2000306D0D0A0000000010B530210348FBF7DF
:10EA3000ADFC00200249087010BD0000B8C10020E4
:10EA4000F282FF1F704700002DE9F04104460D4699
:10EA5000904600BF2548008800F0010000B104E0A6
:10EA600040F2812122A0FEF7F9FC00BF00BF4CB1AB
:10EA7000012C07D0022C05D0032C03D0042C01D08C
:10EA8000052C00D104E040F2822119A0FEF7E6FC3B
:10EA900000BF00BF15B1A8B200B104E040F283216D
:10EAA00013A0FEF7DBFC00BF002719E005F0010012
:10EAB00088B10E48001D00EB841000EB8706B8F10A
:10EAC000010F04D1308840F40040308003E03088EA
:10EAD000C0F30E0030806D1005B903E0781CC7B29A
:10EAE000102FE3D300BFBDE8F0810000FC3B0540E0
:10EAF0002E2E5C647269766572735C686333325F74
:10EB00006C6C5F6472697665725C7372635C686377
:10EB100033325F6C6C5F6770696F2E6300000000BA
:10EB20002DE9F05F05460E4614464FF0000B14B970
:10EB30006FF0020BD9E000BF6D48008800F00100C3
:10EB400000B104E04FF480716AA0FEF787FC00BFBB
:10EB500000BF4DB1012D07D0022D05D0032D03D0EC
:10EB6000042D01D0052D00D104E040F2011161A077
:10EB7000FEF774FC00BF00BF16B1B0B200B104E0F4
:10EB80004FF481715BA0FEF769FC00BF00BF2088D5
:10EB900010B12088012800D104E040F2031155A0F3
:10EBA000FEF75CFC00BF00BF608810B160880228DF
:10EBB00000D104E04FF482714EA0FEF74FFC00BF7D
:10EBC00000BFA08810B1A088042800D104E040F262
:10EBD000051148A0FEF742FC00BF00BFE08828B145
:10EBE000E088102802D0E088202800D104E04FF40B
:10EBF000837140A0FEF732FC00BF00BF208918B12E
:10EC00002089B0F5804F00D104E040F2071139A00F
:10EC1000FEF724FC00BF00BF608910B16089402866
:10EC200000D104E04FF4847132A0FEF717FC00BF5E
:10EC300000BFA08918B1A089B0F5007F00D104E021
:10EC400040F209112BA0FEF709FC00BF00BFE089CC
:10EC500018B1E089B0F5805F00D104E04FF4857110
:10EC600024A0FEF7FBFB00BF00BF208A18B1208A5A
:10EC7000B0F5004F00D104E040F20B111DA0FEF7EB
:10EC8000EDFB00BF00272DE006F0010028B320882F
:10EC900061880843A1880843E188084361890843E3
:10ECA000A1890843E1890843218940EA010A45F224
:10ECB0007728208A40EA0A0A48F400480C48001DD8
:10ECC00000EB851000EB8709B9F8000020EA080086
:10ECD0000AEA08010843A9F80000761006B903E023
:10ECE000781CC7B2102FCFD300BF5846BDE8F09FA5
:10ECF000FC3B05402E2E5C647269766572735C681D
:10ED00006333325F6C6C5F6472697665725C7372D8
:10ED1000635C686333325F6C6C5F6770696F2E632E
:10ED20000000000070B504460D4600BF4CB1012C38
:10ED300007D0022C05D0032C03D0042C01D0052CC5
:10ED400000D104E04FF4FF710CA0FEF787FB00BF79
:10ED500000BF15B1A8B200B104E040F2FF1107A056
:10ED6000FEF77CFB00BF114901EB0410B0F800086E
:10ED7000284008B1012070BD0020FCE72E2E5C6405
:10ED80007269766572735C686333325F6C6C5F6462
:10ED900072697665725C7372635C686333325F6C50
:10EDA0006C5F6770696F2E630000000000300540E3
:10EDB00070B504460D4600BF4CB1012C07D0022CA3
:10EDC00005D0032C03D0042C01D0052C00D104E085
:10EDD00040F24A210BA0FEF741FB00BF00BF15B176
:10EDE000A8B200B104E040F24B2106A0FEF736FBCA
:10EDF00000BF1048102101FB0406308828433080F2
:10EE000070BD00002E2E5C647269766572735C685A
:10EE10006333325F6C6C5F6472697665725C7372C7
:10EE2000635C686333325F6C6C5F6770696F2E631D
:10EE3000000000000A38054070B504460D4600BFCA
:10EE400024B144F01F001F2800D104E04FF4B27138
:10EE500018A0FEF703FB00BF00BF0DB1012D00D1CC
:10EE600004E040F2651113A0FEF7F8FA00BF00BFFE
:10EE70001C48008800F0010000B104E04FF4B371B9
:10EE80000CA0FEF7EBFA00BF012D09D11548083898
:10EE9000008804F01F01084312490839088008E07F
:10EEA00010480838008804F01F0188430D490839CC
:10EEB000088070BD2E2E5C647269766572735C6822
:10EEC0006333325F6C6C5F6472697665725C737217
:10EED000635C686333325F6C6C5F6770696F2E636D
:10EEE00000000000FC3B05402DE9F04104460D46C2
:10EEF000164600BF4CB1012C07D0022C05D0032CC4
:10EF000003D0042C01D0052C00D104E04FF4BE71D5
:10EF100024A0FEF7A3FA00BF00BF15B1A8B200B14C
:10EF200004E040F27D111FA0FEF798FA00BF00BF79
:10EF30000F2E03D9202E02D33B2E00D804E04FF42D
:10EF4000BF7118A0FEF78AFA00BF00BF21480088F1
:10EF500000F0010000B104E040F27F1111A0FEF7C3
:10EF60007DFA00BF002717E005F0010078B11948CD
:10EF7000801D00EB841000EB8708B8F800004FF606
:10EF8000C071084006F03F010843A8F800006D106A
:10EF900005B903E0781CC7B2102FE5D300BFBDE868
:10EFA000F08100002E2E5C647269766572735C6875
:10EFB0006333325F6C6C5F6472697665725C737226
:10EFC000635C686333325F6C6C5F6770696F2E637C
:10EFD00000000000FC3B054070B504460D4600BF34
:10EFE0004CB1012C07D0022C05D0032C03D0042CEB
:10EFF00001D0052C00D104E04FF40E710BA0FEF7F8
:10F000002DFA00BF00BF15B1A8B200B104E040F274
:10F01000392106A0FEF722FA00BF1048102101FB9B
:10F02000040630882843308070BD00002E2E5C64BA
:10F030007269766572735C686333325F6C6C5F64AF
:10F0400072697665725C7372635C686333325F6C9D
:10F050006C5F6770696F2E63000000000838054020
:10F0600010B5044600BF44B1B4F5804F05D0B4F5E7
:10F07000004F02D0B4F5404F00D104E04FF4ED71E1
:10F080000EA0FEF7EBF900BF00BF1848008800F0A3
:10F09000010000B104E040F2DB1108A0FEF7DEF948
:10F0A00000BF1248001F0088C0F30D0004F4404167
:10F0B00008430E49091F088010BD00002E2E5C6415
:10F0C0007269766572735C686333325F6C6C5F641F
:10F0D00072697665725C7372635C686333325F6C0D
:10F0E0006C5F6770696F2E6300000000FC3B054099
:10F0F0000146002009B9C01E09E000220A804A80AA
:10F10000CA800A820A814A818A81CA818A807047BC
:10F1100070B505460C461DB92046FEF727FA01E0FA
:10F12000002070BD00BF0120FBE7000070B5044661
:10F1300000260CB9F61E4BE000BF2088B0F5007F1A
:10F1400000DA03E0CD2123A0FEF788F900BF208874
:10F15000400900EB4000202101EB4000B4F902100F
:10F1600088420AD82088400900EB4000252101EBA5
:10F170004000B4F90210884206D2B4F902002028F7
:10F1800002D36FF0020623E060881F49042212FBBD
:10F1900000152868C0F3080040F2FF11884208D12A
:10F1A00020882860B4F90210184A606842F82100EB
:10F1B0000EE020882968C1F30801884206D1B4F91D
:10F1C0000210124A606842F8210001E06FF0010667
:10F1D000304670BD2E2E5C647269766572735C6811
:10F1E0006333325F6C6C5F6472697665725C7372F4
:10F1F000635C686333325F6C6C5F696E74657272F6
:10F20000757074732E6300005C10054070B50020AB
:10F2100010B5034908688047BFF34F8F10BD000049
:10F2200070B5002010B5034948688047BFF34F8F81
:10F2300010BD000070B5002010B5034988688047F4
:10F24000BFF34F8F10BD000070B5002010B503490B
:10F25000C8688047BFF34F8F10BD000070B5002015
:10F2600010B5034908698047BFF34F8F10BD0000F8
:10F2700070B5002010B5034948698047BFF34F8F30
:10F2800010BD000070B5002010B5034988698047A3
:10F29000BFF34F8F10BD000070B5002010B50349BB
:10F2A000C8698047BFF34F8F10BD000070B50020C4
:10F2B00010B50349086A8047BFF34F8F10BD0000A7
:10F2C00070B5002010B50349486A8047BFF34F8FDF
:10F2D00010BD000070B5002010B50349886A804752
:10F2E000BFF34F8F10BD000070B5002010B503496B
:10F2F000C86A8047BFF34F8F10BD000070B5002073
:10F3000010B50349086B8047BFF34F8F10BD000055
:10F3100070B5002010B50349486B8047BFF34F8F8D
:10F3200010BD000070B5002010B50349886B804700
:10F33000BFF34F8F10BD000070B5002010B503491A
:10F34000C86B8047BFF34F8F10BD000070B5002021
:10F3500010B50349086C8047BFF34F8F10BD000004
:10F3600070B5002010B50349486C8047BFF34F8F3C
:10F3700010BD000070B5002010B50349886C8047AF
:10F38000BFF34F8F10BD000070B5002010B50349CA
:10F39000C86C8047BFF34F8F10BD000070B50020D0
:10F3A00010B50349086D8047BFF34F8F10BD0000B3
:10F3B00070B5002010B50349486D8047BFF34F8FEB
:10F3C00010BD000070B5002010B50349886D80475E
:10F3D000BFF34F8F10BD000070B5002010B503497A
:10F3E000C86D8047BFF34F8F10BD000070B500207F
:10F3F00010B50349086E8047BFF34F8F10BD000062
:10F4000070B5002010B50349486E8047BFF34F8F99
:10F4100010BD000070B5002010B50349886E80470C
:10F42000BFF34F8F10BD000070B5002010B5034929
:10F43000C86E8047BFF34F8F10BD000070B500202D
:10F4400010B50349086F8047BFF34F8F10BD000010
:10F4500070B5002010B50349486F8047BFF34F8F48
:10F4600010BD000070B5002010B50349886F8047BB
:10F47000BFF34F8F10BD000070B5002010B50349D9
:10F48000C86F8047BFF34F8F10BD000070B50020DC
:10F4900010B50349D1F880008047BFF34F8F10BDEE
:10F4A00070B5002010B50349D1F884008047BFF340
:10F4B0004F8F10BD70B5002010B50349D1F88800FA
:10F4C0008047BFF34F8F10BD70B5002010B50349C2
:10F4D000D1F88C008047BFF34F8F10BD70B500206E
:10F4E00010B50349D1F890008047BFF34F8F10BD8E
:10F4F00070B5002010B50349D1F894008047BFF3E0
:10F500004F8F10BD70B5002010B50349D1F8980099
:10F510008047BFF34F8F10BD70B5002010B5034971
:10F52000D1F89C008047BFF34F8F10BD70B500200D
:10F5300010B50349D1F8A0008047BFF34F8F10BD2D
:10F5400070B5002010B50349D1F8A4008047BFF37F
:10F550004F8F10BD70B5002010B50349D1F8A80039
:10F560008047BFF34F8F10BD70B5002010B5034921
:10F57000D1F8AC008047BFF34F8F10BD70B50020AD
:10F5800010B50349D1F8B0008047BFF34F8F10BDCD
:10F5900070B5002010B50349D1F8B4008047BFF31F
:10F5A0004F8F10BD70B5002010B50349D1F8B800D9
:10F5B0008047BFF34F8F10BD70B5002010B50349D1
:10F5C000D1F8BC008047BFF34F8F10BD70B500204D
:10F5D00010B50349D1F8C0008047BFF34F8F10BD6D
:10F5E00070B5002010B50349D1F8C4008047BFF3BF
:10F5F0004F8F10BD70B5002010B50349D1F8C80079
:10F600008047BFF34F8F10BD70B5002010B5034980
:10F61000D1F8CC008047BFF34F8F10BD70B50020EC
:10F6200010B50349D1F8D0008047BFF34F8F10BD0C
:10F6300070B5002010B50349D1F8D4008047BFF35E
:10F640004F8F10BD70B5002010B50349D1F8D80018
:10F650008047BFF34F8F10BD70B5002010B5034930
:10F66000D1F8DC008047BFF34F8F10BD70B500208C
:10F6700010B50349D1F8E0008047BFF34F8F10BDAC
:10F6800070B5002010B50349D1F8E4008047BFF3FE
:10F690004F8F10BD70B5002010B50349D1F8E800B8
:10F6A0008047BFF34F8F10BD70B5002010B50349E0
:10F6B000D1F8EC008047BFF34F8F10BD70B500202C
:10F6C00010B50349D1F8F0008047BFF34F8F10BD4C
:10F6D00070B5002010B50349D1F8F4008047BFF39E
:10F6E0004F8F10BD70B5002010B50349D1F8F80058
:10F6F0008047BFF34F8F10BD70B5002010B5034990
:10F70000D1F8FC008047BFF34F8F10BD70B50020CB
:10F7100010B50349D1F800018047BFF34F8F10BDEA
:10F7200070B5002010B50349D1F804018047BFF33C
:10F730004F8F10BD70B5002010B50349D1F80801F6
:10F740008047BFF34F8F10BD70B5002010B503493F
:10F75000D1F80C018047BFF34F8F10BD70B500206A
:10F7600010B50349D1F810018047BFF34F8F10BD8A
:10F7700070B5002010B50349D1F814018047BFF3DC
:10F780004F8F10BD70B5002010B50349D1F8180196
:10F790008047BFF34F8F10BD70B5002010B50349EF
:10F7A000D1F81C018047BFF34F8F10BD70B500200A
:10F7B00010B50349D1F820018047BFF34F8F10BD2A
:10F7C00070B5002010B50349D1F824018047BFF37C
:10F7D0004F8F10BD70B5002010B50349D1F8280136
:10F7E0008047BFF34F8F10BD70B5002010B503499F
:10F7F000D1F82C018047BFF34F8F10BD70B50020AA
:10F8000010B50349D1F830018047BFF34F8F10BDC9
:10F8100070B5002010B50349D1F834018047BFF31B
:10F820004F8F10BD70B5002010B50349D1F83801D5
:10F830008047BFF34F8F10BD70B5002010B503494E
:10F84000D1F83C018047BFF34F8F10BD70B5002049
:10F8500010B50349D1F840018047BFF34F8F10BD69
:10F8600070B5002010B50349D1F844018047BFF3BB
:10F870004F8F10BD70B5002010B50349D1F8480175
:10F880008047BFF34F8F10BD70B5002010B50349FE
:10F89000D1F84C018047BFF34F8F10BD70B50020E9
:10F8A00010B50349D1F850018047BFF34F8F10BD09
:10F8B00070B5002010B50349D1F854018047BFF35B
:10F8C0004F8F10BD70B5002010B50349D1F8580115
:10F8D0008047BFF34F8F10BD70B5002010B50349AE
:10F8E000D1F85C018047BFF34F8F10BD70B5002089
:10F8F00010B50349D1F860018047BFF34F8F10BDA9
:10F9000070B5002010B50349D1F864018047BFF3FA
:10F910004F8F10BD70B5002010B50349D1F86801B4
:10F920008047BFF34F8F10BD70B5002010B503495D
:10F93000D1F86C018047BFF34F8F10BD70B5002028
:10F9400010B50349D1F870018047BFF34F8F10BD48
:10F9500070B5002010B50349D1F874018047BFF39A
:10F960004F8F10BD70B5002010B50349D1F8780154
:10F970008047BFF34F8F10BD70B5002010B503490D
:10F98000D1F87C018047BFF34F8F10BD70B50020C8
:10F9900010B50349D1F880018047BFF34F8F10BDE8
:10F9A00070B5002010B50349D1F884018047BFF33A
:10F9B0004F8F10BD70B5002010B50349D1F88801F4
:10F9C0008047BFF34F8F10BD70B5002010B50349BD
:10F9D000D1F88C018047BFF34F8F10BD70B5002068
:10F9E00010B50349D1F890018047BFF34F8F10BD88
:10F9F00070B5002010B50349D1F894018047BFF3DA
:10FA00004F8F10BD70B5002010B50349D1F8980193
:10FA10008047BFF34F8F10BD70B5002010B503496C
:10FA2000D1F89C018047BFF34F8F10BD70B5002007
:10FA300010B50349D1F8A0018047BFF34F8F10BD27
:10FA400070B5002010B50349D1F8A4018047BFF379
:10FA50004F8F10BD70B5002010B50349D1F8A80133
:10FA60008047BFF34F8F10BD70B5002010B503491C
:10FA7000D1F8AC018047BFF34F8F10BD70B50020A7
:10FA800010B50349D1F8B0018047BFF34F8F10BDC7
:10FA900070B5002010B50349D1F8B4018047BFF319
:10FAA0004F8F10BD70B5002010B50349D1F8B801D3
:10FAB0008047BFF34F8F10BD70B5002010B50349CC
:10FAC000D1F8BC018047BFF34F8F10BD70B5002047
:10FAD00010B50349D1F8C0018047BFF34F8F10BD67
